:0200000490006A
:1000000028830124E1030090E90300908D03009010
:100010008D030090EF030090F103009000000000BA
:10002000000000000000000000000000F30300904A
:10003000F503009000000000DB0200903196009074
:10004000FB030090FB030090FB030090FB03009078
:10005000FB030090FB03009071180090C9180090FA
:10006000E1180090F918009011190090FB0300901E
:10007000FB030090FB030090FB030090FB03009048
:10008000FB030090FB030090FB030090FB03009038
:10009000FB030090FB030090FB03009029190090E4
:1000A000FB030090FB030090FB030090FB03009018
:1000B000FB030090FB030090FB030090FB03009008
:1000C000FB030090FB030090FB030090FB030090F8
:1000D000FB030090FB030090FB030090FB030090E8
:1000E00089180090FB03009000000000FB030090C3
:1000F000FB030090FB030090FB030090FB030090C8
:10010000FB03009069910090FB030090FB030090BB
:10011000F9990090FB030090FB030090FB03009013
:10012000FB030090C9110090FB030090FB030090BB
:10013000FB030090FB030090FB030090FB03009087
:1001400000000000000000000000000000000000AF
:10015000FB030090FB030090FB030090FB03009067
:10016000FB030090FB030090FB030090FB03009057
:10017000FB030090FB030090C1100090FB03009074
:10018000FB030090FB030090FB030090FB03009037
:10019000FB030090FB030090FB030090FB03009027
:1001A000F1770090FB030090FB030090FB030090AD
:1001B000FB030090FB030090FB030090FB03009007
:1001C000FB030090FB030090FB030090FB030090F7
:1001D000FB030090FB030090FB030090FB030090E7
:1001E000FB030090FB030090FB030090FB030090D7
:1001F000FB030090FB030090FB030090FB030090C7
:10020000FB030090FB030090FB030090FB030090B6
:10021000FB030090FB030090FB030090FB030090A6
:10022000FB03009039700090A1790090000000005D
:1002300089910090FB03009000000000FB030090F8
:10024000FB030090FB030090FB030090FB03009076
:10025000FB030090FB030090FB030090FB03009066
:10026000FB030090FB030090FB030090FB03009056
:10027000FB030090FB030090FB03009000000000D4
:10028000FB030090FB030090FB03009000000000C4
:1002900000000000FB030090DFF80CD000F07AFCB7
:1002A00000480047090D009028830124EFF31080D7
:1002B00072B6704780F310887047424A1368012B6A
:1002C00004D04FF0010313603F4A10603F4A1160B1
:1002D0003F484FF0805101607047EFF3108272B6D3
:1002E0003848016851B34FF0000101603648016899
:1002F00091B1EFF309811EF0100F08BF21ED108BB3
:1003000021E9F00F4FF000041EF0100F08BF012488
:1003100041F8044D006801602C490968096808C962
:10032000B1E8F00F002B18BFB1EC108B81F30988F6
:100330004EF0100E002B18BF2EF0100E82F3108816
:100340004EF0040E704721490860EFF3148222F04A
:10035000040282F314881C494FF000000860194918
:100360004FF0010008601B481B49D0F8002041EA0B
:100370000201016016484FF0805101601748006883
:10038000006880F3088861B662B670471EF0040FFB
:100390000CBFEFF30880EFF3098020E9F00F40F87D
:1003A00004ED40F804ED1EF0040F0CBF80F3088844
:1003B00080F3098800B552F08BFC5DF804EB4EF039
:1003C000040E7047986E0124CC6A0124D86A012477
:1003D00004ED00E020ED00E00000FFFF08ED00E08C
:1003E0000648804706480047FEE7FEE7FEE7FEE7CF
:1003F000FEE7FEE7FEE7FEE7FEE7FEE74996009030
:10040000990200902DE9F05F0546002092469B4638
:1004100088460646814640241BE02846414647461A
:10042000224600F084F953465A46C01A914110D32F
:1004300011461846224600F06BF92D1A67EB0108A9
:100440004F4622460120002100F062F917EB000917
:100450004E41201EA4F10104DFDC484631462A4605
:100460004346BDE8F09FA0F14101192900D8203092
:10047000704700000649074A0868504343F23902B2
:100480001044086040087047014908607047000048
:10049000980000246D4EC64110B5431A934209D20C
:1004A0008318881803E010F8011D03F8011D521E7F
:1004B000F9D210BD40EA01039B0703D009E008C947
:1004C000121F08C0042AFAD203E011F8013B00F819
:1004D000013B521EF9D210BDD2B201E000F8012B4F
:1004E000491EFBD270470022F6E710B513460A46B4
:1004F00004461946FFF7F0FF204610BD421E12F8D1
:10050000013F002BFBD111F8013B02F8013B002B0E
:10051000F9D1704730B505462A460B4612F8010B53
:1005200013F8014B08B1A042F8D01CB1002802D04A
:100530006D1CF1E7284630BD10B5044604E00B7889
:1005400000F8013B03B1491C521EF8D2204610BDF1
:10055000CAB2401E10F8011F8A4202D00029F9D108
:1005600000207047421C10F8011B0029FBD1801AA3
:10057000704710B5002200E0521C835C8C5CA342E3
:1005800001D1002BF8D1D8B2E1B2401A10BDCBB2E4
:1005900003E00178994203D0401C521EF9D200209A
:1005A000704730B504460020034600E05B1C9342D0
:1005B00003D2E05CCD5C401BF8D030BD034611F89F
:1005C000012B00F8012B002AF9D11846704730B5ED
:1005D00005460020034600E05B1C934205D2EC5C1C
:1005E000C85C201A01D1002CF6D130BD0022CBB25C
:1005F0000178994200D10246401C0029F8D11046EA
:10060000704730B503461D783DB10A4612F8014BDC
:100610001CB1AC42FAD15B1CF5E7181A30BD30B5FD
:100620000546002008E00A4602E0A34207D0521C1B
:100630001378002BF9D1401C2C5C002CF3D130BD79
:100640002DE9F04791460F4680460446002614F8EF
:10065000015B2DB100F07CF80068405DC007F6D169
:100660002B2D02D02D2D18D0641E4A463946204627
:1006700000F072F827B13968A14201D1C7F80080B3
:1006800071054FF002040BD54042002803DD6EF0E7
:100690004BF80460A007BDE8F08746F48066E4E705
:1006A0000028F8DA6EF040F804606FF00040F2E7DE
:1006B00070B506466EF038F8046805460A22002137
:1006C0003046FFF7BDFF2C6070BD70B506466EF07A
:1006D0002BF8046805460A2200213046FFF7B0FFD8
:1006E0002C6070BD30B50B4601460020202201244D
:1006F00009E021FA02F59D4205D303FA02F5491BF0
:1007000004FA02F52844151EA2F10102F1DC30BD05
:10071000202A04DB203A00FA02F1002070479140C1
:10072000C2F1200320FA03F3194390407047202AB6
:1007300004DB203A21FA02F00021704721FA02F38B
:10074000D040C2F120029140084319467047000092
:1007500000487047A47E07902DE9F05F824600783C
:10076000002715468B460AF10104B946302801D00E
:100770009DB113E014F8010B0127782803D0582805
:1007800001D045B10AE00DB1102D07D10027102589
:1007900014F8010B02E0082500E00A250026B04607
:1007A0000EE005FB080005FB06F1012701EB1046F2
:1007B0001FFA80F8B6F5803F00D3B94614F8010B54
:1007C000294600F00BFA0028EBDABBF1000F05D048
:1007D0000FB1641E00E05446CBF80040B9F1000FA1
:1007E00006D06DF0A1FF02210160C81EBDE8F09F98
:1007F00048EA0640FAE72DE9FE4F804681EA030009
:10080000C00F0C46009021F0004123F00045B8EBEA
:100810000200A94105D24046214690461C460B469F
:10082000024623F00040104347D0270DC7F30A00CB
:10083000C3F30A510290401A019040286BDAC3F3C7
:10084000130040F4801B0098924620B10023D2EBA5
:10085000030A63EB0B0B01985946C0F14002504666
:10086000FFF756FF06460D4650465946019A00F0DE
:10087000A3F910EB08006141002487EA115284EAD1
:10088000E7731A4340D0009A62B3019A012A4FEAF3
:10089000075215DC001B61EB02014FF0004202EA37
:1008A0000752CDE90042001C41F5801132462B462B
:1008B00000F0B1F903B0BDE8F08F40462146F9E7FA
:1008C000001B61EB0201001C41F5801300185B4125
:1008D0002018A2F5001747EB030140EAD570B619BE
:1008E0006D4111E06D084FEA360645EAC0754FEAE2
:1008F0000752001B61EB0201001C41F58011490801
:100900004FEA30000019514132462B4603B0BDE892
:10091000F04F00F071B90098012240000023D0EBA5
:10092000020263EBE073009821464FEAE074B8EBF3
:10093000000061EB0401E9E783F000435BE781F02D
:10094000004158E72DE9FE4F81EA030404F000441A
:1009500021F0004100944FF0000B23F0004350EAD7
:1009600001045ED052EA03045BD0C3F30A54C1F31E
:100970000A552C44A4F2F3340194A0FB0254C1F3B1
:10098000130141F48011C3F3130343F4801301FBFB
:10099000024400FB034E840A970A44EA815447EA62
:1009A0008357A4FB076802958D0A05FB07854FEA6C
:1009B000932C04FB0C542705029D4FEA065847EA86
:1009C0001637B5EB08056EEB070C870E920E47EA5B
:1009D000811742EA8312A7FB0201B6EB0B0164EB1D
:1009E00000042B0D43EA0C335E1844EB1C50DA462E
:1009F0005146E7FB0201C5F313044FEA0B3343EA08
:100A000014534FEA0432019C43EA0603A4F10C0498
:100A10000294009CCDE900B400F0FDF803B0BDE8FD
:100A2000F08F00200146F9E72DE9F04D81EA03043B
:100A300004F0004B21F0004514464FF0000A23F06B
:100A4000004150EA050220D054EA01021DD0C5F34E
:100A50000A570246C5F31303C1F31300C1F30A5644
:100A600040F4801543F48013A7EB0608101BD6460C
:100A700008F2FD3873EB050002D308F1010801E02C
:100A800092185B41B8F1000F03DA00200146BDE87F
:100A9000F08D00204FF48011064684460EE0171BAF
:100AA00073EB050705D3121B63EB050306434CEA02
:100AB000010C49084FEA300092185B4150EA0107E7
:100AC000EDD152EA030012D082EA040083EA050164
:100AD000084305D0101BAB4106D20122002306E0DB
:100AE00000224FF0004302E06FF0010253101AEBB6
:100AF00006004CEB085110EB0A0041EB0B01BDE87E
:100B0000F04D00F079B870B521F0004303430CD0EC
:100B1000C1F30A550024D5EB040564EB0403D61792
:100B2000AD1AB34102DB0020014670BD201841EB35
:100B3000025170BDC1F30A52C1F3130140F2FF33F9
:100B400041F480119A4202DA00200146704740F2D7
:100B500033439A42A2F2334202DC5242FFF7E7BD2E
:100B6000FFF7D6BD30B5041E71F1000404DB4FF071
:100B70000044404264EB0101141E73F1000405DBE4
:100B80001C464FF00043524263EB0403994208BFF6
:100B9000904230BD064C074D06E0E06840F001038E
:100BA00094E8070098471034AC42F6D3FFF778FB7F
:100BB0005C6D0B907C6D0B90202A06DBCB17203AE6
:100BC00041FA02F043EAE07306E041FA02F3D04052
:100BD000C2F1200291400843194670473A2800D2DA
:100BE000303820F02002412A01D3A2F13700884298
:100BF00001D34FF0FF30704710B5141E73F100049D
:100C000008DA401C41F1000192185B411A4301D1FE
:100C100020F0010010BD2DE9F04D92469B4611B128
:100C2000B1FA81F202E0B0FA80F220329046FFF78A
:100C30006FFD04460F4640EA0A0041EA0B015346A5
:100C40005A46084313D0114653EA010019D0C8F19F
:100C500040025046FFF76BFD05460E46504659468A
:100C60004246FFF755FD084305D0012004E0204629
:100C70003946BDE8F08D0020054346EAE0762C4376
:100C800037430A986305E40AA0EB08000022FD0A36
:100C900044EA47540A3002D500200146E9E701053D
:100CA00010196941DDE9084500196941BDE8F04DB9
:100CB000A2E770B58C1810F8015B15F0070301D19D
:100CC00010F8013B2A1106D110F8012B03E010F8AF
:100CD000016B01F8016B5B1EF9D12B0705D40023D2
:100CE000521E0DD401F8013BFAE710F8013BCB1A74
:100CF000921C03E013F8015B01F8015B521EF9D569
:100D0000A142D8D3002070BD80B55CF011F900205D
:100D100080BD000000000000B0B50022012918DBF2
:100D200041F2210E03788C46013982EA032208231E
:100D300014B28EEA4205B4F1FF3FA3F10103C8BF2C
:100D400055001A062A46F3D1BCF1020F00F101004A
:100D5000E8DA90B2B0BD000080B5022052F020FC6D
:100D600080BD00000000000010B540F200444021AA
:100D7000C5F602040022204602F08AFA206880218B
:100D800020F4404020602068002240F48040206031
:100D9000204602F07DFAFFF7DFFF402101222046C6
:100DA00002F076FAFFF7D8FF40210022204602F039
:100DB0006FFA10BD0000000080B586B044F2E0403C
:100DC000C5F60200016841F002010160006801A956
:100DD00000F0020001900198C02001900120CDE9AF
:100DE00002000320049040F20040C5F6020002F029
:100DF00077F906B080BD000010B540F200444021F4
:100E0000C5F602040022204602F042FA2068802142
:100E100020F4404020602068012240F4804020609F
:100E2000204602F035FAFFF797FF402101222046C5
:100E300002F02EFAFFF790FF40210022204602F038
:100E400027FA10BD00000000F0B581B040F2004567
:100E50000446C5F60205286820F44040286028684A
:100E600028601E2052F09CFB002600274021002213
:100E7000284602F00DFAFFF76FFF402101222846B5
:100E800002F006FA8021284602F0FAF9002818BF7D
:100E9000012040EA4606FFF75FFF072F07F1010731
:100EA000E4D314B1FFF760FF01E0FFF7A5FFF0B254
:100EB00001B0F0BD0000000070B540F200440546EE
:100EC000C5F6020400220026216821F44041216079
:100ED0002068402140F480402060204602F0D8F98C
:100EE000E8B28021C209204602F0D2F96D00FFF776
:100EF00033FF40210122204602F0CAF9FFF72CFF00
:100F000040210022204602F0C3F9FFF725FF072EFB
:100F100006F10106E4D370BD10B540F20044802113
:100F2000C5F602040122206820F4404020602068B9
:100F300040F480402060204602F0AAF940210122BE
:100F4000204602F0A5F91E2052F02AFB8021002243
:100F5000204602F09DF9FFF7FFFE402100222046C7
:100F600002F096F910BD000010B540F20044402197
:100F7000C5F602040022206820F44040206020686A
:100F800040F480402060204602F082F98021002257
:100F9000204602F07DF91E2052F002FB4021012282
:100FA000204602F075F9FFF7D7FE80210122204686
:100FB00002F06EF910BD0000B0B540F2004480218F
:100FC000C5F602040122206820F440402060206819
:100FD0002060204602F05CF940210122204602F008
:100FE00057F9FFF7B9FE8021204602F049F960B1B8
:100FF000002500BFFA2D10D20135FFF7ADFE80218C
:10100000204602F03DF90028F4D14021002220467C
:10101000002502F03DF92846B0BDFFF7A5FF0120ED
:10102000B0BD00000000000070B50D46064605206A
:101030000421144600F028F80120002109F0C4FA28
:101040000A20802108F0D0FA3DB1013E16F8011FB8
:10105000092009F0B9FA013DF8D10120032109F076
:10106000B3FAFF25052007F077FF013D290602D0DE
:1010700010F00400F6D0222007F06EFF207021202F
:1010800007F06AFF607070BDB0B50C46054607F00A
:1010900063FF20EA0401284609F096FAB0BD00007B
:1010A00080B5806B816C496D022906D0012180F8E2
:1010B0003510C16C41F04001C16400F0F9FE80BD03
:1010C00080B552F05DFC46F62420C2F2014000F0EB
:1010D00007FF52F079FC80BD4CF68010C2F2004050
:1010E0000068016841F0010101600020C4F60200BF
:1010F000016841F00101016070470000000000003C
:101100000020C4F60200016821F00101016000BF67
:101110000168C907FCD14CF68010C2F2004000689B
:10112000016821F00101016070470000000000002B
:10113000B0B540F23014DDF810E0C2F200440125F1
:101140000EFB03224CF6B03325601EF00F0518BFCE
:10115000C5F11005C2F2004341F2000CC5F2002CAB
:1011600001EB82011D604BF26825C2F20045059A31
:1011700029604FF48131CCF800100021CCF84010E8
:101180000699CCF8341021680B24CFF6017444EA98
:101190008141CCF81C101968CCF8101042EA0E41BD
:1011A000CCF844102968CCF83C10CCF80C00DCF8E2
:1011B000000040F00100CCF8000000BFDCF80000A7
:1011C000C007FBD1B0BD0000B0B545F2004540F20C
:1011D0005844C5F60205C4F2020452F0D1FB4CF6A5
:1011E000801004F16001C2F200402A460068884283
:1011F00014D8A04202D9A4F154020FE05823C4F23B
:10120000020303F16002904202D903F56A7205E01D
:10121000A3F15802984288BFA3F154021268120544
:1012200027D5884203D94FF4006068601DE0A042D2
:1012300004D94FF4006044F84C0C16E05821C4F275
:10124000020101F16002904204D94FF4006044F8B9
:10125000500C0AE0884204D94FF4006041F84C0C6D
:1012600003E04FF4006041F8500C11F09DF807F0D6
:101270008BFE52F0A9FBB0BD40F20F420168C4F2F0
:101280000202914210DC6F22C4F20202914220DC81
:101290003F22C4F20202914236DC1022C4F2020262
:1012A000914254D028224EE040F26F42C4F2020232
:1012B00091421ADC40F23F42C4F2020291422ADC1F
:1012C00040F21042C4F20202914240D040F2284261
:1012D00039E09F22C4F20202914225DC7022C4F25E
:1012E0000202914233D088222DE040F29F42C4F2A4
:1012F000020291421FDC40F27042C4F202029142AB
:1013000025D040F288421EE04022C4F202029142FF
:101310001DD0582217E040F24042C4F2020291422E
:1013200015D040F258420EE0A022C4F202029142CF
:101330000DD0B82207E040F2B842C4F20202914256
:1013400005D040F2A042C4F2020291421AD1D0F874
:1013500000C06FF00F024AF6AB2352FA8CF2CAF6C5
:10136000AA23A2FB033109A35F2AC1F302115B5C2C
:1013700040F2FF312CEA0101C36588BF0431816569
:1013800008467047016821F0FF01F8E700061016D3
:10139000000610160000000010B545F25742016823
:1013A000C5F6020291420EDC45F22F42C5F602025A
:1013B000914217DC45F20842C5F60202914226D05E
:1013C00045F21C421FE045F27F42C5F602029142FF
:1013D00011DC45F25842C5F60202914217D045F29F
:1013E0006C4210E045F23042C5F6020291420ED046
:1013F00045F2444207E045F29442C5F602029142AA
:1014000005D045F28042C5F60202914219D1017819
:101410004CF6CD42CCF6CC4245F600030839C5F671
:101420000203A1FB021203F18001120903EB820304
:1014300002F01F0203660123416603FA02F181668E
:1014400010BD02784AF6AB23CAF6AA234FF0080E65
:10145000103AA2FB032340F20F42C4F202024FEA09
:10146000131C914202F1AA04624688BF0EEB1312CC
:1014700040F60003A142C4F2020303F1800128BF39
:101480006246D3E70000000010B50279511E07291B
:1014900088BF10BD45F2574C45F6FC0E0368C5F6F3
:1014A000020CC5F6020E63450EF1440C0EDC45F24B
:1014B0002F44C5F60204A34217DC45F20844C5F6E2
:1014C0000204A34226D045F21C441FE045F27F44AB
:1014D000C5F60204A34211DC45F25844C5F60204E5
:1014E000A34217D045F26C4410E045F23044C5F6F3
:1014F0000204A3420ED045F2444407E045F2804482
:10150000C5F60204A34205D045F29444C5F6020490
:10151000A34209D10EEB8202C2660122C0F870C05C
:1015200002FA01F1416710BD40F6FC0EC4F2020E52
:101530000EF1440CEEE700008169B1F5005F07D0C1
:1015400079B9816A022912D0012916D079B112E045
:10155000816A03290FD8DFE801F0020A0210012096
:101560007047816A03293CBF0120704703D1C06ADC
:10157000C0F30060704700207047C06AA0F1C070DF
:10158000B0FA80F04009704780B540F20F4ED0F8B5
:1015900000C0C4F2020EF44514DC40F26F0EC4F237
:1015A000020EF44523DC40F23F0EC4F2020EF44575
:1015B0003BDC40F2100EC4F2020EF4455CD040F267
:1015C000280E55E040F26F4EC4F2020EF4451DDCC9
:1015D00040F23F4EC4F2020EF4452FDC40F2104EB2
:1015E000C4F2020EF44547D040F2284E40E040F2EB
:1015F0009F0EC4F2020EF44529DC40F2700EC4F2D4
:10160000020EF44538D040F2880E31E040F29F4E91
:10161000C4F2020EF44523DC40F2704EC4F2020E16
:10162000F44529D040F2884E22E040F2400EC4F248
:10163000020EF44520D040F2580E19E040F2404E20
:10164000C4F2020EF44517D040F2584E10E040F2BA
:10165000A00EC4F2020EF4450ED040F2B80E07E020
:1016600040F2B84EC4F2020EF44505D040F2A04E4E
:10167000C4F2020EF4450BD1D0F800C080684028B7
:10168000CCF804300BD1CCF80820CCF80C1080BD7D
:10169000D0F800C080684028CCF80430F3D0CCF8F3
:1016A0000810CCF80C2080BDB0B5D0F864E0D0F8BC
:1016B00058C0C46E002C846ECEF804401CBFD0E924
:1016C0001CE4CEF8044040F26F44D0F800E0C4F2CD
:1016D0000204A64515DC9F24C4F20204A6452BDCB7
:1016E0005724C4F20204A6454EDC1024C4F20204BE
:1016F000A64576D02824C4F20204A64571D0402421
:101700006BE045F22F44C5F60204A64527DC40F203
:10171000B744C4F20204A64542DC40F27044C4F26D
:101720000204A6455DD040F28844C4F20204A645F6
:1017300057D040F2A04450E040F22744C4F20204E3
:10174000A6453CDCA024C4F20204A64549D0B82436
:10175000C4F20204A64544D040F210443DE045F2F4
:101760006B44C5F60204A64555DC45F23044C5F687
:101770000204A64561D045F24444C5F60204A645DC
:101780005BD045F2584454E05824C4F20204A64504
:1017900027D07024C4F20204A64522D088241CE07D
:1017A00040F2B844C4F20204A6451AD045F20844F7
:1017B000C5F60204A64540D045F21C4439E040F28B
:1017C0002844C4F20204A6450BD040F24044C4F2BF
:1017D0000204A64505D040F25844C4F20204A645CE
:1017E00043D1D0F800E03F258468C06D00F01F00B1
:1017F000402C05FA00F0CCF80800DEF8000020F4D8
:101800008020CEF80000CEF8043025D0CEF80810A5
:10181000CEF80C20B0BD45F26C44C5F60204A645D6
:101820000BD045F28044C5F60204A64505D045F22A
:101830009444C5F60204A64517D1D0F800E0C46D63
:10184000806804F01F040125402805FA04F4CCF850
:101850000440CEF8043004D1CEF80820CEF80C10A5
:10186000B0BDCEF80810CEF80C20B0BD00000000CE
:1018700080B552F085F8012001F026FC52F0A4F862
:1018800080BD00000000000080B552F079F84FF4F0
:10189000806001F019FC4FF4006001F015FC4FF47A
:1018A000805001F011FC4FF4005001F00DFC4FF49A
:1018B000804001F009FC4FF4004001F005FC52F0BB
:1018C00083F880BD0000000080B552F059F8022076
:1018D00001F0FAFB52F078F880BD00000000000033
:1018E00080B552F04DF8042001F0EEFB52F06CF898
:1018F00080BD00000000000080B552F041F80820D3
:1019000001F0E2FB52F060F880BD00000000000032
:1019100080B552F035F8102001F0D6FB52F054F8A3
:1019200080BD00000000000080B552F029F82020A2
:1019300001F0CAFB402001F0C7FB802001F0C4FB8E
:101940004FF4807001F0C0FB4FF4007001F0BCFB5D
:1019500052F03AF880BD000070B50A68002A0246CD
:1019600000681CD020F4F84001F1080CD1E90736DA
:1019700018434B6A304301F10C0E1843106052F8C3
:10198000040F47F6FF7320EA03054E6801F11000CB
:1019900001F1140301F1180445EA060113E00E1DDC
:1019A00047F6FF73984301F1140C78CE034301F11D
:1019B000180E1C4301F11C00254301F1200301F125
:1019C000240445EA0601DCF80060DEF800503143EB
:1019D000006829431B680843246840EA030100208B
:1019E0002143116070BD00000246406943F6FE735A
:1019F00020EA0303002043EA4101516170470000DF
:101A000080B591E80C1043EA020E6FF01F0303EB60
:101A10004C13CA6843EA0E03014643EA42220369B3
:101A200000201A430A6180BD2DE9F043002A0246D6
:101A300052F8083F2ED040F6FF724FF20006CFF664
:101A40000F72CFF6FF761A40CB684F6906EB03336F
:101A50000026CFF6F0761A4306EB07573A4382602A
:101A600050F80C2F8E68D1E900375D1E6FF00F0320
:101A700003EB071C6FF0FF030C6903EB062E00233A
:101A800002F07042CFF6FF7303EB044345EA020411
:101A9000024624E001F1080903F07048D1E900345E
:101AA00099E861026FF00F07013B07EB04146FF038
:101AB000FF0707EB00204FF20007CFF6FF7743EA5E
:101AC000080307EB053C00270025CFF6FF77CFF68C
:101AD000F0751C4307EB064E044305EB0953886978
:101AE00044EA0C01471E41EA0E0040EA03010020CF
:101AF00041EA07611160BDE8F083000000000000CA
:101B000080B5032301F01F0EA3EB511C0EEB020363
:101B1000212B50F82C3023FA0EFC0ADB4B094942EA
:101B2000C3F1020301F01F0150F8230088404CEA82
:101B3000000C4FF0FF3090402CEA000080BD000008
:101B400080B5032301F01F0EA3EB511C0EEB020323
:101B5000212B50F82C3023FA0EFC0ADB4B094942AA
:101B6000C3F1020301F01F0150F8230088404CEA42
:101B7000000C4FF0FF3090402CEA000080BD0000C8
:101B80002DE9F04788B044F2E04040F60046C5F643
:101B90000200C5F6020606F5406401AD01684FF487
:101BA000805841F00801016001684FF0000A01F01F
:101BB000080101910199016841F04001016000684C
:101BC000294600F04000019001982046CDF804809D
:101BD0000127CDF808A04FF003090397CDF8109026
:101BE00001F07EFA08202946CDE90107304601F0D0
:101BF00077FAFFF7E1F808210022304601F048FBB0
:101C00000A2056F0E1FA08210122304601F040FB9B
:101C10000A2056F0D9FA20462946CDE9018ACDE9B5
:101C200003A901F05DFA642056F0CEFA0DF11B0411
:101C300048F240100422214600F04AF81AA021463A
:101C40008DF81FA051F030FF1AA1204655F0A0FFDB
:101C500030BB0DF11B0402208DF81B0048F2400040
:101C60000122214648F2400500F0F6F8E81D012265
:101C700080B2214600F02CF89DF81B105F2902D895
:101C80000EA051F011FF0A2056F09EFA00208DF8A8
:101C90001B000DF11B0148F24000012200F0DCF8AE
:101CA000002008B0BDE8F0874354502049443A254D
:101CB000730D0A0039313437000000004465666155
:101CC000756C74205665723A25640D0A0000000098
:101CD00070B515460C460646FFF71EF92820FFF79B
:101CE000EBF8FFF769F9300AFFF7E6F8FFF764F958
:101CF000F0B2FFF7E1F8FFF75FF9FFF70DF92920E0
:101D0000FFF7DAF8FFF758F965B16D42013C00BF03
:101D1000B5F1FF3018BF0120FFF796F8013504F840
:101D2000010FF5D3FFF720F970BD0000000000009F
:101D3000F0B583B08DF80B0000208DF806000DF192
:101D40000B0148F24E10012248F24E17FFF7C0FF78
:101D50009DF80B4020060DD504F00E00052809D88B
:101D600000208DF806000DF1060148F24E10012208
:101D700000F072F804F00F01481E04284FF0000034
:101D80004DD840F25C654FF0FF32C2F2004502FAD6
:101D900001F14FF44042CB43AE8E62EA0101A986C5
:101DA000A989A982298C2985D9078DF8060019D01F
:101DB000B81C0DF1070180B20422FFF789FF95F8E6
:101DC0004400C00708D1BDF80910BDF807002884F9
:101DD000C1F58870A88105E0BDF80700A881BDF8AD
:101DE00009002884A889B0F5F07F4FF001008DF834
:101DF000060003D8298CB1F5887F10D914F00E0F96
:101E000004D0E889A881688C288407E0A88AAE8677
:101E1000A881288D288480208DF80B0001209DF852
:101E20000B1001F08F01802912D140F25C61C2F2E7
:101E30000041B1F93420002A06D44FF0FF338B81E2
:101E40000B844FF4604301E047F6FF731A408A8623
:101E500003B0F0BD0000000070B514460D46064604
:101E6000FFF75AF82820FFF727F8FFF7A5F8300A00
:101E7000FFF722F8FFF7A0F8F0B2FFF71DF8FFF721
:101E80009BF85CB12878FFF717F8FFF795F838B999
:101E9000013C05F10105F5D1002602E0002600E035
:101EA0000646FFF761F8304670BD000000000000F4
:101EB000704700000000000080B551F061FD46F65B
:101EC0002420C2F201400068C16841F00101C160F4
:101ED00010F0AAFA51F078FD80BD0000000000006B
:101EE00070B50446006841F2A1060569C9F2000612
:101EF000690720D4A8072CD4E8063AD4280705D5CA
:101F0000206808214161204600F00AF9E80708BF6F
:101F100070BD20680168890703D5C16821F01E01E2
:101F2000C160C16821F00101C16001214161204609
:101F3000FFF7C2FF70BD04214161E06C40F0020078
:101F4000E06484F83510A06C066500F015FAA80767
:101F5000D2D521680222A06C4A61E16C41F00101F6
:101F6000E164042184F83510066500F005FAE806FE
:101F7000C4D5206810214161204600F051F828079F
:101F8000C4D5BDE700000000002845D010B50446C8
:101F900090F8350010B9204600F046F8022084F889
:101FA0003500D4E9000E4FF20701BEF1100FD4E95D
:101FB00002C30268CFF6E07101EA020101606169C3
:101FC000226941EA0E0141EA030141EA0201A269E4
:101FD00041EA0C0141EA0201D4E9082341EA020185
:101FE000A26A41EA0301E36A41EA0201226B41EA83
:101FF000030141EA0201026841EA0201016001D1E4
:10200000E1698161C16841F01E01C1600020E064A6
:10201000012184F8351010BD012070470000000038
:102020007047000000000000B0B586B044F2E04008
:102030000025C5F60200C5F6020501AC50F8041CE7
:1020400041F0010140F8041C50F8041C01F00101AA
:1020500001910199016841F001010160016801F0FD
:10206000010101910199016841F0020101600168DB
:1020700001F0020101910199016841F01001016034
:10208000016801F0100101910199016841F080019E
:102090000160016801F0800101910199016841F43A
:1020A000807101600068214600F480700190019801
:1020B0004FF4C8600190022002900D20059001208D
:1020C000039003200490284601F00AF84FF4807032
:1020D000019005F58060214601F002F84020019052
:1020E00005F58050214600F0FBFF4FF4B24001900F
:1020F00005F5E050214600F0F3FF3020019005F592
:102100000050214600F0ECFF4E200021002201F09B
:10211000D3FE4E2001F0CCFE06B0B0BD00000000A2
:1021200070470000000000002DE9F04381B0044634
:102130008068802806D14FF480706065012001B06E
:10214000BDE8F08394F83400012803D1022001B0E7
:10215000BDE8F083012084F8340094F835000128AC
:1021600023D1022084F835000020606540F20F473B
:102170002068C4F2020740F26F4840F26F09DDF8B0
:1021800020C0B842C4F20208C4F2020910DC48457B
:102190001FDC3F26C4F20206B04235DC1026C4F232
:1021A0000206B04254D028264DE04FF40060C4E748
:1021B00040451ADC40F23F46C4F20206B0422ADC37
:1021C00040F21046C4F20206B04241D040F2284626
:1021D00039E09F26C4F20206B04225DC7026C4F224
:1021E0000206B04234D088262DE040F29F46C4F269
:1021F0000206B0421FDC40F27046C4F20206B04252
:1022000026D040F288461EE04026C4F20206B042C4
:102210001ED0582617E040F24046C4F20206B042F3
:1022200016D040F258460EE0A026C4F20206B04294
:102230000ED0B82607E040F2B846C4F20206B0421B
:1022400006D040F2A046C4F20206B04240F08880B8
:1022500020683F25066846F4802640F8106B082663
:102260000360D4E9160303F01F0305FA03F3835157
:1022700020466346FFF788F9606EE16E0029A16E83
:1022800041601CBFD4E91C0141602068B8420DDCEC
:1022900048451CDC3F21C4F20201884232DC102197
:1022A000C4F20201884252D028214AE040451ADC9B
:1022B00040F23F41C4F2020188422ADC40F2104160
:1022C000C4F20201884242D040F2284139E09F2105
:1022D000C4F20201884225DC7021C4F20201884266
:1022E00035D088212DE040F29F41C4F2020188429E
:1022F0001FDC40F27041C4F20201884227D040F254
:1023000088411EE04021C4F2020188421FD05821BA
:1023100017E040F24041C4F20201884217D040F277
:1023200058410EE0A021C4F2020188420FD0B8212A
:1023300007E040F2B841C4F20201884207D040F2FF
:10234000A041C4F20201884208BF206800E0206872
:10235000016841F001010160002001B0BDE8F08397
:10236000206848F2200506682E4340F8106B0125CE
:10237000042675E70000000010B5D8B190F83510BC
:10238000022919D140F20F420168C4F202029142BF
:1023900016DC6F23C4F20203994226DC3F23C4F209
:1023A000020399423CDC1023C4F2020399425AD042
:1023B000282354E0012010BD80214165012010BD7B
:1023C00040F26F43C4F2020399421ADC40F23F43E9
:1023D000C4F2020399422ADC40F21043C4F2020321
:1023E000994240D040F2284339E09F23C4F20203CF
:1023F000994225DC7023C4F20203994233D088232A
:102400002DE040F29F43C4F2020399421FDC40F2E8
:102410007043C4F20203994225D040F288431EE083
:102420004023C4F2020399421DD0582317E040F222
:102430004043C4F20203994215D040F258430EE0E3
:10244000A023C4F2020399420DD0B82307E040F262
:10245000B843C4F20203994205D040F2A043C4F24B
:102460000203994276D191424FF0040280F8352060
:1024700010DC6F22C4F20202914220DC3F22C4F23F
:102480000202914236DC1022C4F20202914254D080
:1024900028224EE040F26F42C4F2020291421ADC5E
:1024A00040F23F42C4F2020291422ADC40F2104262
:1024B000C4F20202914240D040F2284239E09F2209
:1024C000C4F20202914225DC7022C4F2020291425F
:1024D00033D088222DE040F29F42C4F202029142A2
:1024E0001FDC40F27042C4F20202914225D040F259
:1024F00088421EE04022C4F2020291421DD05822BE
:1025000017E040F24042C4F20202914215D040F27C
:1025100058420EE0A022C4F2020291420DD0B8222D
:1025200007E040F2B842C4F20202914205D040F204
:10253000A042C4F20202914206D10068016821F073
:1025400001010160002010BD086820F00100086052
:10255000002010BD0268D0E916CE036E146824F086
:102560000E0414600A6822F001020A601968012250
:1025700021F4807119600EF01F0102FA01F1CCF80C
:102580000410D0E919134B60C16E31B10B6823F40C
:1025900080730B60D0E91C134B60002180F834106D
:1025A00080F83520026D0AB190470021084610BD21
:1025B000406D7047000000002DE9F041044600F036
:1025C00077FEECB140F26F4105462068C4F202018B
:1025D000884218DC9F22C4F2020290422EDC57226D
:1025E000C4F20202904254DC1022C4F20202904271
:1025F0007DD02822C4F20202904278D0402271E0BD
:102600000120BDE8F08145F22F42C5F6020290425A
:1026100027DC40F2B742C4F20202904245DC40F2AD
:102620007042C4F20202904261D040F28842C4F289
:10263000020290425BD040F2A04253E040F22742B7
:10264000C4F2020290423FDCA022C4F20202904295
:102650004DD0B822C4F20202904248D040F210425B
:1026600040E045F26B41C5F60201884200F39080DC
:1026700045F23041C5F60201884200F09C8045F2E7
:102680004441C5F60201884200F0958045F2584168
:102690008CE05822C4F20202904228D07022C4F288
:1026A0000202904223D088221CE040F2B842C4F2D9
:1026B000020290421BD045F20841C5F60201884251
:1026C00079D045F21C4171E040F22842C4F2020286
:1026D00090420CD040F24042C4F20202904206D036
:1026E00040F25842C4F20202904240F04C8140F263
:1026F0000F430022C4F2020384F8342098424FF0C2
:10270000020284F8352012DC6F21C4F202018842F3
:1027100020DC3F21C4F20201884200F392801021A4
:10272000C4F20201884200F0B1802821A8E088426A
:102730001EDC40F23F41C4F20201884200F388806F
:1027400040F21041C4F20201884200F09F8040F242
:10275000284195E09F21C4F20201884200F3818064
:102760007021C4F20201884200F09080882187E045
:1027700040F29F41C4F20201884279DC40F270418C
:10278000C4F20201884200F0818040F2884177E083
:1027900045F26C41C5F6020188420CD045F28041F9
:1027A000C5F60201884206D045F29441C5F6020101
:1027B000884240F0E88004F10808002084F83400E2
:1027C000022084F8350098E80601A1F1800720680E
:1027D000B7FA87F740294FEA5717D4E90565D4E9D6
:1027E00007CE03684FEA87376FF3101308BF10272F
:1027F00043EAD2014AF6F8323943CAF2FD7241EA9D
:10280000D8014CF6CD4341EAD601024441EAD50154
:10281000CCF6CC4341EADC01A2FB032341EA1E11C2
:1028200001606FF0030000EA9300E0652046FEF7C8
:1028300023FDE16D012201F01F0102FA01F1416067
:102840007AE04021C4F2020188421FD0582117E0EB
:1028500040F24041C4F20201884217D040F2584190
:102860000EE0A021C4F2020188420FD0B82107E097
:1028700040F2B841C4F20201884207D040F2A041C0
:10288000C4F20201884208BF206800E020680168A5
:1028900021F00101016000BF26683068C0070CD03C
:1028A00000F006FD401B0628F6D3202060650320BB
:1028B00084F835000120BDE8F08148F23F0104F1C1
:1028C00008053068CFF6106108402ECD0843A16995
:1028D0001043E2691843236A0543606A29430428C8
:1028E00041EA020141EA030103D1D4E90B23114378
:1028F000194331600428716921F0070141EA00059C
:102900000FD1D4E90A1045EA010550B12046FEF77F
:1029100013FE30B140206065012084F83500BDE829
:10292000F08120467561FEF7A7FCE16D3F2201F0C2
:102930001F0102FA01F181602046FEF72DFDA0681B
:10294000802801D10020606004F160036068C7B294
:1029500001380ECB07280F60536009D82046FEF7D8
:1029600093FD04F16C02002307CA03604A6003E090
:1029700000206067C4E91B0000206065012184F825
:102980003510BDE8F081402090E700000000000015
:102990002DE9F041A8B3044690F83400012802D193
:1029A0000220BDE8F081012084F8340094F835005D
:1029B000012820D1022084F835000020606540F213
:1029C0000F472068C4F2020740F26F486F26B842F2
:1029D000C4F20208C4F2020616DCB04225DC3F2530
:1029E000C4F20205A8423BDC1025C4F20205A8424D
:1029F0005BD0282553E0002084F834004FF40060B9
:102A000060650120BDE8F08140451ADC40F23F4599
:102A1000C4F20205A8422ADC40F21045C4F20205C5
:102A2000A84242D040F2284539E09F25C4F2020571
:102A3000A84225DC7025C4F20205A84235D08825BD
:102A40002DE040F29F45C4F20205A8421FDC40F28F
:102A50007045C4F20205A84227D040F288451EE026
:102A60004025C4F20205A8421FD0582517E040F2C5
:102A70004045C4F20205A84217D040F258450EE086
:102A8000A025C4F20205A8420FD0B82507E040F205
:102A9000B845C4F20205A84207D040F2A045C4F2EE
:102AA0000205A84208BF206800E02068056825F0FC
:102AB000010505602046FEF7F7FD2068B8420DDCF1
:102AC000B0421CDC3F21C4F20201884232DC1021FA
:102AD000C4F20201884252D028214AE040451ADC63
:102AE00040F23F41C4F2020188422ADC40F2104128
:102AF000C4F20201884242D040F2284139E09F21CD
:102B0000C4F20201884225DC7021C4F2020188422D
:102B100035D088212DE040F29F41C4F20201884265
:102B20001FDC40F27041C4F20201884227D040F21B
:102B300088411EE04021C4F2020188421FD0582182
:102B400017E040F24041C4F20201884217D040F23F
:102B500058410EE0A021C4F2020188420FD0B821F2
:102B600007E040F2B841C4F20201884207D040F2C7
:102B7000A041C4F20201884208BF206800E020683A
:102B8000016841F0010101600020BDE8F081000012
:102B900070B580B3044690F83400012801D10220BA
:102BA00070BD012084F8340094F8350001281CD150
:102BB000022084F835000020606540F20F4620684E
:102BC000C4F20206B04218DC6F25C4F20205A84226
:102BD00028DC3F25C4F20205A8423EDC1025C4F2E1
:102BE0000205A8425ED0282556E0002084F8340073
:102BF0004FF400606065012070BD40F26F45C4F283
:102C00000205A8421ADC40F23F45C4F20205A84280
:102C10002ADC40F21045C4F20205A84242D040F23C
:102C2000284539E09F25C4F20205A84225DC70251D
:102C3000C4F20205A84235D088252DE040F29F4518
:102C4000C4F20205A8421FDC40F27045C4F202053E
:102C5000A84227D040F288451EE04025C4F2020574
:102C6000A8421FD0582517E040F24045C4F20205A3
:102C7000A84217D040F258450EE0A025C4F2020544
:102C8000A8420FD0B82507E040F2B845C4F20205CB
:102C9000A84207D040F2A045C4F20205A84208BFEE
:102CA000206800E02068056825F0010505602046E1
:102CB000FEF7FAFC2068B04210DC6F21C4F202017A
:102CC000884220DC3F21C4F20201884236DC102118
:102CD000C4F20201884255D028214EE040F26F41F3
:102CE000C4F2020188421ADC40F23F41C4F2020100
:102CF00088422ADC40F21041C4F20201884241D0ED
:102D000040F2284139E09F21C4F20201884225DCCB
:102D10007021C4F20201884234D088212DE040F2B3
:102D20009F41C4F2020188421FDC40F27041C4F2AC
:102D30000201884226D040F288411EE04021C4F2C0
:102D4000020188421ED0582117E040F24041C4F2EF
:102D50000201884216D040F258410EE0A021C4F290
:102D6000020188420ED0B82107E040F2B841C4F217
:102D70000201884206D040F2A041C4F2020188421A
:102D800040F0898021680B25226C0B6865F34403B1
:102D90000B601AB10A6842F008020A60216E0A68E4
:102DA000D20303D50A6842F480720A60E16E19B159
:102DB0000A6842F480720A60B04210DC6F21C4F2EB
:102DC0000201884220DC3F21C4F20201884236DC45
:102DD0001021C4F20201884256D028214EE040F270
:102DE0006F41C4F2020188421ADC40F23F41C4F252
:102DF000020188422ADC40F21041C4F202018842FA
:102E000042D040F2284139E09F21C4F202018842B9
:102E100025DC7021C4F20201884235D088212DE0E2
:102E200040F29F41C4F2020188421FDC40F270412F
:102E3000C4F20201884227D040F288411EE04021BE
:102E4000C4F2020188421FD0582117E040F24041ED
:102E5000C4F20201884217D040F258410EE0A0218E
:102E6000C4F2020188420FD0B82107E040F2B84115
:102E7000C4F20201884207D040F2A041C4F202012C
:102E8000884208BF206800E02068016841F0010125
:102E90000160002070BD21680525226C0B68002AA6
:102EA00065F343030B603FF479AF0A6842F0040214
:102EB00073E70000000000002DE9F04387B041F601
:102EC000C8100026C2F200400696059601780296C8
:102ED000CDE9036600295DD10121017044F2D4409F
:102EE00040F60004C5F60200C5F6020402AD4FF03C
:102EF000020801684FF0030941F480510160006845
:102F0000294600F48050019001984FF6837002909A
:102F100004F50060CDE90386CDF814900C270697E0
:102F200000F0DEF848F237102946CDE9020804F532
:102F300080500697CDE9046900F0D2F84CF2037096
:102F40002946CDE9020804F580600697CDE90469B9
:102F500000F0C6F84FF63F002946CDE9020804F517
:102F600040600697CDE9046900F0BAF8204629468A
:102F7000CDE90278CDE90469069700F0B1F8202088
:102F80002946CDE9020804F5A0500697CDE9046969
:102F900000F0A6F807B0BDE8F083000000000000D4
:102FA0002DE9F04F82B0002900F0818000F1264326
:102FB00042F2004703F1FF73C5F602074FEAB3225E
:102FC00001920A22B84208BF0922002400270125E5
:102FD000009229E06FF00303032203EA5903066815
:102FE00002FA04FE034446EA0E06066007F01C06D9
:102FF0000F2202FA06FC1E6A26EA0C061E6283688D
:1030000023EA0E038360436823EA08034360C3682E
:1030100023EA0E02C26031FA05F205F1010507F15B
:10302000040704F1020442D0A5F10109012202FAC9
:1030300009F818EA010AEED0019ADDF800C0092A61
:103040004FEA990E38BF944640F2084207F00C064A
:10305000C5F600020F2303FA06FB52F82E200CFAE5
:1030600006F602EA0B02B242B4D140F208434FF036
:10307000B046C5F6000353F82E2022EA0B0243F8AF
:103080002E200423C5F60003DA6F22EA0A02DA676B
:10309000D3F8802022EA0A02C3F88020326822EAAC
:1030A0000A0232601A6822EA0A021A6092E702B043
:1030B000BDE8F08F0000000080B50EF029FB4BF05A
:1030C00087FA80BD0000000080B58821C5F60001A8
:1030D0000A68024208BF80BD0860FFF7EDFF80BDAF
:1030E0002DE9F04F83B00F68002F00F0C68000F18B
:1030F000264242F2004602F1FF72C5F602064FEA8E
:10310000B22201920A2240F2040CB042C5F6000C31
:1031100008BF09220124002500264FF00108009273
:103120000AE000BF0F68043637FA08F208F1010818
:1031300005F1020500F0A180A8F1010A04FA0AFBDA
:1031400017EA0B09EED04F6847F01007122F12D183
:103150006FF0030206F01C0402EA5A070F2207442C
:1031600002FA04F3D7F820E00A692EEA0303A2402A
:1031700001241A433A6203230268AB404F686FEAA6
:10318000030E9A4307F00303122F03FA05F342EAF2
:103190000302026014D804FA07F212F0061F0FD0DF
:1031A0008268CB6802EA0E02AB401A438260C7F322
:1031B0000013426822EA0B0203FA0AF31A43426040
:1031C000C2688B68AB4002EA0E02FF0042EA0302CB
:1031D000C260A7D544F2F443C5F602031A6842F070
:1031E00002021A601A6806F00C0302F00202029250
:1031F000029A2AF0030240F2084A019C009FC5F699
:10320000000A092C38BF27460F2452F80AE09C40D8
:103210002EEA040407FA03F3234342F80A30DCF8E9
:103220007C204B6842EA0907DC0358BF22EA090701
:103230009C034FF0B04ECCF87C70DCF8802042EA62
:10324000090758BF22EA0907DC024FF00104CCF855
:103250008070DEF8002042EA090758BF22EA090719
:103260009B02CEF80070DCF8002042EA090758BF44
:1032700022EA0907CCF8007054E703B0BDE8F08FEC
:103280000069084018BF01207047000000000000DE
:10329000002A08BF09048161704700000000000097
:1032A00041F20000C5F600400068000C70470000C5
:1032B00080B555F095F94FF47A71484344F6D351EF
:1032C000C1F26201A0FB0101880980BD000000007D
:1032D00040F2BA6047F61871C2F20040C2F20141F2
:1032E00000780A6810440860704700000000000081
:1032F00080B5032000F0F0FD01F08AFD44F2184192
:1033000048F68013C5F60201C9F2070340F2A80C83
:103310000A68C2F2004CC2F303229A5C02F01F0258
:10332000D040CCF80000096840F2AC0201F00F0177
:10333000C2F20042595C01F01F01C8401060002039
:1033400000F00AF800281CBF012080BD00F09CFDA1
:10335000002080BD00000000002070470000000039
:103360008161826270470000C161C26270470000E3
:1033700080B541F6D013C2F20043196811444FF4EE
:1033800080321960FFF7F0FF80BD000000000000F0
:1033900049F628300121C2F2004001607047000068
:1033A000B0B54FF0010518B1002918BF002B01D1AD
:1033B0002846B0BD044690F84C00012801D10220F7
:1033C000B0BD012084F84C0094F84D00012821D1B3
:1033D000042084F84D00606D002520F00F0060652A
:1033E000606D40F00E0060650498E0622046A262C5
:1033F000C4E906132562656203F026FE204603F049
:103400005BFD0028D4D0062084F84D00012084F80C
:103410004C50B0BD0225002084F84C002846B0BDB9
:10342000704700000000000070470000000000002E
:1034300080B541F6B02C41F6B423C2F2004CC2F282
:103440000043DCF800201B680A44CCF8002041F659
:10345000B82C9342C2F2004C0BD9DCF800E09A1A67
:103460007144B2F5803FCCF8001028BF4FF4803291
:1034700000E00022DCF80010FFF772FF80BD0000C2
:1034800010B50C460121002818BF002C01D10846B8
:1034900010BD01684A6802F00302022A01D110221D
:1034A0000AE04A68920706D04A6802F00302032A3B
:1034B0002FD1302200E00022226042F020024B682F
:1034C000302A4FEA1343A360CB684FEA1342E2600D
:1034D0001BD10A694B698969C2F3031E41EA0302E1
:1034E00002F0F00CBEF1010F08BFBCF1000F0ED0CE
:1034F00003F0F00201F0F0017244114305D0BEF177
:10350000030F08BFBCF1000F05D0002104E0022129
:1035100002E0012010BD0121616003F04DFD00219A
:103520002061084610BD000080B590F84D100339A9
:1035300001290FD8416D01F00C01082902D103F0D7
:103540006FFE80BD416D01F00C010C2918BF80BDDC
:1035500003F0C2FB80BD00007047000000000000C7
:10356000B0B5D0B3044690F84D0028B9002084F8D7
:103570004C00204600F044F8022084F84D002068FA
:103580000025016B41F001010163016821F0010197
:103590000160016B21F07E010163016B41F4005178
:1035A0000163016B41F480410163816B41F0600173
:1035B000816348F6D01048F69011C9F20700C9F2AD
:1035C0000701C4E90F012046C4E9115503F0A4FF27
:1035D00028B1012525652846B0BD0120B0BD206871
:1035E000416841F48071416025620120656284F880
:1035F0004D00284625656565B0BD0000000000004F
:103600002DE9F04782B044F2D4410446C5F60201E8
:1036100000260A6842F020020A600A6802F02002CE
:103620000192019A0A6842F001020A6009680022C8
:1036300001F00101009100987920072100F03CFC85
:10364000792000F035FC41F6D81540F2C018C2F2DE
:103650000045C5F2002808F1400002212860112031
:10366000C5E9010680204FF0007AC5E90306C5E9E7
:1036700007604FF40030C5F824A0C5E90C062846C1
:103680002027C5E90516AF624FF4A049C5F82C9074
:10369000AE6325632C6400F023FA284600F020FB7B
:1036A00041F644251320C2F20045C5E90106C020B9
:1036B000C5F80080C5E9030608206E61C5E9060764
:1036C0004FF42030AE63C5E90C062846C5E9086A08
:1036D000C5E90A7900F004FA284600F001FB7A20D7
:1036E0000821002265632C6400F0E6FB7A2000F0DC
:1036F000DFFB02B0BDE8F087426D02F00C020C2A3D
:103700000DD1CA0703D0426D42F480524265890749
:1037100020D5416D41F40051416500207047426D54
:1037200002F00C02082A15D1CA0703D1002289072A
:1037300007D40BE0426D42F48052426506228907AD
:1037400004D5416D283241F4005141650068016B98
:1037500091430163002070472DE9F041044690F841
:10376000A00001284FF0020008BFBDE8F08134231B
:103770004FF0010884F8A08084F8A10002FB034008
:10378000D1E900CED1E90267D1E90435C0E91235AB
:10379000C0E91067C0E90ECED1E906CED1E90865CF
:1037A000D1E90A37C0E91837C0E91665C0E914CE77
:1037B0000B6B8366204604F027F82068C0F824804D
:1037C000002084F8A18084F8A000BDE8F08100000A
:1037D0007047000000000000B0B504460068816B2F
:1037E000426B02EA0105690726D4A8073AD4E80724
:1037F0000ED02068416B21F0010141630121C163BA
:1038000084F8A110002084F8A000204600F0B4F84D
:10381000280758BFB0BD2068416B21F00801416303
:103820000821C163012084F8A100002084F8A000D1
:10383000204600F031F9B0BD416B21F00401416335
:103840000421C163D4F8A40040F00100C4F8A4002E
:1038500084F8A110002084F8A0002046FFF7B8FFEC
:10386000A807C4D52068416B21F002014163022101
:10387000C163D4F8A40040F00200C4F8A4000420FE
:1038800084F8A100002084F8A0002046FFF7A0FFE4
:10389000E807BDD0ADE70000002869D010B50446A8
:1038A00090F8A10028B9002084F8A000204600F07C
:1038B0006FF8022084F8A100D4E9000CD4E90223B7
:1038C000816921F07041816142EA0C01226919434A
:1038D00011438269114381614FF600028168CFF282
:1038E000000211408160D4E9051343EA0141836875
:1038F00019438160C1681140C160D4E9071343EAEC
:103900000141C3681943C160016911400161D4E9F3
:10391000091343EA014103691943016141691140F7
:103920004161D4E90B1242EA01414269114341610C
:1039300094F8351094F83620C36A03F07F43C362CD
:10394000120494F8343042EA0121C26A1944114346
:10395000C162416B41F006014163816941F001019F
:1039600081610020C4F8A400012184F8A11010BDD9
:10397000012070470000000080B549F62850C2F2CF
:1039800000405C3053F0E8F880BD0000000000000B
:103990002DE9F04387B041F200010068C5F2000153
:1039A000002688420696CDE904660396029602D068
:1039B00007B0BDE8F08344F2E04042F20004C5F6EF
:1039C0000200C5F6020402AD4FF0020841684FF054
:1039D000030941F00801416041680E2701F0080128
:1039E00001910199016841F480610160016801F46D
:1039F000806101910199016841F4007101600168E1
:103A000001F4007101910199016841F48071016034
:103A10000068294600F4807001900198FF20029010
:103A200004F50060CDE90386CDF814900697FFF702
:103A300057FB4FF6FF702946CDE9020804F5806078
:103A40000697CDE90469FFF74BFB4FF47040294618
:103A5000CDE9020820460697CDE90469FFF740FB4F
:103A600007B0BDE8F083000090F8A020012A4FF0D5
:103A700002020DD080F8A1200268536B43F00803C6
:103A8000536351620022012180F8A11080F8A02028
:103A9000104670470000000049F62C30C2F200408A
:103AA0000068416B41F00101416370470000000074
:103AB00068B190F83D1002290BD1042180F83D1027
:103AC0000068C16821F00101C16000207047012039
:103AD00070478021816601207047000000000000CF
:103AE00030B190F83D10022904D14FF48071816605
:103AF0000120704702681F23D16821F00101D160C5
:103B00000021D160116151619161D16111625162F5
:103B10009162116351635360C0E917114166816678
:103B200080F83D1080F83C10084670470000000007
:103B300070B582B004460020019040F2A8012068D0
:103B4000C2F2004100F5F8624FF0A4430968C2F3E5
:103B500084121B6823FA02F2D2076AD048F2B51227
:103B60000368C1F64E32A1FB0216D90720D0C16806
:103B700089071DD5C16821F00201C16081680A066C
:103B80004FF0020258BF0122A36E8D0542EA0302E4
:103B9000A2667DD4CA0500F182804A0500F18680C4
:103BA000090503D5A16E41F02001A1660121416004
:103BB0000168C90644BFC1685FEA81613BD42068DF
:103BC0000168090744BFC1685FEAC1613BD420684E
:103BD0000168490744BFC1685FEA01713BD42068AE
:103BE0000168890744BFC1685FEA41713BD4A06E98
:103BF000F8B1042084F83D002068B10AC26822F0C0
:103C00000102C260019A013201928A4202D8C2685E
:103C1000D207F7D1002184F83C10C068C0074FF0EC
:103C2000030008BF012084F83D00616D09B1204602
:103C3000884702B070BD10214160A16C0029BED040
:103C400020468847BBE708214160E16C0029BED0CF
:103C500020468847BBE704214160216D0029BED082
:103C600020468847BBE7C16821F03E01C16094F857
:103C70003D10042922D1002084F83C00012084F862
:103C80003D00A16D0029D4D02046884702B070BD08
:103C9000A26E42F00402A266CA057FF57EAFA26E54
:103CA00042F00802A2664A057FF57AAFA26E42F0A2
:103CB0001002A26609053FF575AF77E70221416062
:103CC000002084F83C00012084F83D00616C00294C
:103CD0003FF48DAF2046884789E7000000000000D0
:103CE000B0B50446FFF7E4FACCB10546002084F8ED
:103CF0003C00022084F83D002068C16821F00101E9
:103D0000C16000BF2068C068C0070AD0FFF7D0FAC2
:103D1000401B0528F6D90120032240210AE001209A
:103D2000B0BD204603F048FE00210122002061665C
:103D3000C4E91711A16684F83D20B0BD0000000061
:103D400010B582B0002846D0044690F83C00012807
:103D500047D0012084F83C0094F83D0001283DD173
:103D6000022084F83D000020A066D4F800E0DDF8D1
:103D700010C0DEF80C0020F00100CEF80C00204648
:103D8000CDF800C003F068FE2068E16C0029C2682D
:103D900042F00601C16003D0C16841F01001C1606A
:103DA000216D19B1C16841F00801C160A16C19B160
:103DB000C16841F02001C160C16841F00101C160EA
:103DC0006168B1F1804F03D1C16841F48031C160B5
:103DD000002002B010BD012002B010BD002084F808
:103DE0003C00022002B010BDB0B502784EF69C5CDB
:103DF000CEF2000C43784CF8043CF2B14368CCF8A6
:103E00000030037BC17A90F80AE0457B447A42EAAD
:103E10000372837B42EA0161C27B41EACE41007AB0
:103E200041EA854141EA434141EA024141EA042134
:103E300041EA4000CCF80400B0BD0020CCF80000FE
:103E4000CCF80400B0BD00004EF62450CEF20000C5
:103E5000BFF35F8F016821F48031016000210167A9
:103E600070470000000000004EF6245140F00100B1
:103E7000CEF200010867086840F480300860BFF3A4
:103E80004F8FBFF36F8F704781B044F2F440C5F697
:103E90000200016841F002010160006800F00200C8
:103EA0000090009801B0704780B506F0BDFB80BD62
:103EB00080B506F0DDFB80BD70B514460D460646A4
:103EC00006F0E6FB2946224604F0A6F801463046F5
:103ED00006F0EEFB70BD000080B506F0FDFB80BD76
:103EE000B0B544F60C05C5F602052968490704D4A7
:103EF000296801F00701814216D1296821F00701E4
:103F000008432860FFF7D4F9044600BF55F8080CB1
:103F1000800407D4FFF7CCF9001BB0F57A7FF5D900
:103F20000320B0BD0020B0BD0120B0BD00000000E6
:103F300044F60C00C5F60200016841F08071016092
:103F4000704700000000000044F60000C5F60200C3
:103F5000016841F4807101607047000000000000BA
:103F600080B500F055FF44F2184148F68012C5F6BE
:103F70000201C9F207020968C1F30321515C01F093
:103F80001F01C84040F2A801C2F20041086080BD94
:103F900080B500F0FDFE44F2204148F68012C5F6DF
:103FA0000201C9F207020968C1F30211515C01F074
:103FB0001F01C84080BD000080B544F2384EC5F6F0
:103FC000020E5EF8103C5EF8101CC1F3053C5EF872
:103FD0000C1CBCF1000FDEF8042014D0C2F3CC029C
:103FE00001F01001514300EE101A03F00301022901
:103FF000B8EE400A0CD071B95EF8381C89060DD4B1
:104000009FED341A18E000218160C0E9001180BDE5
:104010009FED2F1A10E09FED2D1A0DE05EF8381C71
:1040200049F20002C0F2D032C1F3C10122FA01F11B
:1040300001EE101AB8EE411ADEF800109FED263A94
:104040006FF35F2102EE101ADEF80010C1F3462173
:10405000B8EE422A00EE032A00EE10CAB7EE003A8C
:10406000B8EE400A81EE000A32EE031A02EE101A90
:10407000B8EE422A20EE010A32EE031A80EE011A4F
:10408000BCEEC11A80ED001ADEF80010C1F3064143
:1040900001EE101AB8EE411A31EE031A80EE011A41
:1040A000BCEEC11A80ED011ADEF80010C1F3066102
:1040B00001EE101AB8EE411A31EE031A80EE010A31
:1040C000BCEEC00A10EE101A816080BD0024744A54
:1040D00020BCBE4B0024744C0000003900000000DE
:1040E00080B544F2404EC5F6020E5EF8183C5EF80C
:1040F000181CC1F3055C5EF8141CBCF1000FDEF85F
:10410000042014D0C2F3CC0201F48071514300EEBC
:10411000101A03F003010229B8EE400A0CD071B95D
:104120005EF8401C89060DD49FED341A18E000217A
:104130008160C0E9001180BD9FED2F1A10E09FED56
:104140002D1A0DE05EF8401C49F20002C0F2D03298
:10415000C1F3C10122FA01F101EE101AB8EE411AC1
:10416000DEF800109FED263A6FF35F2102EE101A81
:10417000DEF80010C1F34621B8EE422A00EE032A11
:1041800000EE10CAB7EE003AB8EE400A81EE000A1F
:1041900032EE031A02EE101AB8EE422A20EE010A9D
:1041A00032EE031A80EE011ABCEEC11A80ED001A3D
:1041B000DEF80010C1F3064101EE101AB8EE411A04
:1041C00031EE031A80EE011ABCEEC11A80ED011A1D
:1041D000DEF80010C1F3066101EE101AB8EE411AC4
:1041E00031EE031A80EE010ABCEEC00A10EE101A7E
:1041F000816080BD0024744A20BCBE4B0024744CF6
:1042000000000039000000002DE9F04381B00446B1
:10421000C07844F22C490007C5F6020901D40026F3
:104220002DE0606E4FEA305003280DD80026DFE8FD
:1042300000F0020E1613D9F80000002640F40030FA
:10424000C9F800004EB912E0012636B90FE0201D72
:10425000022104F01DFD06464EB1B04611E004F106
:104260002400022104F0A4FD0646002EF5D1D9F861
:104270002400616E20F440100843C9F824004FF078
:1042800000086078C0072FD0606D042807D8DFE8E9
:1042900000F00A131B030300F6B1B04624E0012628
:1042A000002EFAD118E0D9F8000040F40030C9F827
:1042B0000000002EF1D10FE0201D002104F0E8FCE9
:1042C0000646002EE9D107E004F12400002104F0A5
:1042D0006FFD0646002EE0D1D9F82400616D20F074
:1042E00007000843C9F824006078800731D5A06D25
:1042F0004FEAB010042807D8DFE800F00A131B03C8
:104300000300F6B1B04624E00126002EFAD118E0F1
:10431000D9F8000040F40030C9F80000002EF1D1B7
:104320000FE0201D002104F0B3FC0646002EE9D169
:1043300007E004F12400002104F03AFD0646002EB7
:10434000E0D1D9F82400A16D20F4E0700843C9F849
:1043500024006078400733D5D4F8A4004FEA7050A9
:10436000042807D8DFE800F00A131B030300F6B1A6
:10437000B04625E00126002EFAD118E0D9F8000059
:1043800040F40030C9F80000002EF1D10FE0201DEC
:10439000002104F07DFC0646002EE9D107E004F17F
:1043A0002400002104F004FD0646002EE0D1D9F8D7
:1043B0002C00D4F8A41020F460000843C9F82C00A5
:1043C0006078000733D5D4F8A8004FEA306004289D
:1043D00007D8DFE800F00A131B030300F6B1B0466C
:1043E00025E00126002EFAD118E0D9F8000040F4AB
:1043F0000030C9F80000002EF1D10FE0201D00218F
:1044000004F046FC0646002EE9D107E004F1240042
:10441000002104F0CDFC0646002EE0D1D9F82C0096
:10442000D4F8A81020F0E0600843C9F82C00E07828
:10443000800727D5A06C4FEA3010032806D8DFE8A4
:1044400000F002091202AEB1B0461BE00126002EB8
:10445000FAD10FE0D9F8000040F40030C9F80000AC
:10446000002EF1D106E0201D022104F011FC0646C9
:10447000002EE9D1D9F82000A16C20F030000843CB
:10448000C9F820006078C00631D5E06D4FEA3030C1
:10449000042807D8DFE800F00A131B030300F6B175
:1044A000B04624E00126002EFAD118E0D9F8000029
:1044B00040F40030C9F80000002EF1D10FE0201DBB
:1044C000002104F0E5FB0646002EE9D107E004F1E7
:1044D0002400002104F06CFC0646002EE0D1D9F83F
:1044E0002400E16D20F4E0400843C9F8240060781E
:1044F000800625D5206E4FEA3040052807D8DFE832
:1045000000F0030A0F03030396B1B04618E001263A
:10451000002EFAD10CE0201D012104F0B9FB04E0CB
:1045200004F12400012104F043FC0646002EECD1E6
:10453000D9F82400216E20F4E0200843C9F82400B3
:104540006078400627D5D4F8AC004FEA30700528D3
:1045500007D8DFE800F0030A0F03030396B1B04663
:1045600019E00126002EFAD10CE0201D012104F0F3
:104570008FFB04E004F12400012104F019FC06463D
:10458000002EECD1D9F82C00D4F8AC1020F0E0408B
:104590000843C9F82C00607800061FD5E06ED0B142
:1045A000B0F1005F12D0B0F1805F24D1D9F80000E3
:1045B00040F40030C9F800007EB9D9F82400E16E5B
:1045C00020F040500843C9F8240007E0201D0121D5
:1045D00004F05EFB0646002EEFD0B046E078C00740
:1045E00029D0606C03280AD8DFE800F0020D16021B
:1045F000CEB1B0461FE00126002EEED1DDE7012648
:10460000002EF6D10FE0D9F8000040F40030C9F8D0
:104610000000002EEDD106E0201D022104F038FB41
:104620000646002EE5D1D9F82000616C20F0030089
:104630000843C9F82000A078400643D5D9F8D40330
:1046400040F48070C9F8D403FEF732FE074600BF7D
:10465000D9F8D403C00505D4FEF72AFEC01B65288F
:10466000F6D303266EBBD9F84410D4F8B00041400D
:1046700011F4407F11D0D9F84410D9F8442042F405
:104680008032C9F84420D9F8442021F4407122F442
:104690008032C9F84420C9F84410B0F5807F0FD1AA
:1046A000FEF706FE074641F2893500BFD9F84400FF
:1046B000800705D4FEF7FCFDC01BA842F6D30326F5
:1046C00086B1B0462078C00741D0A06F4FEAF00015
:1046D000052823D8DFE800F003262B03030376B375
:1046E000B04634E04FF6CF73D4F8B00059F81C2C24
:1046F000C0F2FF0300F4407122F47C5203EA10136D
:10470000B1F5407F08BF1A436FF31F3049F81C2CE6
:10471000D9F844100843C9F84400D3E70126002E15
:10472000DED10CE0201D012104F0B2FA04E004F116
:104730002400012104F03CFB0646002ED0D1D9F81C
:104740002800A16F20F038000843C9F8280020781D
:10475000800723D5606F052807D8DFE800F0030A3B
:104760000F03030396B1B04618E00126002EFAD1DC
:104770000CE0201D012104F08BFA04E004F1240078
:10478000012104F015FB0646002EECD1D9F82800D3
:10479000616F20F007000843C9F82800207840071F
:1047A00025D5D4F89000052807D8DFE800F0030AE3
:1047B0000F03030396B1B04619E00126002EFAD18B
:1047C0000CE0201D012104F063FA04E004F1240050
:1047D000012104F0EDFA0646002EECD1D9F82C00A8
:1047E000D4F8901020F007000843C9F82C00207876
:1047F000800627D5D4F88C004FEA3070052807D8FA
:10480000DFE800F0030A0F03030396B1B04619E096
:104810000126002EFAD10CE0201D002104F038FA08
:1048200004E004F12400022104F0C2FA0646002E3E
:10483000ECD1D9F82800D4F88C1020F0E0400843DF
:10484000C9F828002078400627D5D4F898004FEA08
:10485000B020052807D8DFE800F0030A0F030303A0
:1048600096B1B04619E00126002EFAD10CE0201DC9
:10487000002104F00DFA04E004F12400022104F008
:1048800097FA0646002EECD1D9F82C00D4F89810EF
:1048900020F4E0500843C9F82C002078000627D502
:1048A000D4F89C004FEA7030052807D8DFE800F004
:1048B000030A0F03030396B1B04619E00126002E48
:1048C000FAD10CE0201D002104F0E2F904E004F12B
:1048D0002400022104F06CFA0646002EECD1D9F82F
:1048E0002C00D4F89C1020F460400843C9F82C0038
:1048F0002078000715D5D4F88000B0F5805F09D185
:1049000004F12400022104F053FA002818BF4FF0EC
:10491000010806E0D9F8281021F440510843C9F8ED
:1049200028002078C00615D5D4F89400B0F5807F13
:1049300009D104F12400022104F03AFA002818BF3A
:104940004FF0010806E0D9F82C1021F4407108431B
:10495000C9F82C00A078000721D5D4F8A000B0F544
:10496000003F19D0B0F5803F10D0C0BB201D002102
:1049700004F08EF906468EB9D9F82C00D4F8A010B0
:1049800020F440300843C9F82C0008E004F124006A
:10499000022104F00DFA0646002EEDD0B046A078B4
:1049A000400729D5D4F88400B0F5401F21D0B0F5D8
:1049B000001F18D0B0F5801F40F0B480D9F8000077
:1049C00040F40030C9F80000AEB9D9F82800D4F896
:1049D000841020F440100843C9F828000CE0012698
:1049E000002EDBD1C8E704F12400012104F0E0F936
:1049F0000646002EE9D0B046A078C0071FD0E06C74
:104A0000B0F5803F10D0B0B9D9F8000040F40030C4
:104A1000C9F8000096B9D9F82000E16C20F4803084
:104A20000843C9F820000AE0201D022104F030F9F3
:104A300006461EB9EFE70126002EECD0B046E0781E
:104A4000800608D504F12400022104F0B1F9002801
:104A500018BF4FF001082068810313D4C10229D484
:104A6000C10031D481023AD4410042D4B0F1FF3FB9
:104A70004FDDB8F1000F18BF4FF00108404601B0FC
:104A8000BDE8F083E16F6FF0010202EB3122022AF0
:104A90000AD34FEA31223AB1012A48D1D9F800208D
:104AA00042F40032C9F80020002E43D04FF0010834
:104AB000C102D5D5D9F82410226F21F0004111434D
:104AC000C9F82410C100CDD559F81C1CD4F8B42065
:104AD00021F48041114349F81C1C8102C4D5D9F846
:104AE0002410A26E21F080711143C9F824104100F6
:104AF000BCD559F81C1C21F4004149F81C1CD4F801
:104B0000B81059F81C2C114349F81C1CB0F1FF3F98
:104B1000AFDCD9F82000216D20F040500843C9F8DF
:104B20002000A6E70126002E7FF465AF4DE70126A1
:104B3000002EBBD1D9F8282022F440721143C9F8C5
:104B40002810C1027FF58CAFB4E700000000000020
:104B50002DE9F04381B0002800F0E78042F2000820
:104B60000446C5F200288946D8F8000000F00F007E
:104B700088420ED2D8F8000020F00F0040EA090069
:104B8000C8F80000D8F8000000F00F00484540F0D9
:104B9000CC80206844F218474107C5F602070AD5C1
:104BA00021693A6802F07002914204D93A6822F011
:104BB00070021143396001070AD561697A6802F011
:104BC0007002914204D97A6822F070021143796030
:104BD000C1060AD5A1697A6802F4E062914204D95B
:104BE0007A6822F4E0621143796081060AD5E169AE
:104BF000BA6802F07002914204D9BA6822F07002D9
:104C00001143B96081070AD5E1683A6802F00F02E2
:104C1000914204D93A6822F00F0211433960C0076B
:104C200071D1206881070AD5E1683A6802F00F0265
:104C3000914204D23A6822F00F0211433960D8F849
:104C4000001001F00F0149450DD9D8F8001021F0EE
:104C50000F0141EA0901C8F80010D8F8001001F06E
:104C60000F01494561D141070AD521693A6802F02F
:104C70007002914204D23A6822F070021143396006
:104C800001070AD561697A6802F07002914204D284
:104C90007A6822F0700211437960C1060AD5A169D1
:104CA0007A6802F4E062914204D27A6822F4E06207
:104CB0001143796080060AD5E069B96801F0700196
:104CC000884204D2B96821F070010843B86000F04E
:104CD0009FF8396848F68012C9F20702C1F3032130
:104CE000515C40F2BC62C2F2004201F01F01C840B8
:104CF00040F2A801C2F2004108601068FEF72CFBE8
:104D000001B0BDE8F083386820F47061D4E9010295
:104D1000012841EA020139600BD003282CD0022877
:104D20002FD157F8181C890307D4012001B0BDE822
:104D3000F08357F8181CC905F7D557F8081C21F05F
:104D40000701084347F8080CFEF7B2FA064641F29D
:104D5000883500BF57F8080C616800F03800B0EBE8
:104D6000C10F3FF45EAFFEF7A3FA801BA842F1D952
:104D7000032001B0BDE8F08357F8181C8901D4D591
:104D8000DBE757F8181C4907CFD5D6E7000000002D
:104D900080B5FFF7E5F844F2184148F68012C5F6F1
:104DA0000201C9F20702096801F00F01515C01F02C
:104DB0001F01C84040F2AC01C2F20041086080BD52
:104DC00080B5FFF7E5FF44F21C4148F68012C5F6B6
:104DD0000201C9F207020968C1F30211515C01F036
:104DE0001F01C84080BD000080B5FFF7D1FF44F22D
:104DF0001C4148F68012C5F60201C9F20702096893
:104E0000C1F30221515C01F01F01C84080BD0000C8
:104E100044F20041C5F602010869C0F3C20003284C
:104E20000FD002282AD070BB0868800649F2000023
:104E3000C0F2D03058BF70470968C1F3C101C84003
:104E400070478A6A886AC0F3051CC86ABCF1000F03
:104E50004B6B1DD0C3F3CC0300F00100584302F0AC
:104E60000302022A00EE100AB8EE400A12D0A2B9DC
:104E70000868800614D49FED261A1EE047F640000D
:104E8000C0F27D10704740F60010C0F23D00704740
:104E9000002070479FED1D1A0FE09FED1B1A0CE0DC
:104EA000086849F20002C0F2D032C0F3C10022FA11
:104EB00000F001EE100AB8EE411A086B9FED153AAA
:104EC0006FF35F2002EE100A086BC0F34620B8EEC5
:104ED000422A013000EE032A00EE10CAB7EE003A73
:104EE000B8EE400A81EE000A32EE031A20EE010A03
:104EF00001EE100AB8EE411A80EE010ABCEEC00ABB
:104F000010EE100A704700BF0024744A20BCBE4B4C
:104F10000024744C000000392DE9F04381B0F8B151
:104F20008046007844F20049C007C5F602095AD00D
:104F3000D9F8100000F03801D9F82800102905D060
:104F400018290FD100F0030002280BD1D9F8000076
:104F5000800344D5D8F80400002840D101272FE071
:104F6000012792E2D8F804402CB1B4F5A02F0DD05F
:104F7000B4F5803F10D0D9F8000020F48030C9F893
:104F80000000D9F8000020F4802009E0D9F80000E2
:104F900040F48020C9F80000D9F8000040F48030C7
:104FA000C9F80000FEF784F90546A4B1D9F800005D
:104FB000800314D4FEF77CF9401B6428F6D903273C
:104FC0000020002800F061820DE000BFFEF770F9BC
:104FD000401B6428F3D8D9F800008003F6D40120E0
:104FE000002800F0528298F8000080077DD5D9F89B
:104FF000100010F03801D9F828001DD0182908BF7A
:105000005FEA807018D0D8F80C00D9F8001000289A
:1050100046D021F019010843C9F80000FEF748F90D
:10502000054600BFD9F8000040072AD4FEF740F932
:10503000401B0228F6D91EE0D9F80000400704D52D
:10504000D8F80C00002800F07681D9F80000D8F8D4
:105050000C1020F019000843C9F80000FEF728F9E9
:10506000054600BFD9F8000040070AD4FEF720F932
:10507000401B0228F6D903270024002C00F00582EB
:1050800033E0FEF70DF941F203018842D9F804003C
:105090001FD8D8F8101020F47C3040EA01301EE010
:1050A00021F00100C9F80000FEF702F905460126CB
:1050B000D9F8000010F0040086EA900412D0FEF740
:1050C000F7F8401B0328F3D30327002C00F0DD8101
:1050D0000BE0D8F8101020F0FE4040EA0160C9F85B
:1050E00004000124002C00F0D08198F80000C006D4
:1050F00067D5D9F8100000F03801D9F82800082940
:1051000005D018291DD100F00300012819D1D9F8C4
:105110000000C00503D5D8F81C0080284CD1FEF74C
:10512000BFF841F20301884223D8D9F80400D8F827
:10513000201020F0F840012440EA8160C9F8040002
:105140003CE0D8F81C000028D9F800001DD040F041
:105150008000C9F80000FEF7ABF80546D9F800005A
:10516000C005DCD4FEF7A4F8401B0228F6D90327BB
:1051700023E0D9F80C00D8F8201020F07C5001244E
:1051800040EA0160C9F80C0018E020F08000C9F87E
:105190000000FEF78DF80546012600BFD9F8000093
:1051A00010F4807086EA102408D0FEF781F8401BC6
:1051B0000328F3D3032701E001270024002C00F08B
:1051C000648198F80000000715D498F80000800664
:1051D00029D498F8000040073DD4D8F82440002C8A
:1051E00000F08580D9F8100000F03800182840F051
:1051F0008080012749E1D8F814000028D9F874000C
:105200003DD040F00100C9F87400FEF751F80546A2
:10521000D9F874008007D8D4FEF74AF8401B02285A
:10522000F6D9032731E1D8F818000028D9F8000092
:105230004AD040F48050C9F80000FEF739F805461E
:10524000D9F800008004C4D4FEF732F8401B0228CD
:10525000F6D9032719E1D9F8000440F48070C9F8A1
:105260000004FEF725F80546D9F80004C00519D456
:10527000FEF71EF8401B6428F6D9032705E120F04D
:105280000100C9F87400FEF713F80546032700BFB4
:10529000D9F87400800798D5FEF70AF8401B022859
:1052A000F6D9F2E0D8F808401CB1052C45D0012C05
:1052B00049D0D9F8700020F00100C9F87000D9F881
:1052C000700020F0040042E020F48050C9F8000093
:1052D000FDF7EEFF05460327D9F8000080047FF5AF
:1052E00078AFFDF7E5FF401B0228F5D9CDE0002798
:1052F000CBE0D9F8000020F08070C9F80000FDF77D
:10530000D7FF022C05464FF0030709D1D9F800005A
:1053100080013ED5FDF7CCFF401B0228F6D9B4E052
:10532000D9F80000800140F1AD80FDF7C1FF401BBE
:105330000328F5D3A9E001279EE6D9F8700040F0D4
:105340000400C9F87000D9F8700040F00100C9F8F5
:105350007000FDF7ADFF002C054641F288344FF098
:10536000030711D0D9F8700080073FF536AFFDF77D
:105370009FFF401BA042F5D987E000BFFDF798FFD3
:10538000401BA04200F28180D9F870008007F5D45C
:1053900023E708F12807D9F8280040F2F3318843C1
:1053A0008ECF0843591E40EA02104FF47E426FF33D
:1053B0005F21C9F8280002EB47204FF4FE0280B2BB
:1053C000D8F83C300844D8F8381002EB01414FF0CF
:1053D000FE4201F4FE0102EB0362084402F0FE41CA
:1053E0000844C9F83000D9F82C004FF6F87120F0C5
:1053F0000100C9F82C00D9F83400D8F848208843B7
:1054000040EAC200C9F83400D9F82C00D8F840109E
:1054100020F00C000843C9F82C00D9F82C00D8F86B
:10542000441020F002000843C9F82C00D9F82C00E1
:1054300040F48030C9F82C00D9F82C0040F400303A
:10544000C9F82C00D9F82C0040F48020C9F82C00B1
:10545000D9F82C0040F00100C9F82C00D9F8000060
:1054600040F08070C9F80000FDF722FF04460327D2
:10547000D9F80000800107D4FDF71AFF001B0228AD
:10548000F6D902E0002700E00027F8B201B0BDE83D
:10549000F08300000000000070B500680C46416811
:1054A0004FEA114001F03F05C1F30426E070C1F35B
:1054B00042316670A57021700AB1002070BDC0B283
:1054C00003F006FDE070304603F002FD60702846F0
:1054D00003F0FEFCA070002070BD00000000000082
:1054E00070B500680C46816A616001696FF3DF3155
:1054F000A160016801F07F05A570C1F3054020702F
:10550000C1F306266670C1F38051E1700AB1002034
:1055100070BD03F0DDFC2070304603F0D9FC6070F4
:10552000284603F0D5FCA070002070BD00000000EC
:10553000D0B110B5044690F8210028B9002084F8B5
:105540002000204600F040F8022084F82100206866
:10555000CA21416253214162204603F0E1FC2168E7
:1055600020B10120042227E0012070474FF6BF72CE
:105570008868CFF68F7210408860D4E9010CD4E9B6
:1055800003321043A26910438A68104388600B619C
:10559000086940EA0C400861C86820F08000C860D3
:1055A000C86C20F00300C864E06962691043CA6CEB
:1055B0001043C86400200122FF234B6284F821209D
:1055C00010BD000000000000704700000000000057
:1055D000F0B581B0044690F8200001284FF0020099
:1055E0004FD00D464FF0010184F8201084F82100BF
:1055F00032B16878E978AE78000240EA014715E0F8
:105600006878C10603D500F0EF000A306870E878CA
:1056100003F06AFC69780646084603F065FC01025F
:10562000A87841EA064703F05FFC064620682D781B
:10563000CA21416253214162204603F071FC10B13E
:105640000120042115E047EA0600216820F0C0008F
:1056500040EA45304860C86820F08000C86088682B
:10566000800604D4204600F07BF80028E8D1002012
:1056700001212268FF23536284F82110002184F85D
:10568000201001B0F0BD00002DE9F041044690F873
:10569000200001284FF0020008BFBDE8F0810D4650
:1056A000012184F8201084F821002068806800F02F
:1056B00040004AB108B90020E87028786978AE78CF
:1056C000090241EA004811E008B90020E870287892
:1056D00003F00AFC69780646084603F005FC01025F
:1056E000A87841EA064803F0FFFB06462068EF78F9
:1056F000CA21416253214162204603F011FC10B1DE
:105700000120042122E048EA0600216847F67F7262
:1057100040EA8750C0F27F0210400860886820F499
:1057200080208860D5E9030210438A6810438860AE
:10573000C86820F08000C8608868800604D42046CD
:1057400000F00EF80028DBD1002001212268FF23A1
:10575000536284F82110002184F82010BDE8F08104
:10576000B0B504460068C16821F0A001C160FDF732
:105770009FFD05462068C068800607D4FDF798FDA8
:10578000401BB0F57A7FF5D90320B0BD0020B0BD35
:1057900020B3B0B5044690F82C000D4628B900207F
:1057A00084F82D00204600F01BF8022084F82C001D
:1057B0002068211DFCF7D0F8D4E900022946FCF747
:1057C00033F944F20000C5F20020016841F00041C5
:1057D0000160012084F82C000020B0BD012070473A
:1057E00080B5FDF769FB80BDB0B5054690F82C008B
:1057F000022801D10220B0BD95F82C000124012817
:1058000008D1022085F82C002868FCF7EDF885F80F
:105810002C4000242046B0BDB0B5044690F82C00C2
:105820000D46052804D0022808BFB0BD01280BD1C1
:10583000022084F82C0020682946FCF7E1F828684B
:10584000022803D1052002E00120B0BD012084F828
:105850002C000020B0BD00002DE9F04186B042F2DE
:1058600000410068C4F6020140F200480025884269
:10587000C5F602080595CDE90355029501953DD081
:1058800047F20001C5F2002188427AD144F2E0409B
:105890000225C5F60200002603270C2450F80C1C34
:1058A00041F4803140F80C1C50F80C1C01F480319C
:1058B00000910099016841F004010160016801F064
:1058C000040100910099016841F00801016000683D
:1058D00001A900F00800009000984FF4F8500190E2
:1058E00008F580600295039604970594FDF7F8FB90
:1058F00001A904200594E1C1312535E044F2E040DE
:105900000224C5F60200032650F8041C41F400717D
:1059100040F8041C50F8041C01F400710091009937
:10592000016841F002010160016801F0020100918B
:105930000099016841F008010160006801A900F0C8
:105940000800009000984CF2180001900920059082
:105950004046CDE902450496FDF7C2FB01A9C020EF
:1059600071C17C250B20059008F5006001A9FDF7A9
:10597000B7FB002100222846FEF79EFA2846FEF7D4
:1059800097FA06B0BDE8F081704700000000000003
:1059900090F88100704700002DE9F041002800F0E8
:1059A0009880044643F60006C4F2000643F200075E
:1059B000256843F60048B542C4F20107C4F2000866
:1059C0004FF00000A06203D0454518BFBD427CD116
:1059D000204603F08DFDB54218BFBD4269D11028A5
:1059E00077D894F8810028B9002084F880002046F8
:1059F00000F072F8022084F881002068A269016832
:105A0000B2F1806F21F00101016009D16168B1F547
:105A1000800F05D1A16B19B9016841F48051016073
:105A2000E169A36A1943E36B0B43D4E90365D4E945
:105A3000011733438360636B666A42EA0302A36B18
:105A400042EA060242EA0302636942EA0502266A62
:105A500042EA0302E36C42EA0602A66C42EA010251
:105A600042EA0302A36D42EA070242EA060242EA60
:105A70000302C26049B98268012363F3CC228260C9
:105A80008268022363F34A228260026D490222F097
:105A90000101016505D5C168626D21F00041114326
:105AA000C1600020C4F88400012184F88110BDE8A1
:105AB000F081454518BF08280BD8B54218BFBD4234
:105AC0008DD045453FF48BAF8BE7E0680F287FF61C
:105AD0007FAF0120BDE8F0812DE9F04387B043F2AC
