:0200000490006A
:1000000028840124E1030090E90300908D0300900F
:100010008D030090EF030090F103009000000000BA
:10002000000000000000000000000000F30300904A
:10003000F503009000000000DB020090B91501906C
:10004000FB030090FB030090FB030090FB03009078
:10005000FB030090FB03009049270090A12700902C
:10006000B9270090D1270090E9270090FB0300906A
:10007000FB030090FB030090FB030090FB03009048
:10008000FB030090FB030090FB030090FB03009038
:10009000FB030090FB030090FB03009001280090FD
:1000A000FB030090FB030090FB030090FB03009018
:1000B000FB030090FB030090FB030090FB03009008
:1000C000FB030090FB030090FB030090FB030090F8
:1000D000FB030090FB030090FB030090FB030090E8
:1000E00061270090FB03009000000000FB030090DC
:1000F000FB030090FB030090FB030090FB030090C8
:10010000FB030090E90E0190FB030090FB030090BD
:10011000191C0190FB030090FB030090FB0300906F
:10012000FB030090691B0090FB030090FB03009011
:10013000FB030090FB030090FB030090FB03009087
:1001400000000000000000000000000000000000AF
:10015000FB030090FB030090FB030090FB03009067
:10016000FB030090FB030090FB030090FB03009057
:10017000FB030090FB030090A9160090FB03009086
:10018000FB030090FB030090FB030090FB03009037
:10019000FB030090FB030090FB030090FB03009027
:1001A000B1E80090FB030090FB030090FB0300907C
:1001B000FB030090FB030090FB030090FB03009007
:1001C000FB030090FB030090FB030090FB030090F7
:1001D000FB030090FB030090FB030090FB030090E7
:1001E000FB030090FB030090FB030090FB030090D7
:1001F000FB030090FB030090FB030090FB030090C7
:10020000FB030090FB030090FB030090FB030090B6
:10021000FB030090FB030090FB030090FB030090A6
:10022000FB030090B1D70090A1EB0090000000000C
:10023000090F0190FB03009000000000FB030090F9
:10024000FB030090FB030090FB030090FB03009076
:10025000FB030090FB030090FB030090FB03009066
:10026000FB030090FB030090FB030090FB03009056
:10027000FB030090FB030090FB03009000000000D4
:10028000FB030090FB030090FB03009000000000C4
:1002900000000000FB030090DFF80CD000F070FCC1
:1002A00000480047F90C009028840124EFF31080E7
:1002B00072B6704780F310887047424A1368012B6A
:1002C00004D04FF0010313603F4A10603F4A1160B1
:1002D0003F484FF0805101607047EFF3108272B6D3
:1002E0003848016851B34FF0000101603648016899
:1002F00091B1EFF309811EF0100F08BF21ED108BB3
:1003000021E9F00F4FF000041EF0100F08BF012488
:1003100041F8044D006801602C490968096808C962
:10032000B1E8F00F002B18BFB1EC108B81F30988F6
:100330004EF0100E002B18BF2EF0100E82F3108816
:100340004EF0040E704721490860EFF3148222F04A
:10035000040282F314881C494FF000000860194918
:100360004FF0010008601B481B49D0F8002041EA0B
:100370000201016016484FF0805101601748006883
:10038000006880F3088861B662B670471EF0040FFB
:100390000CBFEFF30880EFF3098020E9F00F40F87D
:1003A00004ED40F804ED1EF0040F0CBF80F3088844
:1003B00080F3098800B583F03FFF5DF804EB4EF051
:1003C000040E70478C6F0124C06B0124CC6B012498
:1003D00004ED00E020ED00E00000FFFF08ED00E08C
:1003E0000648804706480047FEE7FEE7FEE7FEE7CF
:1003F000FEE7FEE7FEE7FEE7FEE7FEE7D115019028
:10040000990200902DE9F05F0546002092469B4638
:1004100088460646814640241BE02846414647461A
:10042000224600F07AF953465A46C01A914110D339
:1004300011461846224600F061F92D1A67EB0108B3
:100440004F4622460120002100F058F917EB000921
:100450004E41201EA4F10104DFDC484631462A4605
:100460004346BDE8F09FA0F14101192900D8203092
:10047000704700000649074A0868504343F23902B2
:100480001044086040087047014908607047000048
:10049000980000246D4EC64110B5431A934209D20C
:1004A0008318881803E010F8011D03F8011D521E7F
:1004B000F9D210BD40EA01039B0703D009E008C947
:1004C000121F08C0042AFAD203E011F8013B00F819
:1004D000013B521EF9D210BDD2B201E000F8012B4F
:1004E000491EFBD270470022F6E710B513460A46B4
:1004F00004461946FFF7F0FF204610BD421E12F8D1
:10050000013F002BFBD111F8013B02F8013B002B0E
:10051000F9D1704730B505462A460B4612F8010B53
:1005200013F8014B08B1A042F8D01CB1002802D04A
:100530006D1CF1E7284630BD10B5044604E00B7889
:1005400000F8013B03B1491C521EF8D2204610BDF1
:10055000CAB2401E10F8011F8A4202D00029F9D108
:1005600000207047421C10F8011B0029FBD1801AA3
:10057000704710B5002200E0521C835C8C5CA342E3
:1005800001D1002BF8D1D8B2E1B2401A10BD30B57C
:1005900004460020034600E05B1C934203D2E05C6B
:1005A000CD5C401BF8D030BD034611F8012B00F89C
:1005B000012B002AF9D11846704730B505460020B6
:1005C000034600E05B1C934205D2EC5CC85C201A39
:1005D00001D1002CF6D130BD0022CBB20178994276
:1005E00000D10246401C0029F8D11046704730B5B2
:1005F00003461D783DB10A4612F8014B1CB1AC42CE
:10060000FAD15B1CF5E7181A30BD30B5054600205D
:1006100008E00A4602E0A34207D0521C1378002BE0
:10062000F9D1401C2C5C002CF3D130BD2DE9F047F2
:1006300091460F4680460446002614F8015B2DB112
:1006400000F07CF80068405DC007F6D12B2D02D089
:100650002D2D18D0641E4A463946204600F072F807
:1006600027B13968A14201D1C7F8008071054FF068
:1006700002040BD54042002803DDAAF0E9F804602B
:10068000A007BDE8F08746F48066E4E70028F8DAC2
:10069000AAF0DEF804606FF00040F2E770B506469D
:1006A000AAF0D6F8046805460A2200213046FFF772
:1006B000BDFF2C6070BD70B50646AAF0C9F804688D
:1006C00005460A2200213046FFF7B0FF2C6070BDBE
:1006D00030B50B46014600202022012409E021FA12
:1006E00002F59D4205D303FA02F5491B04FA02F50F
:1006F0002844151EA2F10102F1DC30BD202A04DBE2
:10070000203A00FA02F1002070479140C2F1200324
:1007100020FA03F3194390407047202A04DB203A63
:1007200021FA02F00021704721FA02F3D040C2F111
:100730002002914008431946704700000048704766
:10074000A43F0B902DE9F05F824600780027154604
:100750008B460AF10104B946302801D09DB113E05F
:1007600014F8010B0127782803D0582801D045B18F
:100770000AE00DB1102D07D10027102514F8010B48
:1007800002E0082500E00A250026B0460EE005FB41
:10079000080005FB06F1012701EB10461FFA80F85F
:1007A000B6F5803F00D3B94614F8010B294600F096
:1007B0000BFA0028EBDABBF1000F05D00FB1641E75
:1007C00000E05446CBF80040B9F1000F06D0AAF083
:1007D0003FF802210160C81EBDE8F09F48EA0640CC
:1007E000FAE72DE9FE4F804681EA0300C00F0C4670
:1007F000009021F0004123F00045B8EB0200A94130
:1008000005D24046214690461C460B46024623F040
:100810000040104347D0270DC7F30A00C3F30A5125
:100820000290401A019040286BDAC3F3130040F4A1
:10083000801B0098924620B10023D2EB030A63EBA1
:100840000B0B01985946C0F140025046FFF756FF86
:1008500006460D4650465946019A00F0A3F910EBA2
:1008600008006141002487EA115284EAE7731A43C1
:1008700040D0009A62B3019A012A4FEA075215DC70
:10088000001B61EB02014FF0004202EA0752CDE982
:100890000042001C41F5801132462B4600F0B1F9B0
:1008A00003B0BDE8F08F40462146F9E7001B61EB3D
:1008B0000201001C41F5801300185B412018A2F5CD
:1008C000001747EB030140EAD570B6196D4111E0FE
:1008D0006D084FEA360645EAC0754FEA0752001B1D
:1008E00061EB0201001C41F5801149084FEA30001C
:1008F0000019514132462B4603B0BDE8F04F00F0DD
:1009000071B90098012240000023D0EB020263EB92
:10091000E073009821464FEAE074B8EB000061EB09
:100920000401E9E783F000435BE781F0004158E709
:100930002DE9FE4F81EA030404F0004421F0004158
:1009400000944FF0000B23F0004350EA01045ED006
:1009500052EA03045BD0C3F30A54C1F30A552C4492
:10096000A4F2F3340194A0FB0254C1F3130141F447
:100970008011C3F3130343F4801301FB024400FB13
:10098000034E840A970A44EA815447EA8357A4FB3A
:10099000076802958D0A05FB07854FEA932C04FB37
:1009A0000C542705029D4FEA065847EA1637B5EB67
:1009B00008056EEB070C870E920E47EA811742EA94
:1009C0008312A7FB0201B6EB0B0164EB00042B0DB5
:1009D00043EA0C335E1844EB1C50DA465146E7FB01
:1009E0000201C5F313044FEA0B3343EA14534FEAF1
:1009F0000432019C43EA0603A4F10C040294009C17
:100A0000CDE900B400F0FDF803B0BDE8F08F0020A0
:100A10000146F9E72DE9F04D81EA030404F0004BAB
:100A200021F0004514464FF0000A23F0004150EA3F
:100A3000050220D054EA01021DD0C5F30A57024630
:100A4000C5F31303C1F31300C1F30A5640F4801534
:100A500043F48013A7EB0608101BD64608F2FD38B6
:100A600073EB050002D308F1010801E092185B4125
:100A7000B8F1000F03DA00200146BDE8F08D002038
:100A80004FF48011064684460EE0171B73EB0507F2
:100A900005D3121B63EB050306434CEA010C49081E
:100AA0004FEA300092185B4150EA0107EDD152EA5B
:100AB000030012D082EA040083EA0501084305D04E
:100AC000101BAB4106D20122002306E000224FF0AA
:100AD000004302E06FF0010253101AEB06004CEBEA
:100AE000085110EB0A0041EB0B01BDE8F04D00F09E
:100AF00079B870B521F0004303430CD0C1F30A5517
:100B00000024D5EB040564EB0403D617AD1AB341FA
:100B100002DB0020014670BD201841EB025170BD80
:100B2000C1F30A52C1F3130140F2FF3341F48011C3
:100B30009A4202DA00200146704740F233439A425B
:100B4000A2F2334202DC5242FFF7E7BDFFF7D6BD07
:100B500030B5041E71F1000404DB4FF00044404244
:100B600064EB0101141E73F1000405DB1C464FF019
:100B70000043524263EB0403994208BF904230BDE8
:100B8000064C074D06E0E06840F0010394E80700DA
:100B900098471034AC42F6D3FFF782FBDC970F90F6
:100BA000FC970F90202A06DBCB17203A41FA02F07F
:100BB00043EAE07306E041FA02F3D040C2F12002BA
:100BC00091400843194670473A2800D2303820F047
:100BD0002002412A01D3A2F13700884201D34FF00D
:100BE000FF30704710B5141E73F1000408DA401C82
:100BF00041F1000192185B411A4301D120F001003C
:100C000010BD2DE9F04D92469B4611B1B1FA81F22B
:100C100002E0B0FA80F220329046FFF76FFD044602
:100C20000F4640EA0A0041EA0B0153465A46084380
:100C300013D0114653EA010019D0C8F140025046C2
:100C4000FFF76BFD05460E46504659464246FFF7F4
:100C500055FD084305D0012004E020463946BDE893
:100C6000F08D0020054346EAE0762C4337430A988E
:100C70006305E40AA0EB08000022FD0A44EA475499
:100C80000A3002D500200146E9E701051019694143
:100C9000DDE9084500196941BDE8F04DA2E770B5EE
:100CA0008C1810F8015B15F0070301D110F8013B17
:100CB0002A1106D110F8012B03E010F8016B01F89E
:100CC000016B5B1EF9D12B0705D40023521E0DD4F6
:100CD00001F8013BFAE710F8013BCB1A921C03E044
:100CE00013F8015B01F8015B521EF9D5A142D8D37C
:100CF000002070BD0000000080B590F089FC00204D
:100D000080BD00000000000080B584B0039003980F
:100D1000006842F20001C4F20201884209D0FFE7F4
:100D20000398006842F20011C4F20201884209D11E
:100D3000FFE742F20830C4F20200006810F4403FBE
:100D400009D129E046F20830C5F60200006810F427
:100D5000403F21D0FFE708F03BFE02900398406837
:100D60000190B0F5803F0AD0FFE70198B0F5003F51
:100D700005D0FFE70198B0F5403F07D00AE003989F
:100D8000C1880298B0FBF1F0029004E0029880085C
:100D9000029000E0FFE75EE04FF4002007F084F9E6
:100DA0000290039840680090B0F5802F32D0FFE7A2
:100DB0000098B0F5002F2DD0FFE70098B0F5402F38
:100DC00028D0FFE70098B0F5801F23D0FFE70098F8
:100DD000B0F5A01F1ED0FFE70098B0F5C01F19D0D6
:100DE000FFE70098B0F5E01F1FD0FFE70098B0F5CF
:100DF000001F1ED0FFE70098B0F5101F1DD0FFE7C1
:100E00000098B0F5201F1CD0FFE70098B0F5301F08
:100E10001BD01EE0039841686FF0010000EA5141C9
:100E20000298B0FBF1F0029014E0029800090290E1
:100E300010E00298400902900CE0029880090290AC
:100E400008E00298C009029004E00298000A0290AB
:100E500000E0FFE7FFE705F033FA41F203018842C3
:100E600017D8FFE7029842F60151C0F231118842CB
:100E700007D3FFE703980168886840F480708860B2
:100E800006E003980168886820F480708860FFE7B6
:100E900053E0029840080290029845F61061C0F2B3
:100EA0005F01884209D8FFE703980068806820F452
:100EB00040700399096888603EE0029845F6116128
:100EC000C0F25F01884212D3FFE702984BF620413F
:100ED000C0F2BE0188420AD8FFE703980068806824
:100EE000012161F3092003990968886023E00298D1
:100EF0004BF62141C0F2BE01884212D3FFE70298AF
:100F000047F64001C0F27D1188420AD8FFE70398F6
:100F100000688068022161F30920039909688860EC
:100F200008E003980068806840F4407003990968FD
:100F30008860FFE7FFE7FFE7FFE704B080BD000040
:100F400080B584B00290029800680DF09DFB00907F
:100F5000029800680DF0A0FB002844D0FFE700983D
:100F6000002840D1FFE702980068806800F00D007B
:100F7000012809D1FFE7029800680DF019FB0298DB
:100F80000168032008600DE00299486D40F01000F0
:100F900048650299886D40F00100886501208DF850
:100FA0000F0024E005F094F90190FFE70298006833
:100FB0008068C007B0B1FFE705F08AF90199401ACF
:100FC00003280ED3FFE70299486D40F010004865F2
:100FD0000299886D40F00100886501208DF80F00AE
:100FE00005E0E3E7FFE700208DF80F00FFE79DF83D
:100FF0000F0004B080BD000080B586B00490049856
:1010000000680DF049FB002840F08B80FFE7049852
:10101000006880683F21C8F2000108420ED0FFE757
:101020000499486D40F0100048650499886D40F0BF
:101030000100886501208DF8170076E004980068AB
:101040000DF0D2FA05F044F90390049801680120EC
:1010500042F20002C4F20202914201900CD0FFE77A
:10106000049800684DF60071CBF6FD710844B0FAA3
:1010700080F040090190FFE70198C10746F2003077
:10108000C5F6020000291CBF42F20030C4F2020083
:101090000DF0DAFA02900498006842F20011C4F2EE
:1010A0000201884206D1FFE742F20000C4F20200CA
:1010B000009003E0049800680090FFE7009804990E
:1010C0000968884203D0FFE7029848BBFFE7FFE7C3
:1010D000049800680068C00708BBFFE70498006830
:1010E0000DF0DAFA28B9FFE7049800680DF07CFAF1
:1010F000FFE705F0EDF80399401A03280ED3FFE748
:101100000499486D40F0100048650499886D40F0DE
:101110000100886501208DF8170006E0D8E7FFE799
:10112000FFE700208DF81700FFE79DF8170006B0D5
:1011300080BD00000000000083B0029001910020FB
:10114000ADF80200FFE701980138019000282ED485
:10115000FFE7BDF8020002994A1C0292097880EA72
:101160000120ADF8020008208DF80100FFE7BDF86E
:1011700002000004002809D5FFE7BDF8021041F283
:10118000210080EA4100ADF8020005E0BDF8020050
:101190004000ADF80200FFE7FFE79DF801000138CD
:1011A0008DF8010000060028E1D1FFE7CBE7BDF88C
:1011B000020003B07047000080B5022083F028FED3
:1011C00080BD00000000000080B584B040F2004007
:1011D000C5F602000190402102910022039205F021
:1011E00057F80198039A016821F4404101600168B1
:1011F00041F480410160802105F04AF8FFF7DCFFEF
:1012000001980299012205F043F8FFF7D5FF0198F4
:101210000299039A05F03CF804B080BD000000007C
:1012200080B586B0FFE744F2E040C5F602000168F1
:1012300041F002010160006800F002000090009897
:10124000FFE7C0200190012002900390032004904A
:1012500040F20040C5F6020001A904F01DFE06B0F0
:1012600080BD00000000000080B584B040F2004066
:10127000C5F602000190402102910022039205F080
:1012800007F80198016821F440410160016841F4C8
:101290008041016080210122009204F0F9FFFFF7F4
:1012A0008BFF009A0198029904F0F2FFFFF784FF88
:1012B00001980299039A04F0EBFF04B080BD00008E
:1012C00080B584B08DF80F00002002908DF80D00DD
:1012D00040F20041C5F60201086820F44040086071
:1012E000086808601E2083F093FD02988DF80E00B8
:1012F000FFE79DF80E0007282BDCFFE740F20040D7
:10130000C5F60200019040210091002204F0C0FFC8
:10131000FFF752FF00990198012204F0B9FF0198EC
:101320009DF80D1049008DF80D10802104F098FFF4
:1013300030B1FFE79DF80D0001308DF80D00FFE79B
:10134000FFF73AFFFFE79DF80E0001308DF80E0021
:10135000CFE79DF80F0018B9FFE7FFF785FF02E020
:10136000FFF732FFFFE79DF80D0004B080BD0000DD
:1013700080B584B08DF80F0040F20040C5F6020041
:10138000016821F440410160016841F4804101603D
:1013900040210022029204F07BFF02988DF80E009B
:1013A000FFE79DF80E0007283ADCFFE79DF80F10D5
:1013B0000020B0EBD11F09D0FFE740F20040C5F696
:1013C00002008021012204F063FF08E040F20040A7
:1013D000C5F602008021002204F05AFFFFE79DF8C5
:1013E0000F0040008DF80F00FFF7E6FE40F20040CE
:1013F000C5F60200009040210191012204F048FF4F
:10140000FFF7DAFE00980199002204F041FFFFF790
:10141000D3FEFFE79DF80E0001308DF80E00C0E707
:1014200004B080BD0000000080B586B040F20040EE
:10143000C5F602000390016821F440410160016893
:1014400041F480410160802102910122019204F067
:101450001FFF019A03984021049104F019FF1E20F8
:1014600083F0D6FC029903980022059204F010FF45
:10147000FFF7A2FE03980499059A04F009FF06B04D
:1014800080BD00000000000080B586B040F2004042
:10149000C5F602000390016821F440410160016833
:1014A00041F480410160402102910022019204F048
:1014B000EFFE019A03988021049104F0E9FE1E20BA
:1014C00083F0A6FC029903980122059204F0E0FE45
:1014D000FFF772FE03980499059A04F0D9FE06B04E
:1014E00080BD00000000000080B584B000208DF8B1
:1014F0000E0040F20040C5F602000190016821F4A0
:10150000404101600168016080210122029204F0E3
:10151000BFFE0198029A402104F0BAFEFFF74CFE8C
:10152000FFE740F20040C5F60200802104F098FE7B
:1015300098B1FFE79DF80E0001308DF80E009DF880
:101540000E00FB2806DBFFE7FFF79EFF01208DF86A
:101550000F000FE0FFF730FEE3E740F20040C5F672
:10156000020040210022009204F092FE00988DF8C3
:101570000F00FFE79DF80F0004B080BD00000000E1
:1015800080B586B005908DF81310039205200421D4
:1015900000F056F801200021019113F0DDFD0A2032
:1015A00080210FF0C5FF01988DF80B00FFE79DF833
:1015B0000B009DF8131088420EDAFFE705989DF89E
:1015C0000B10415C092013F0C7FDFFE79DF80B00ED
:1015D00001308DF80B00EAE70120032113F0BCFD78
:1015E000FF208DF80B00FFE705200FF015FB8DF8AD
:1015F0000A009DF80B0001388DF80B00FFE79DF8FD
:101600000B100020009049B1FFE79DF80A0000F0A0
:101610000401012080EA91000090FFE70098C007D4
:101620000028E1D1FFE722200FF0F6FA03990870B5
:1016300021200FF0F1FA0399487006B080BD000038
:1016400080B582B08DF807008DF806109DF8070070
:101650000FF0E2FA8DF805009DF807009DF80510DF
:101660009DF80620914313F077FD02B080BD000085
:1016700080B582B001900198806B00900098806CDA
:10168000406D02280AD0FFE70099012081F835005B
:101690000099C86C40F04000C864FFE7009802F071
:1016A00063FD02B080BD000080B583F001FE46F608
:1016B0001830C2F2014002F06FFD83F031FE80BDB0
:1016C0004CF67020C2F2004000681021C4F2020102
:1016D000884200F0B280FFE74CF67020C2F2004072
:1016E00000682821C4F20201884200F0A680FFE7CA
:1016F0004CF67020C2F2004000684021C4F20201A2
:10170000884200F09A80FFE74CF67020C2F2004059
:1017100000685821C4F20201884200F08E80FFE781
:101720004CF67020C2F2004000687021C4F2020141
:10173000884200F08280FFE74CF67020C2F2004041
:1017400000688821C4F20201884276D0FFE74CF697
:101750007020C2F200400068A021C4F20201884259
:101760006BD0FFE74CF67020C2F200400068B82151
:10177000C4F20201884260D0FFE74CF67020C2F24A
:101780000040006840F21041C4F20201884254D087
:10179000FFE74CF67020C2F20040006840F228419A
:1017A000C4F20201884248D0FFE74CF67020C2F232
:1017B0000040006840F24041C4F2020188423CD03F
:1017C000FFE74CF67020C2F20040006840F258413A
:1017D000C4F20201884230D0FFE74CF67020C2F21A
:1017E0000040006840F27041C4F20201884224D0F7
:1017F000FFE74CF67020C2F20040006840F28841DA
:10180000C4F20201884218D0FFE74CF67020C2F201
:101810000040006840F2A041C4F2020188420CD0AE
:10182000FFE74CF67020C2F20040006840F2B84179
:10183000C4F2020188420AD1FFE74CF67020C2F2DE
:1018400000400168086840F00100086009E04CF6BB
:101850007020C2F200400168086840F00100086092
:10186000FFE70021C4F60201086840F001000860AB
:1018700070470000000000000021C4F60201086863
:1018800020F001000860FFE70020C4F602000068B5
:10189000C00708B1FFE7F7E74CF67020C2F200403E
:1018A00000681021C4F20201884200F0B280FFE714
:1018B0004CF67020C2F2004000682821C4F20201F8
:1018C000884200F0A680FFE74CF67020C2F200408C
:1018D00000684021C4F20201884200F09A80FFE7CC
:1018E0004CF67020C2F2004000685821C4F2020198
:1018F000884200F08E80FFE74CF67020C2F2004074
:1019000000687021C4F20201884200F08280FFE783
:101910004CF67020C2F2004000688821C4F2020137
:10192000884276D0FFE74CF67020C2F20040006893
:10193000A021C4F2020188426BD0FFE74CF6702070
:10194000C2F200400068B821C4F20201884260D0AF
:10195000FFE74CF67020C2F20040006840F21041F0
:10196000C4F20201884254D0FFE74CF67020C2F264
:101970000040006840F22841C4F20201884248D089
:10198000FFE74CF67020C2F20040006840F2404190
:10199000C4F2020188423CD0FFE74CF67020C2F24C
:1019A0000040006840F25841C4F20201884230D041
:1019B000FFE74CF67020C2F20040006840F2704130
:1019C000C4F20201884224D0FFE74CF67020C2F234
:1019D0000040006840F28841C4F20201884218D0F9
:1019E000FFE74CF67020C2F20040006840F2A041D0
:1019F000C4F2020188420CD0FFE74CF67020C2F21C
:101A00000040006840F2B841C4F2020188420AD1A5
:101A1000FFE74CF67020C2F200400168086820F031
:101A20000100086009E04CF67020C2F20040016835
:101A3000086820F001000860FFE770470000000020
:101A400010B584B08C468646099808980798069980
:101A5000CDF80CE0CDF808C0ADF80620ADF80430A4
:101A6000ADF80210ADF8000040F23411C2F20041AE
:101A700001200860BDF8020000F00F014CF6A04004
:101A8000C2F200400160006848B1FFE74CF6A04197
:101A9000C2F200410868C0F110000860FFE7029838
:101AA000BDF80410BDF80220BDF8063001FB02317C
:101AB00000EB81014BF24830C2F20040016041F27C
:101AC0000001C5F200214FF481320A6041F2400367
:101AD000C5F2002300221A60089A41F23403C5F2CD
:101AE00000231A6040F23412C2F2004213680B2243
:101AF000CFF6017242EA834241F21C03C5F2002391
:101B00001A604CF6A042C2F20042126841F2100381
:101B1000C5F200231A60BDF80230BDF8002042EA89
:101B2000034241F24403C5F200231A60006841F207
:101B30003C02C5F200221060039841F20C02C5F28B
:101B400000221060086840F001000860FFE741F2E1
:101B50000000C5F200200068C00708B1FFE7F6E703
:101B600004B010BD0000000080B588B083F0A0FB79
:101B70004CF67020C2F20040006840F2B941C4F255
:101B80000201884209D3FFE745F20040C5F6020092
:101B9000006800F4006007904CE04CF67020C2F240
:101BA0000040006840F25941C4F20201884209D362
:101BB000FFE740F20440C4F20200006800F4006055
:101BC000069034E04CF67020C2F200400068B92163
:101BD000C4F20201884209D3FFE740F20040C4F298
:101BE0000200006800F4006005901DE04CF67020D3
:101BF000C2F2004000685921C4F20201884208D3B1
:101C0000FFE70420C4F20200006800F400600490C2
:101C100007E00020C4F20200006800F400600490B5
:101C2000FFE704980590FFE705980690FFE7069800
:101C30000790FFE70798002865D0FFE74CF6702073
:101C4000C2F20040006840F2B941C4F20201884289
:101C500008D3FFE745F20441C5F602014FF40060E6
:101C600008604BE04CF67020C2F20040006840F281
:101C70005941C4F20201884209D3FFE740F20C4106
:101C8000C4F202014FF400600860039034E04CF6A7
:101C90007020C2F200400068B921C4F202018842FB
:101CA00009D3FFE740F20841C4F202014FF400609B
:101CB000086002901DE04CF67020C2F200400068FF
:101CC0005921C4F20201884208D3FFE70C21C4F273
:101CD00002014FF400600860019007E00821C4F29F
:101CE00002014FF4006008600190FFE70198029044
:101CF000FFE702980390FFE70398FFE720F030FB2F
:101D00000EF0B2FFFFE783F00BFB08B080BD0000D0
:101D100083B002900298016801201022C4F20202EE
:101D20009142009000F0A380FFE702980168012033
:101D30002822C4F202029142009000F09880FFE74E
:101D40000298016801204022C4F2020291420090F0
:101D500000F08D80FFE70298016801205822C4F24C
:101D600002029142009000F08280FFE70298016831
:101D700001207022C4F202029142009077D0FFE766
:101D80000298016801208822C4F202029142009068
:101D90006DD0FFE7029801680120A022C4F2020280
:101DA0009142009063D0FFE7029801680120B822B9
:101DB000C4F202029142009059D0FFE702980168F4
:101DC000012040F21042C4F20202914200904ED033
:101DD000FFE702980168012040F22842C4F20202A3
:101DE0009142009043D0FFE702980168012040F241
:101DF0004042C4F202029142009038D0FFE70298BC
:101E00000168012040F25842C4F20202914200905F
:101E10002DD0FFE702980168012040F27042C4F221
:101E200002029142009022D0FFE70298016801204F
:101E300040F28842C4F202029142009017D0FFE7BC
:101E400002980168012040F2A042C4F202029142CD
:101E500000900CD0FFE7029800684FF64831CBF6AF
:101E6000FD710844B0FA80F040090090FFE7009847
:101E7000C00740B3FFE70298007810384AF6AB215C
:101E8000CAF6AA21A0FB011000090190019800F0F8
:101E9000070144F2F850C9F20B00405C0299C86592
:101EA0000198042807D3FFE702990868042262F327
:101EB0000900886506E00299086840F2FF32904305
:101EC0008865FFE705E00299086820F0FF00886553
:101ED000FFE70298806D03B070470000000000002B
:101EE00084B0039003980068019003980168012072
:101EF00045F20842C5F60202914200904ED0FFE73B
:101F000003980168012045F21C42C5F60202914285
:101F1000009043D0FFE703980168012045F230426A
:101F2000C5F602029142009038D0FFE7039801689D
:101F3000012045F24442C5F60202914200902DD0A4
:101F4000FFE703980168012045F25842C5F60202F6
:101F50009142009022D0FFE703980168012045F2EA
:101F60006C42C5F602029142009017D0FFE7039839
:101F70000168012045F28042C5F6020291420090BC
:101F80000CD0FFE7039800684AF66C31CAF2FD7185
:101F90000844B0FA80F040090090FFE70098C007BD
:101FA00010B3FFE70398007808384CF6CD41CCF623
:101FB000CC41A0FB011000090290029945F60000F7
:101FC000C5F6020000EB810003990866039945F607
:101FD0008000C5F602004866029800F01F0101204B
:101FE00088400399886635E00398007810384AF6EF
:101FF000AB21CAF6AA21A0FB0110000902900198AA
:1020000040F2B841C4F2020188420CD8FFE70198BF
:1020100040F21041C4F20201884204D3FFE7029863
:1020200008300290FFE7029940F60000C4F2020077
:1020300000EB810003990866039940F68000C4F222
:1020400002004866029800F01F01012088400399B1
:102050008866FFE704B0704783B002900298007969
:1020600001900198002800F08A80FFE70198082875
:1020700000F28580FFE702980168012045F20842DE
:10208000C5F60202914200904ED0FFE70298016827
:10209000012045F21C42C5F602029142009043D055
:1020A000FFE702980168012045F23042C5F60202BE
:1020B0009142009038D0FFE702980168012045F274
:1020C0004442C5F60202914200902DD0FFE70298EB
:1020D0000168012045F25842C5F602029142009083
:1020E00022D0FFE702980168012045F26C42C5F654
:1020F00002029142009017D0FFE702980168012088
:1021000045F28042C5F60202914200900CD0FFE7F2
:10211000029800684AF66C31CAF2FD710844B0FAC0
:1021200080F040090090FFE70098C00780B1FFE70A
:10213000019945F6FC00C5F6020000EB810002990A
:10214000C866029945F64010C5F6020008670FE020
:10215000019940F6FC00C4F2020000EB81000299F4
:10216000C866029940F64010C4F202000867FFE713
:102170000198411E0120884002994867FFE703B09B
:10218000704700000000000085B0049000208DF82A
:102190000F000498806918BBFFE70498806A0290DA
:1021A00003281BD80299DFE801F0020D02180498F9
:1021B00090F82F00C00720B1FFE701208DF80F0035
:1021C000FFE70CE00498C06AB0F1C07F04D1FFE7DC
:1021D00001208DF80F00FFE701E000E0FFE747E096
:1021E00004988069B0F5005F26D1FFE70498806A03
:1021F000019003281ED80199DFE801F002060211C0
:1022000001208DF80F0016E0049890F82F00C00709
:1022100020B1FFE701208DF80F00FFE70BE00498E5
:10222000C06AB0F1C07F04D1FFE701208DF80F0034
:10223000FFE700E0FFE71AE00498806A00900328B7
:1022400004D3FFE70098032804D00EE001208DF8A6
:102250000F000BE0049890F82F00C00720B1FFE7B3
:1022600001208DF80F00FFE700E0FFE7FFE7FFE741
:102270009DF80F0005B0704785B00490039102925D
:1022800001930498016801201022C4F202029142D5
:10229000009000F0A380FFE7049801680120282245
:1022A000C4F202029142009000F09880FFE7049887
:1022B000016801204022C4F202029142009000F025
:1022C0008D80FFE70498016801205822C4F20202C1
:1022D0009142009000F08280FFE70498016801209D
:1022E0007022C4F202029142009077D0FFE7049876
:1022F000016801208822C4F20202914200906DD050
:10230000FFE7049801680120A022C4F20202914272
:10231000009063D0FFE7049801680120B822C4F25E
:1023200002029142009059D0FFE704980168012011
:1023300040F21042C4F20202914200904ED0FFE7F8
:1023400004980168012040F22842C4F2020291423E
:10235000009043D0FFE704980168012040F240421A
:10236000C4F202029142009038D0FFE7049801685D
:10237000012040F25842C4F20202914200902DD056
:10238000FFE704980168012040F27042C4F20202A3
:102390009142009022D0FFE704980168012040F2AA
:1023A0008842C4F202029142009017D0FFE70498DD
:1023B0000168012040F2A042C4F202029142009062
:1023C0000CD0FFE7049800684FF64831CBF6FD715A
:1023D0000844B0FA80F040090090FFE70098C00779
:1023E000E0B1FFE7019804990968486004988068A3
:1023F000402809D1FFE7029804990968886003988A
:1024000004990968C86008E003980499096888601D
:10241000029804990968C860FFE71BE001980499D5
:102420000968486004988068402809D1FFE702984D
:10243000049909688860039804990968C86008E0ED
:102440000398049909688860029804990968C8602B
:10245000FFE7FFE705B0704788B007900691059247
:1024600004930798806D03900798806D02900798F9
:10247000416E806E48600798C06E28B1FFE70798EC
:10248000016F406F4860FFE7079801680120102244
:10249000C4F202029142019000F0A380FFE7079886
:1024A000016801202822C4F202029142019000F04A
:1024B0009880FFE70798016801204022C4F20202D9
:1024C0009142019000F08D80FFE70798016801209C
:1024D0005822C4F202029142019000F08280FFE78C
:1024E0000798016801207022C4F202029142019013
:1024F00077D0FFE70798016801208822C4F2020222
:10250000914201906DD0FFE7079801680120A02259
:10251000C4F202029142019063D0FFE7079801687C
:102520000120B822C4F202029142019059D0FFE783
:1025300007980168012040F21042C4F20202914261
:1025400001904ED0FFE707980168012040F2284231
:10255000C4F202029142019043D0FFE7079801685C
:10256000012040F24042C4F202029142019038D070
:10257000FFE707980168012040F25842C4F20202C6
:10258000914201902DD0FFE707980168012040F2A9
:102590007042C4F202029142019022D0FFE70798F4
:1025A0000168012040F28842C4F202029142019087
:1025B00017D0FFE707980168012040F2A042C4F25B
:1025C0000202914201900CD0FFE7079800684FF695
:1025D0004831CBF6FD710844B0FA80F04009019013
:1025E000FFE70198C00750B3FFE70798C06D00F000
:1025F0001F013F2088400399886007980168086898
:1026000020F48020086004980799096848600798BA
:102610008068402809D1FFE7059807990968886014
:10262000069807990968C86008E00698079909683C
:102630008860059807990968C860FFE782E00798F5
:102640000168012045F20842C5F60202914200905D
:102650004ED0FFE707980168012045F21C42C5F6FD
:1026600002029142009043D0FFE7079801680120E1
:1026700045F23042C5F602029142009038D0FFE7A1
:1026800007980168012045F24442C5F602029142D2
:1026900000902DD0FFE707980168012045F25842CD
:1026A000C5F602029142009022D0FFE70798016828
:1026B000012045F26C42C5F602029142009017D00B
:1026C000FFE707980168012045F28042C5F6020243
:1026D000914200900CD0FFE7079800684AF66C31F1
:1026E000CAF2FD710844B0FA80F040090090FFE79B
:1026F0000098C00720B3FFE70798C06D00F01F01E6
:102700000120884002994860049807990968486048
:1027100007988068402809D1FFE70598079909685C
:102720008860069807990968C86008E006980799C4
:1027300009688860059807990968C860FFE700E0A4
:10274000FFE7FFE708B0704780B582F0B1FD0120D8
:1027500003F086FB82F0E4FD80BD00000000000075
:1027600080B582F0A5FD4FF4806003F079FB4FF453
:10277000006003F075FB4FF4805003F071FB4FF4E1
:10278000005003F06DFB4FF4804003F069FB4FF401
:10279000004003F065FB82F0C3FD80BD0000000037
:1027A00080B582F085FD022003F05AFB82F0B8FD6F
:1027B00080BD00000000000080B582F079FD04209B
:1027C00003F04EFB82F0ACFD80BD00000000000075
:1027D00080B582F06DFD082003F042FB82F0A0FD81
:1027E00080BD00000000000080B582F061FD102077
:1027F00003F036FB82F094FD80BD00000000000075
:1028000080B582F055FD202003F02AFB402003F024
:1028100027FB802003F024FB4FF4807003F020FBA3
:102820004FF4007003F01CFB82F07AFD80BD0000C5
:1028300080B583B0029001910198006800BBFFE76A
:102840000298006847F6FF718843019A0092516828
:10285000D2F808E0D2F80CC0136941EA0E0141EA4F
:102860000C0119435369194393691943D3691943F7
:10287000136A1943526A114308430299086025E01C
:102880000298006820F4F840019AD169136A526AEC
:10289000194311430843029908600298406847F6BB
:1028A000FF718843019A5168D2F808E0D2F80CC051
:1028B000136941EA0E0141EA0C01194353691943B6
:1028C00092691143084302994860FFE7002003B072
:1028D00080BD00000000000082B0019000910198CE
:1028E000406943F6FE718843009940EA410001992E
:1028F0004861002002B0704783B0029001910092BD
:10290000019908684A688B68C96810436FF01F0214
:1029100002EB4312104340EA412202990869104336
:102920000861002003B0704710B583B00290019198
:1029300000920098A8BBFFE70298806800F0704002
:10294000019A11685468D2F808E0D2F80CC0013935
:102950006FF00F0303EB041319436FF0FF0303EB56
:102960000E2319434FF20003CFF6FF7303EB0C3332
:102970001943D2F810C00023CFF6FF7303EB0C43CA
:102980001943D2F814C00023CFF6F07303EB0C53B5
:1029900019439269013A41EA026108430299886049
:1029A0003CE00298806840F6FF71CFF60F71084056
:1029B0000199CA684B694FF20001CFF6FF7101EB34
:1029C00002310022CFF6F07202EB035211430843AA
:1029D000029988600298C06800F07040019A1168FE
:1029E0005468D2F808E0D2F810C001396FF00F0334
:1029F00003EB041319436FF0FF0303EB0E2319439A
:102A00000023CFF6FF7303EB0C4319439269013A9D
:102A100041EA026108430299C860FFE7002003B061
:102A200010BD00000000000089B0089007910692D8
:102A30000698059005981F2805DCFFE705990120F9
:102A40008840009002E000200090FFE700980138E5
:102A5000049007990320A0EB51100390079800F011
:102A60001F0002900898039950F821000299C8406D
:102A70000190059802990844212815DBFFE7089882
:102A8000039900EB810050F8040C0299C1F1200178
:102A9000CA1701EBD26222F01F02891A00FA01F173
:102AA000019808430190FFE701980499084009B094
:102AB000704700000000000089B00890079106925E
:102AC0000698059005981F2805DCFFE70599012069
:102AD0008840009002E000200090FFE70098013855
:102AE000049007990320A0EB51100390079800F081
:102AF0001F0002900898039950F821000299C840DD
:102B00000190059802990844212815DBFFE70898F1
:102B1000039900EB810050F8040C0299C1F12001E7
:102B2000CA1701EBD26222F01F02891A00FA01F1E2
:102B3000019808430190FFE701980499084009B003
:102B4000704700000000000080B596B0FFE744F237
:102B5000E040C5F60200016841F00801016000682C
:102B600000F008000E900E98FFE7FFE744F2E04007
:102B7000C5F60200016841F040010160006800F004
:102B800040000D900D98FFE74FF4805007900F9094
:102B900000200B90109001200490119003200890C9
:102BA000129041F60000C5F602000A900FA90991A3
:102BB00003F072F904980999082203920F92109079
:102BC00040F60040C5F60200059003F065F9FEF7F7
:102BD00027FB059803990B9A03F05AFB0A200690ED
:102BE00088F0D6FA0399049A059803F051FB0698E9
:102BF00088F0CEFADDF81CC0089A09990B9B0A9858
:102C0000CDF83CC010931193129203F045F9642063
:102C100088F0BEFA48F240100DF152010C910422E6
:102C200000F04EF80B980C998DF856004DF6A34025
:102C3000C9F20D0082F020FC0C984DF6AF41C9F2AC
:102C40000D0187F079FE90BBFFE702208DF852005E
:102C500048F240000DF1520101910122029200F070
:102C6000B3F90199029A48F2470000F029F89DF85B
:102C700052005F2809DCFFE79DF852104DF69240A4
:102C8000C9F20D0082F0F8FBFFE70A2088F080FA15
:102C9000002000908DF8520048F240000DF15201E2
:102CA000012200F091F900988DF8570003E0002010
:102CB0008DF85700FFE79DF8570016B080BD000063
:102CC00080B584B0ADF80E0002918DF80720FEF7B4
:102CD000ABFB2820FEF74CFBFEF706FC9DF80F002F
:102CE000FEF746FBFEF700FC9DF80E00FEF740FBEA
:102CF000FEF7FAFBFEF798FB2920FEF739FBFEF7FB
:102D0000F3FB00208DF80600FFE79DF806009DF814
:102D10000710884215DAFFE79DF806009DF80710B6
:102D20000139401A18BF0120FEF7CAFA02999DF82E
:102D300006208854FFE79DF8060001308DF8060054
:102D4000E3E7FEF7A1FB04B080BD00000000000037
:102D500080B584B08DF80F0000208DF80A008DF842
:102D6000090048F24E100DF10F010122FFF7A8FFF4
:102D70009DF80F000006002812D5FFE79DF80F0010
:102D800000F00F0005280BDCFFE700208DF80A009B
:102D900048F24E100DF10A01012200F015F9FFE78B
:102DA0009DF80F000007002800F0D280FFE79DF893
:102DB0000F0000F00F00052800F3CA80FFE79DF820
:102DC0000F0000F00F014FF6FF708840ADF80600CD
:102DD00040F2A061C2F20041888EADF80400BDF857
:102DE00006204FF4404060EA020088868889888285
:102DF000088C088500208DF80A00FFE79DF80A007E
:102E0000002862DCFFE740F2A060C2F20040808E42
:102E10009DF80A10C840C00700284FD0FFE79DF872
:102E20000A1044F20060C9F20B0030F811000DF1F5
:102E30000B010422FFF744FF40F2A060C2F2004001
:102E400090F84400C007D8B1FFE79DF80B009DF84B
:102E50000C1040EA01209DF80A2040F2A061C2F265
:102E6000004101EB420290819DF80D009DF80E207B
:102E700040EA02209DF80A2001EB420108841CE090
:102E80009DF80B009DF80C1040EA01209DF80A20E7
:102E900040F2A061C2F2004101EB420210849DF8B1
:102EA0000D009DF80E2040EA0220C0F588709DF8C4
:102EB0000A2001EB42018881FFE7FFE7FFE79DF869
:102EC0000A0001308DF80A0098E701208DF809000A
:102ED00040F2A060C2F200408089B0F5F07F09DCCA
:102EE000FFE740F2A060C2F20040008CB0F5887F9E
:102EF00026DDFFE79DF80F0000F00F0002280FDB32
:102F0000FFE740F2A061C2F20041C8898881488C85
:102F1000088441F69A21C2F20041002008700EE0B8
:102F200040F2A061C2F20041888A8881088D08843D
:102F300080208DF80F00BDF804008886FFE706E0CA
:102F400041F69A21C2F2004100200870FFE7FFE736
:102F50009DF80F0000F08F00802820D1FFE740F29D
:102F6000A060C2F20040808E0004002809D5FFE76F
:102F700040F2A061C2F20041888E6FF3DF30888694
:102F80000CE040F2A061C2F200414FF6FF70888170
:102F90000884888E00F460408886FFE7FFE741F6EA
:102FA0009A20C2F200400078F12807DBFFE741F6E3
:102FB0009A21C2F200410A200870FFE79DF809003B
:102FC00004B080BD0000000080B584B0ADF80E00F4
:102FD00002918DF80720002000908DF80500FEF783
:102FE00023FA2820FEF7C4F9FEF77EFA9DF80F00B9
:102FF000FEF7BEF9FEF778FA9DF80E00FEF7B8F975
:10300000FEF772FA00988DF80600FFE79DF80600BB
:103010009DF80710884216DAFFE702989DF806101F
:10302000405CFEF7A5F9FEF75FFA8DF805009DF804
:10303000050008B1FFE706E0FFE79DF80600013054
:103040008DF80600E2E7FEF71FFA9DF8050004B0D0
:1030500080BD00000000000080B586B004900391A0
:10306000029200200090FFE7049890F85000012899
:1030700004D1FFE702208DF817005BE004990120DE
:1030800081F85000FFE7FFE70498FDF759FF8DF83E
:1030900007009DF80700E0BBFFE70498406D40F093
:1030A000020020F488500499486504980068039948
:1030B000029A0BF0E1FBFFE7049800680BF0D4FAEA
:1030C000F0B1FFE700980130009000984FF6000142
:1030D000C2F2C351884212D3FFE70498406D40F01A
:1030E000100020F0020004994865FFE704990020D1
:1030F00081F85000FFE701208DF817001AE0DBE7A8
:103100000498406D40F0010020F0020004994865E9
:1031100005E00499486D40F010004865FFE7FFE7BF
:103120000499002081F85000FFE79DF807008DF812
:103130001700FFE79DF8170006B080BD00000000F3
:1031400080B5A0B01E901D9100208DF873001990DD
:103150001E9890F83800012801D1FFE700E0FFE752
:103160001D98C0680021C4F2FF71884201D0FFE7BA
:103170001EE01E98006842F20001C4F2020188427B
:1031800001D1FFE7FFE71E98006842F20011C4F288
:103190000201884201D1FFE7FFE71E98006846F26E
:1031A0000001C5F60201884201D1FFE7FFE7FFE712
:1031B000FFE71E9890F85000012804D1FFE7022095
:1031C0008DF87F0054E31E99012081F85000FFE73D
:1031D000FFE71E9800680BF06FFA002840F0348378
:1031E000FFE71D980068000330B9FFE71D980068ED
:1031F000C0F38460169007E01D98006890FAA0F074
:10320000B0FA80F01690FFE7169800F01F01012039
:1032100000FA01F21E980168C8691043C8611E983F
:1032200000681D990A6849680BF05AFA1E980068F0
:103230000BF042FA18901E9800680BF00DFA1790E8
:103240001898002840F0B580FFE71798002840F054
:10325000B080FFE71E9800681D9A116892680BF015
:103260006FFA41F20000C5F60040006800F07040BF
:10327000B0F1805F0BD1FFE71D9840691E99096886
:10328000C96801F01C014908884015901FE01E988C
:103290000068C068C00600280BD4FFE71D9840698D
:1032A0001E990968C96801F01C01490888401490FA
:1032B0000AE01D9840691E990968C96801F010016B
:1032C000490888401490FFE714981590FFE7159877
:1032D0001B901D980069042821D0FFE71E98006804
:1032E0001D990A6809691B9B0BF096FA1E980068E5
:1032F0001D9A1169527E013AB2FA82F25209D2073E
:103300000BF0A6FA1E9800681D9A1169127E013A08
:10331000B2FA82F25209D2020BF06AFA48E01E9821
:103320000068006E00F0F8401D990968B0EB816FED
:1033300007D1FFE71E980168086E20F0004008667C
:10334000FFE71E980068406E00F0F8401D9909687C
:10335000B0EB816F07D1FFE71E980168486E20F03F
:1033600000404866FFE71E980068806E00F0F84055
:103370001D990968B0EB816F07D1FFE71E980168BE
:10338000886E20F000408866FFE71E980068C06ED7
:1033900000F0F8401D990968B0EB816F07D1FFE795
:1033A0001E980168C86E20F00040C866FFE7FFE77E
:1033B000FFE71E9800680BF06FF9002840F0438289
:1033C000FFE71E9800681D9A1168D2680BF0D4F9C7
:1033D0001D98C0680021C4F2FF71884240F0D1807E
:1033E000FFE71E98006813901D980068000330B92D
:1033F000FFE71D980068C0F38460129007E01D98F5
:10340000006890FAA0F0B0FA80F01290FFE71298EE
:10341000013000F01F00092853D8FFE71D9800680D
:10342000000330B9FFE71D980068C0F38460119075
:1034300007E01D98006890FAA0F0B0FA80F01190B3
:10344000FFE71198013000F01F00800610901D98D2
:103450000068000330B9FFE71D980068C0F384607E
:103460000F9007E01D98006890FAA0F0B0FA80F085
:103470000F90FFE710980F99013101F01F02012111
:10348000914008430E901D980068000330B9FFE793
:103490001D980068C0F384600D9007E01D980068D7
:1034A00090FAA0F0B0FA80F00D90FFE70E980D9919
:1034B000013101F01F0101EB410140EA01500C9084
:1034C00058E01D980068000330B9FFE71D980068B8
:1034D000C0F384600B9007E01D98006890FAA0F09C
:1034E000B0FA80F00B90FFE70B98013000F01F005E
:1034F00080060A901D980068000330B9FFE71D9808
:103500000068C0F38460099007E01D98006890FA95
:10351000A0F0B0FA80F00990FFE70A98099901310C
:1035200001F01F0201219140084308901D98006896
:10353000000330B9FFE71D980068C0F3846007906E
:1035400007E01D98006890FAA0F0B0FA80F00790AC
:10355000FFE708990798013000F01F0000EB4002D8
:103560000020CFF6206000EB0250084340F00070CE
:103570000C90FFE713980C991D9A92680BF0E0F8F5
:10358000FFE71D98C0780006002840F15B81FFE747
:103590001E980168012042F20002C4F20202914228
:1035A00006900CD0FFE71E9800684DF60071CBF630
:1035B000FD710844B0FA80F040090690FFE70698D4
:1035C000C10746F20030C5F6020000291CBF42F2D6
:1035D0000030C4F202000BF027F81A901E98016820
:1035E0004FF0010042F20002C4F202029142059043
:1035F0000CD0FFE71E9800684DF60071CBF6FD7108
:103600000844B0FA80F040090590FFE70598C1072B
:1036100046F20030C5F6020000291CBF42F200301D
:10362000C4F2020042F20031C4F20201884212D117
:10363000FFE742F20000C4F202000BF02DF8039005
:1036400042F20010C4F202000BF026F80146039883
:103650000843049007E046F20000C5F602000BF0B4
:103660001BF80490FFE70498002840F0E180FFE792
:103670001D9800680021CCF68431884253D1FFE7C1
:103680009DF86A00000600284DD4FFE71E980068E8
:1036900046F20001C5F60201884243D1FFE71E98B9
:1036A0000168012042F20002C4F20202914202903B
:1036B0000CD0FFE71E9800684DF60071CBF6FD7147
:1036C0000844B0FA80F040090290FFE70298C10771
:1036D00046F20030C5F6020000291CBF42F200305D
:1036E000C4F202001A9941F400010BF071F840F2A3
:1036F000A800C2F2004000684FEA901042F6635101
:10370000C0F23E51A0FB01016FF0010000EA511030
:103710001990FFE7199820B1FFE71998013819901F
:10372000F8E7FFE783E01D9800680021CCF25271B2
:10373000884238D1FFE79DF86B00C00798BBFFE7D0
:103740001E98006846F20001C5F60201884229D1A0
:10375000FFE71E980168012042F20002C4F2020253
:10376000914201900CD0FFE71E9800684DF6007161
:10377000CBF6FD710844B0FA80F040090190FFE7F4
:103780000198C10746F20030C5F6020000291CBFAF
:1037900042F20030C4F202001A9941F080710BF03D
:1037A00017F8FFE742E01D9800680021CCF6B871D9
:1037B000884239D1FFE79DF86A004006002833D4DB
:1037C000FFE71E98006846F20001C5F60201884234
:1037D00029D1FFE71E980168012042F20002C4F2DD
:1037E0000202914200900CD0FFE71E9800684DF64F
:1037F0000071CBF6FD710844B0FA80F040090090EA
:10380000FFE70098C10746F20030C5F60200002924
:103810001CBF42F20030C4F202001A9941F4800148
:103820000AF0D6FFFFE700E0FFE7FFE7FFE708E069
:103830001E99486D40F02000486501208DF8730006
:10384000FFE7FFE7FFE708E01E99486D40F0200022
:10385000486501208DF87300FFE7FFE71E990020FF
:1038600081F85000FFE79DF873008DF87F00FFE7B7
:103870009DF87F0020B080BD81B000900098406D21
:1038800001B070470000000081B00090009800680F
:10389000006C01B07047000010B58CB00A90002099
:1038A0008DF8270006900A9820B9FFE701208DF8CF
:1038B0002F00CFE10A98C06838B1FFE70A98007F6F
:1038C000012801D1FFE7FFE7FFE70A98406D50B9F3
:1038D000FFE70A9800F0C4F90A99002088650A9960
:1038E00081F85000FFE70A9800680AF0C5FE28B189
:1038F000FFE70A9800680AF06BFEFFE70A98006885
:103900000AF0D2FED8B9FFE70A9800680AF07CFEF8
:1039100040F2A800C2F200400068800942F66351FC
:10392000C0F23E51A0FB011080090690FFE7069807
:1039300020B1FFE7069801380690F8E7FFE70A98FC
:1039400000680AF0B1FE70B9FFE70A99486D40F0CF
:10395000100048650A99886D40F0010088650120D3
:103960008DF82700FFE70A9800680AF0A5FE079087
:103970000A98406DC006002800F15E81FFE70798B5
:10398000002840F05981FFE70A98406D40F002009E
:1039900020F480700A9948650A9800680AF07CFE55
:1039A000002870D1FFE70A980168012042F2000266
:1039B000C4F20202914203900CD0FFE70A9800681B
:1039C0004DF60071CBF6FD710844B0FA80F0400965
:1039D0000390FFE70398C10746F20030C5F60200E6
:1039E00000291CBF42F20030C4F2020042F2003152
:1039F000C4F20201884212D1FFE742F20000C4F291
:103A000002000AF049FE019042F20010C4F20200E6
:103A10000AF042FE014601980843029007E046F290
:103A20000000C5F602000AF037FE0290FFE7029898
:103A300040BBFFE70A980168012042F20002C4F28D
:103A40000202914200900CD0FFE70A9800684DF600
:103A50000071CBF6FD710844B0FA80F04009009087
:103A6000FFE70098C10746F20030C5F602000029C2
:103A70001CBF42F20030C4F202000A9949680AF001
:103A800097FEFFE7FFE702F01BFC41F204018842CA
:103A900013D3FFE70A98806810280ED1FFE70A9930
:103AA0004A7D086B40EA42308A681043097F40EA49
:103AB000014040F00C0008900BE00A994A7D086B29
:103AC00040EA42308A681043097F40EA014008908A
:103AD000FFE70A98007F01280BD1FFE70A98016AE7
:103AE0000020CFF6FE7000EB414108980843089093
:103AF000FFE70A98406A50B1FFE70A99486A896A65
:103B000000F478700143089808430890FFE70A988A
:103B10000068C0684CF20301CFF6F07108400899C4
:103B200008430A990968C8600A9800680AF0C4FD49
:103B300005900A9800680AF08FFD04900598002807
:103B400059D1FFE70498002855D1FFE70A98017D75
:103B5000C06A40EA813008900A980068C06844F260
:103B600003018843089908430A990968C8600A98BC
:103B700090F83800012829D1FFE70A98406A20B15F
:103B8000FFE70A98806A08B9FFE7FFE70A9800682C
:103B900000694FF61E01CFF6004100EA01020A9BC0
:103BA0001968DC6BD3F840E0D3F844C00020CFF6AE
:103BB000FF7000EB044040EA0E0040EA0C009B6CF2
:103BC0001843104340F00100086106E00A980168BC
:103BD000086920F001000861FFE70A9800680069A1
:103BE00020F070400A9A1168526B104308610A98DD
:103BF000FDF78AF8FFE70A98C06801280CD1FFE7B3
:103C00000A980068006B20F00F000A9A1168926908
:103C1000013A1043086306E00A980168086B20F037
:103C20000F000863FFE70A98406D40F0010020F0A4
:103C300002000A99486508E00A99486D40F01000B2
:103C4000486501208DF82700FFE79DF827008DF8D3
:103C50002F00FFE79DF82F000CB010BD0000000002
:103C600080B588B0079000200690059004900390DE
:103C700002900798006842F20001C4F202018842F3
:103C80002CD1FFE7FFE744F2D840C5F602000168F7
:103C900041F020010160006800F0200001900198CF
:103CA000FFE7FFE744F2E040C5F60200016841F09B
:103CB00002010160006800F0020000900098FFE738
:103CC00002200290032003900020049040F2004064
:103CD000C5F6020002A902F0DFF8FFE708B080BDD8
:103CE00080B58CB00A9009910A980168012042F2CF
:103CF0000002C4F20202914203900CD0FFE70A983E
:103D000000684DF60071CBF6FD710844B0FA80F002
:103D100040090390FFE70398C10746F20030C5F65B
:103D2000020000291CBF42F20030C4F202000AF077
:103D30008BFC04900A980069082803D1FFE708204B
:103D4000079052E0049840B1FFE70498052804D09A
:103D5000FFE70498092813D1FFE70A980068C068B4
:103D6000C00748B1FFE70A99486D40F02000486558
:103D700001208DF82F00E7E004200790FFE733E0F3
:103D80000A980168012042F20002C4F20202914244
:103D900002900CD0FFE70A9800684DF60071CBF650
:103DA000FD710844B0FA80F040090290FFE70298E4
:103DB000C10746F20030C5F6020000291CBF42F2DE
:103DC0000030C4F202000AF037FC48B1FFE70A995C
:103DD000486D40F02000486501208DF82F00B3E0C9
:103DE00004200790FFE7FFE7FFE702F071FA089071
:103DF000FFE70A98006800680799084220D1FFE7AA
:103E000009980130D8B1FFE702F062FA0899401A28
:103E10000999884203D8FFE7099878B9FFE70A991A
:103E2000486D40F004004865FFE70A99002081F8DA
:103E30005000FFE703208DF82F0085E0FFE7D8E76B
:103E40000A99486D40F4007048650A9800680AF0C5
:103E50003BFCF0B1FFE70A98407DD0B9FFE70A9834
:103E6000006800680007002812D5FFE70A99486D2E
:103E700020F4807048650A98406DC004002806D47C
:103E8000FFE70A99486D40F001004865FFE7FFE74A
:103E9000FFE70A98006842F20011C4F2020188426A
:103EA00006D1FFE742F20000C4F20200019003E0F5
:103EB0000A9800680190FFE701980A99096888420A
:103EC0000BD0FFE7049840B1FFE70498052804D021
:103ED000FFE70498092805D1FFE70A980068C06841
:103EE000069018E00A98006842F20011C4F202013C
:103EF000884206D1FFE742F20000C4F202000090BF
:103F000003E00A9800680090FFE700980590059884
:103F1000C0680690FFE70798082805D1FFE70A98D0
:103F20000168082008600BE09DF819004006002891
:103F300005D4FFE70A9801680C200860FFE7FFE757
:103F400000208DF82F00FFE79DF82F000CB080BDFA
:103F500080B58AB0089008980168012042F20002FA
:103F6000C4F20202914204900CD0FFE70898006866
:103F70004DF60071CBF6FD710844B0FA80F04009AF
:103F80000490FFE70498C10746F20030C5F602002E
:103F900000291CBF42F20030C4F202000AF054FBB8
:103FA0000590089800680AF087FB002840F0CE8052
:103FB000FFE7FFE7089890F85000012804D1FFE7D9
:103FC00002208DF82700CAE00899012081F85000EE
:103FD000FFE7FFE70898FDF70FF88DF81F009DF841
:103FE0001F00002840F0AA80FFE70898406D40F4C9
:103FF000807040F601618843089948650898006818
:1040000042F20011C4F20201884206D1FFE742F2F7
:104010000000C4F20200039003E0089800680390D7
:10402000FFE7039808990968884203D0FFE70598DD
:1040300030B9FFE70899486D20F480104865FFE724
:104040000898406DC004002806D5FFE70899886DE0
:1040500020F00600886503E0089900208865FFE7E6
:10406000089801681C200860FFE70899002081F883
:104070005000FFE70898006842F20011C4F2020104
:10408000884206D1FFE742F20000C4F2020002902B
:1040900003E0089800680290FFE702980899096811
:1040A00088420BD0FFE7059840B1FFE70598052847
:1040B00004D0FFE70598092815D1FFE708980068A4
:1040C000C0688001002809D5FFE70898406D40F4DA
:1040D000805020F4005008994865FFE70898006870
:1040E0000AF01EFB29E00899486D40F480104865ED
:1040F0000898006842F20011C4F20201884206D119
:10410000FFE742F20000C4F20200019003E00898C9
:1041100000680190FFE7019806900698C06880014A
:10412000002809D5FFE70898406D40F4805020F43E
:10413000005008994865FFE7FFE706E0FFE70899A8
:10414000002081F85000FFE7FFE703E002208DF830
:104150001F00FFE79DF81F008DF82700FFE79DF87F
:1041600027000AB080BD000081B0009001B0704708
:1041700080B582B0019081F09BF846F61830C2F20B
:1041800001400168C86840F00100C8601EF050F9A5
:1041900081F0C6F802B080BD80B582B00190019870
:1041A0000068006900909DF800004007002818D5BD
:1041B000FFE70198016804204861019AD16C41F041
:1041C0000201D164019981F835000198816C41F2B6
:1041D0007160C9F2000008650198806C00F03CFB3A
:1041E000FFE79DF800008007002819D5FFE7019838
:1041F0000168022048610199C86C40F00100C86460
:104200000199042081F835000198816C41F27160B8
:10421000C9F2000008650198806C00F01DFBFFE703
:104220009DF80000C006002808D5FFE70198016846
:1042300010204861019800F093F8FFE79DF8000016
:104240000007002808D5FFE70198016808204861A9
:10425000019800F029F9FFE79DF80000C007E0B1E0
:10426000FFE70198006800688007002807D5FFE78E
:1042700001980168C86820F01E00C860FFE7019837
:104280000168C86820F00100C86001980168012039
:1042900048610198FFF76CFFFFE702B080BD0000A6
:1042A00080B584B00290029820B9FFE701208DF814
:1042B0000F0050E0029890F8350020B9FFE702980F
:1042C00000F052F8FFE70299022081F835000298C9
:1042D000016808684FF20702CFF6E07210400860EC
:1042E000029A0192D2F814E0116850689368D2F8EB
:1042F0000CC040EA0E0040EA0C00D2F810C040EAC0
:104300000C00184393691843136A1843536A1843FF
:10431000936A1843D36A1843126B02430868104328
:10432000086002984068102805D1FFE702980168EC
:10433000C0698861FFE702980168C86840F01E0004
:10434000C86002990020C864029A012182F83510E1
:104350008DF80F00FFE79DF80F0004B080BD00004E
:1043600081B0009001B0704780B58EB00D90FFE72E
:1043700044F2DC40C5F60200016841F00101016031
:10438000006800F001000C900C98FFE7FFE744F292
:10439000E040C5F60200016841F0010101600068DB
:1043A00000F001000B900B98FFE7FFE744F2E040BC
:1043B000C5F60200016841F002010160006800F0EA
:1043C00002000A900A98FFE7FFE744F2E040C5F6D2
:1043D0000200016841F010010160006800F0100067
:1043E00009900998FFE7FFE744F2E040C5F60200B4
:1043F000016841F080010160006800F080000890D1
:104400000898FFE7FFE744F2E040C5F602000168C4
:1044100041F480710160006800F480700790079893
:10442000FFE74FF4C8600290022003900D20069031
:1044300001200490032005900020C5F6020002A987
:10444000009101F029FD00994FF48070029040F234
:104450000040C5F6020001F01FFD009940200290C7
:1044600041F20000C5F6020001F016FD00994FF47C
:10447000B240029041F60040C5F6020001F00CFD8A
:1044800000993020029042F20000C5F6020001F0CF
:1044900003FD4E2001900022114603F0CDF8019853
:1044A00003F0BEF80EB080BD81B0009001B070473F
:1044B00080B588B0DDF828C006900591049203937A
:1044C00000208DF80B0006988068802808D1FFE74F
:1044D00006994FF48070486501208DF80B00B2E119
:1044E000FFE7069890F83400012804D1FFE7022086
:1044F0008DF81F00ACE10699012081F83400FFE738
:10450000FFE7069890F83500012840F09381FFE717
:104510000699022081F83500069900204865069822
:10452000016801201022C4F202029142009000F0C2
:10453000A380FFE70698016801202822C4F2020246
:104540009142009000F09880FFE7069801680120F2
:104550004022C4F202029142009000F08D80FFE7F9
:104560000698016801205822C4F20202914200908C
:1045700000F08280FFE70698016801207022C4F2F3
:1045800002029142009077D0FFE70698016801206F
:104590008822C4F20202914200906DD0FFE7069893
:1045A00001680120A022C4F202029142009063D06F
:1045B000FFE7069801680120B822C4F20202914286
:1045C000009059D0FFE706980168012040F21042A0
:1045D000C4F20202914200904ED0FFE706980168B3
:1045E000012040F22842C4F202029142009043D0DE
:1045F000FFE706980168012040F24042C4F202023F
:104600009142009038D0FFE706980168012040F2FF
:104610005842C4F20202914200902DD0FFE7069862
:104620000168012040F27042C4F2020291420090FF
:1046300022D0FFE706980168012040F28842C4F2C8
:1046400002029142009017D0FFE70698016801200E
:1046500040F2A042C4F20202914200900CD0FFE767
:10466000069800684FF64831CBF6FD710844B0FA61
:1046700080F040090090FFE70098C007B8B1FFE75D
:1046800006980168086840F480200860039806993D
:10469000096808610698806D083001900698C06D21
:1046A00000F01F013F2088400199086017E006983C
:1046B0000168086848F220021043086003980699D0
:1046C000096808610698806D043001900698C06DF5
:1046D00000F01F010120884001990860FFE706985B
:1046E0000599049A0A9BFDF7C7FD0698416E806EF6
:1046F00048600698C06E28B1FFE70698016F406FCA
:104700004860FFE7069800681021C4F20201884261
:1047100000F08180FFE7069800682821C4F20201BA
:10472000884278D0FFE7069800684021C4F2020171
:10473000884270D0FFE7069800685821C4F2020151
:10474000884268D0FFE7069800687021C4F2020131
:10475000884260D0FFE7069800688821C4F2020111
:10476000884258D0FFE706980068A021C4F20201F1
:10477000884250D0FFE706980068B821C4F20201D1
:10478000884248D0FFE70698006840F21041C4F222
:10479000020188423FD0FFE70698006840F22841B6
:1047A000C4F20201884236D0FFE70698006840F262
:1047B0004041C4F2020188422DD0FFE7069800680C
:1047C00040F25841C4F20201884224D0FFE7069823
:1047D000006840F27041C4F2020188421BD0FFE73A
:1047E0000698006840F28841C4F20201884212D063
:1047F000FFE70698006840F2A041C4F20201884237
:1048000009D0FFE70698006840F2B841C4F20201FF
:10481000884207D1FFE706980168086840F0010068
:10482000086006E006980168086840F0010008602A
:10483000FFE707E006994FF40060486501208DF816
:104840000B00FFE7FFE79DF80B008DF81F00FFE767
:104850009DF81F0008B080BD80B584B0029002981A
:1048600020B9FFE701208DF80F0034E2029890F89C
:104870003500022807D0FFE7029980204865012013
:104880008DF80F0027E20298016801201022C4F27F
:1048900002029142009000F0A380FFE702980168B5
:1048A00001202822C4F202029142009000F0988078
:1048B000FFE70298016801204022C4F202029142FF
:1048C000009000F08D80FFE70298016801205822D7
:1048D000C4F202029142009000F08280FFE7029849
:1048E000016801207022C4F202029142009077D048
:1048F000FFE70298016801208822C4F20202914277
:1049000000906DD0FFE7029801680120A022C4F258
:1049100002029142009063D0FFE7029801680120F3
:10492000B822C4F202029142009059D0FFE70298E7
:104930000168012040F21042C4F20202914200904C
:104940004ED0FFE702980168012040F22842C4F2ED
:1049500002029142009043D0FFE7029801680120D3
:1049600040F24042C4F202029142009038D0FFE788
:1049700002980168012040F25842C4F202029142BA
:1049800000902DD0FFE702980168012040F27042AC
:10499000C4F202029142009022D0FFE7029801681F
:1049A000012040F28842C4F202029142009017D0E6
:1049B000FFE702980168012040F2A042C4F202021F
:1049C000914200900CD0FFE7029800684FF6483102
:1049D000CBF6FD710844B0FA80F040090090FFE783
:1049E0000098C007002800F09D80FFE7029904208E
:1049F00081F83500029800681021C4F20201884253
:104A000000F08180FFE7029800682821C4F20201CB
:104A1000884278D0FFE7029800684021C4F2020182
:104A2000884270D0FFE7029800685821C4F2020162
:104A3000884268D0FFE7029800687021C4F2020142
:104A4000884260D0FFE7029800688821C4F2020122
:104A5000884258D0FFE702980068A021C4F2020102
:104A6000884250D0FFE702980068B821C4F20201E2
:104A7000884248D0FFE70298006840F21041C4F233
:104A8000020188423FD0FFE70298006840F22841C7
:104A9000C4F20201884236D0FFE70298006840F273
:104AA0004041C4F2020188422DD0FFE7029800681D
:104AB00040F25841C4F20201884224D0FFE7029834
:104AC000006840F27041C4F2020188421BD0FFE747
:104AD0000298006840F28841C4F20201884212D074
:104AE000FFE70298006840F2A041C4F20201884248
:104AF00009D0FFE70298006840F2B841C4F2020111
:104B0000884207D1FFE702980168086820F0010099
:104B1000086006E002980168086820F0010008605B
:104B2000FFE7D3E002980168086820F00E000860F3
:104B3000029800681021C4F20201884200F08180CE
:104B4000FFE7029800682821C4F20201884278D069
:104B5000FFE7029800684021C4F20201884270D049
:104B6000FFE7029800685821C4F20201884268D029
:104B7000FFE7029800687021C4F20201884260D009
:104B8000FFE7029800688821C4F20201884258D0E9
:104B9000FFE702980068A021C4F20201884250D0C9
:104BA000FFE702980068B821C4F20201884248D0A9
:104BB000FFE70298006840F21041C4F20201884207
:104BC0003FD0FFE70298006840F22841C4F202019A
:104BD000884236D0FFE70298006840F24041C4F2B4
:104BE000020188422DD0FFE70298006840F2584148
:104BF000C4F20201884224D0FFE70298006840F224
:104C00007041C4F2020188421BD0FFE7029800689D
:104C100040F28841C4F20201884212D0FFE70298B4
:104C2000006840F2A041C4F20201884209D0FFE7C7
:104C30000298006840F2B841C4F20201884207D1EC
:104C4000FFE702980168086820F00100086006E0AC
:104C500002980168086820F001000860FFE70298E8
:104C6000016E086820F4807008600298806D0190E1
:104C70000298C06D00F01F01012088400199486032
:104C80000298416E806E48600298C06E58B1FFE78E
:104C90000298C16E086820F4807008600298016F65
:104CA000406F4860FFE7FFE70299002081F8340079
:104CB000FFE70299012081F835000298006D20B1CC
:104CC000FFE70298016D8847FFE7FFE7FFE7002055
:104CD0008DF80F00FFE79DF80F0004B080BD0000C5
:104CE00081B000900098406D01B070470000000056
:104CF00080B58AB0089001F0EBFA0690089820B9C8
:104D0000FFE701208DF82700E2E208980168012002
:104D10001022C4F202029142039000F0A380FFE748
:104D20000898016801202822C4F2020291420390EF
:104D300000F09880FFE70898016801204022C4F243
:104D400002029142039000F08D80FFE7089801680D
:104D500001205822C4F202029142039000F08280A6
:104D6000FFE70898016801207022C4F20202914214
:104D7000039077D0FFE70898016801208822C4F2E9
:104D80000202914203906DD0FFE70898016801206C
:104D9000A022C4F202029142039063D0FFE7089878
:104DA00001680120B822C4F202029142039059D056
:104DB000FFE708980168012040F21042C4F20202A5
:104DC000914203904ED0FFE708980168012040F21D
:104DD0002842C4F202029142039043D0FFE70898B0
:104DE0000168012040F24042C4F202029142039065
:104DF00038D0FFE708980168012040F25842C4F219
:104E00000202914203902DD0FFE70898016801202B
:104E100040F27042C4F202029142039022D0FFE7B6
:104E200008980168012040F28842C4F202029142CF
:104E3000039017D0FFE708980168012040F2A042D4
:104E4000C4F20202914203900CD0FFE70898006878
:104E50004FF64831CBF6FD710844B0FA80F04009B6
:104E60000390FFE70398C007002800F02D81FFE7BB
:104E70000898406A08B1FFE7FFE7FFE708990020BC
:104E800081F83400FFE70899022081F8350008987E
:104E900000681021C4F20201884200F08180FFE71F
:104EA000089800682821C4F20201884278D0FFE700
:104EB000089800684021C4F20201884270D0FFE7E0
:104EC000089800685821C4F20201884268D0FFE7C0
:104ED000089800687021C4F20201884260D0FFE7A0
:104EE000089800688821C4F20201884258D0FFE780
:104EF00008980068A021C4F20201884250D0FFE760
:104F000008980068B821C4F20201884248D0FFE73F
:104F10000898006840F21041C4F2020188423FD074
:104F2000FFE70898006840F22841C4F20201884275
:104F300036D0FFE70898006840F24041C4F2020111
:104F400088422DD0FFE70898006840F25841C4F22B
:104F50000201884224D0FFE70898006840F27041BF
:104F6000C4F2020188421BD0FFE70898006840F2B3
:104F70008841C4F20201884212D0FFE70898006815
:104F800040F2A041C4F20201884209D0FFE708982C
:104F9000006840F2B841C4F20201884207D1FFE73D
:104FA00008980168086820F00100086006E0089889
:104FB0000168086820F001000860FFE7FFE7089833
:104FC00000680068C00798B1FFE701F081F9069911
:104FD000401A06280BD3FFE7089920204865089956
:104FE000032081F8350001208DF8270070E1E6E705
:104FF0000898006800680790079848F23F01CFF6CC
:1050000010610840079008998868D1F80CC00B69B6
:105010004A6940EA0C00184310438A691043CA6980
:105020001043096A01430798084307900898406AAB
:10503000042808D1FFE70899C86A096B014307985B
:1050400008430790FFE707980899096808600898DF
:10505000006840690790079820F0070007900898BB
:10506000416A0798084307900898406A04281AD1B3
:10507000FFE70898816A0798084307900898C06A74
:1050800080B1FFE70898FDF77FF850B1FFE7089976
:10509000402048650899012081F835008DF82700E7
:1050A00016E1FFE7FFE70798089909684861089843
:1050B000FCF72EFE05900898C06D00F01F013F2000
:1050C000884005998860C8E008980168012045F289
:1050D0000842C5F60202914202904ED0FFE70898BE
:1050E0000168012045F21C42C5F60202914202907D
:1050F00043D0FFE708980168012045F23042C5F629
:1051000002029142029038D0FFE70898016801201E
:1051100045F24442C5F60202914202902DD0FFE7CB
:1051200008980168012045F25842C5F602029142F2
:10513000029022D0FFE708980168012045F26C42F6
:10514000C5F602029142029017D0FFE70898016865
:10515000012045F28042C5F60202914202900CD035
:10516000FFE7089800684AF66C31CAF2FD710844FE
:10517000B0FA80F040090290FFE70298C0070028CB
:105180005FD0FFE7FFE70899002081F83400FFE7D0
:105190000899022081F83500089800680068079097
:1051A00007986FF31010079008988068402803D183
:1051B000FFE71020019008E0089880688038B0FA76
:1051C00080F0400980030190FFE701980899D1F829
:1051D0000CE0D1F810C04B698A6940EADE0040EA71
:1051E000DC0040EAD30040EAD200CA6940EAD200BB
:1051F000096A40EA1111079808430790079808992F
:1052000009680860089908684AF6F832CAF2FD721F
:1052100010444CF6CD42CCF6CC42A0FB02026FF01B
:10522000030000EA9200C8650898FCF771FD04903D
:105230000898C06D00F01F01012088400499486063
:105240000AE00899402048650899032081F8350054
:1052500001208DF827003BE0FFE70898FCF740FEAF
:1052600008988068802804D1FFE7089900204860EA
:10527000FFE708990879096E08600898416E806E0A
:1052800048600898406888B1FFE708984068082897
:105290000CD8FFE70898FCF7DFFE0898C16E0020E5
:1052A00008600898016F406F486007E00899002087
:1052B000C8660899086708994867FFE708990020B9
:1052C0004865089A012182F835108DF82700FFE71C
:1052D0009DF827000AB080BD80B586B00490039188
:1052E0000292019300208DF80300049820B9FFE793
:1052F00001208DF8170066E1FFE7049890F834006C
:10530000012804D1FFE702208DF817005BE1049922
:10531000012081F83400FFE7FFE7049890F835009A
:10532000012840F03D81FFE70499022081F8350013
:10533000049900204865049800681021C4F2020115
:10534000884200F08180FFE7049800682821C4F2B9
:105350000201884278D0FFE7049800684021C4F237
:105360000201884270D0FFE7049800685821C4F217
:105370000201884268D0FFE7049800687021C4F2F7
:105380000201884260D0FFE7049800688821C4F2D7
:105390000201884258D0FFE704980068A021C4F2B7
:1053A0000201884250D0FFE704980068B821C4F297
:1053B0000201884248D0FFE70498006840F210419B
:1053C000C4F2020188423FD0FFE70498006840F22F
:1053D0002841C4F20201884236D0FFE704980068F1
:1053E00040F24041C4F2020188422DD0FFE7049808
:1053F000006840F25841C4F20201884224D0FFE71D
:105400000498006840F27041C4F2020188421BD047
:10541000FFE70498006840F28841C4F20201884224
:1054200012D0FFE70498006840F2A041C4F20201E4
:10543000884209D0FFE70498006840F2B841C4F2FE
:105440000201884207D1FFE704980168086820F04C
:105450000100086006E004980168086820F0010077
:105460000860FFE704980399029A019BFCF7F4FF98
:10547000049800681021C4F20201884200F0818083
:10548000FFE7049800682821C4F20201884278D01E
:10549000FFE7049800684021C4F20201884270D0FE
:1054A000FFE7049800685821C4F20201884268D0DE
:1054B000FFE7049800687021C4F20201884260D0BE
:1054C000FFE7049800688821C4F20201884258D09E
:1054D000FFE704980068A021C4F20201884250D07E
:1054E000FFE704980068B821C4F20201884248D05E
:1054F000FFE70498006840F21041C4F202018842BC
:105500003FD0FFE70498006840F22841C4F202014E
:10551000884236D0FFE70498006840F24041C4F268
:10552000020188422DD0FFE70498006840F25841FC
:10553000C4F20201884224D0FFE70498006840F2D8
:105540007041C4F2020188421BD0FFE70498006852
:1055500040F28841C4F20201884212D0FFE7049869
:10556000006840F2A041C4F20201884209D0FFE77E
:105570000498006840F2B841C4F20201884207D1A1
:10558000FFE704980168086840F00100086006E041
:1055900004980168086840F001000860FFE70DE02A
:1055A000FFE70499002081F83400FFE704994FF4E5
:1055B0000060486501208DF80300FFE79DF80300B7
:1055C0008DF81700FFE79DF8170006B080BD0000BA
:1055D00080B588B0069005910492039300208DF861
:1055E0000B00069820B9FFE701208DF81F005AE252
:1055F000FFE7069890F83400012804D1FFE7022065
:105600008DF81F004FE20699012081F83400FFE772
:10561000FFE7069890F83500012840F03182FFE757
:105620000699022081F83500069900204865069801
:1056300000681021C4F20201884200F08180FFE777
:10564000069800682821C4F20201884278D0FFE75A
:10565000069800684021C4F20201884270D0FFE73A
:10566000069800685821C4F20201884268D0FFE71A
:10567000069800687021C4F20201884260D0FFE7FA
:10568000069800688821C4F20201884258D0FFE7DA
:1056900006980068A021C4F20201884250D0FFE7BA
:1056A00006980068B821C4F20201884248D0FFE79A
:1056B0000698006840F21041C4F2020188423FD0CF
:1056C000FFE70698006840F22841C4F202018842D0
:1056D00036D0FFE70698006840F24041C4F202016C
:1056E00088422DD0FFE70698006840F25841C4F286
:1056F0000201884224D0FFE70698006840F270411A
:10570000C4F2020188421BD0FFE70698006840F20D
:105710008841C4F20201884212D0FFE7069800686F
:1057200040F2A041C4F20201884209D0FFE7069886
:10573000006840F2B841C4F20201884207D1FFE795
:1057400006980168086820F00100086006E00698E5
:105750000168086820F001000860FFE706980599D5
:10576000049A039BFCF778FE06980168012010223A
:10577000C4F202029142019000F0A380FFE7069874
:10578000016801202822C4F202029142019000F037
:105790009880FFE70698016801204022C4F20202C7
:1057A0009142019000F08D80FFE70698016801208A
:1057B0005822C4F202029142019000F08280FFE779
:1057C0000698016801207022C4F202029142019001
:1057D00077D0FFE70698016801208822C4F2020210
:1057E000914201906DD0FFE7069801680120A02248
:1057F000C4F202029142019063D0FFE7069801686B
:105800000120B822C4F202029142019059D0FFE770
:1058100006980168012040F21042C4F2020291424F
:1058200001904ED0FFE706980168012040F228421F
:10583000C4F202029142019043D0FFE7069801684A
:10584000012040F24042C4F202029142019038D05D
:10585000FFE706980168012040F25842C4F20202B4
:10586000914201902DD0FFE706980168012040F297
:105870007042C4F202029142019022D0FFE70698E2
:105880000168012040F28842C4F202029142019074
:1058900017D0FFE706980168012040F2A042C4F249
:1058A0000202914201900CD0FFE7069800684FF683
:1058B0004831CBF6FD710844B0FA80F04009019000
:1058C000FFE70198C007A8B1FFE7069800680068E5
:1058D0000B2161F344000699096808600698006C82
:1058E00038B1FFE706980168086840F008000860D2
:1058F000FFE714E0069800680068052161F34300A3
:105900000699096808600698006C38B1FFE70698A8
:105910000168086840F004000860FFE7FFE70698A8
:10592000006E0068C003002807D5FFE70698016EE7
:10593000086840F480700860FFE70698C06E38B1D0
:10594000FFE70698C16E086840F480700860FFE7C2
:10595000069800681021C4F20201884200F081809C
:10596000FFE7069800682821C4F20201884278D037
:10597000FFE7069800684021C4F20201884270D017
:10598000FFE7069800685821C4F20201884268D0F7
:10599000FFE7069800687021C4F20201884260D0D7
:1059A000FFE7069800688821C4F20201884258D0B7
:1059B000FFE706980068A021C4F20201884250D097
:1059C000FFE706980068B821C4F20201884248D077
:1059D000FFE70698006840F21041C4F202018842D5
:1059E0003FD0FFE70698006840F22841C4F2020168
:1059F000884236D0FFE70698006840F24041C4F282
:105A0000020188422DD0FFE70698006840F2584115
:105A1000C4F20201884224D0FFE70698006840F2F1
:105A20007041C4F2020188421BD0FFE7069800686B
:105A300040F28841C4F20201884212D0FFE7069882
:105A4000006840F2A041C4F20201884209D0FFE799
:105A50000698006840F2B841C4F20201884207D1BA
:105A6000FFE706980168086840F00100086006E05A
:105A700006980168086840F001000860FFE70DE043
:105A8000FFE70699002081F83400FFE706994FF4FC
:105A90000060486501208DF80B00FFE79DF80B00C2
:105AA0008DF81F00FFE79DF81F0008B080BD0000C3
:105AB00080B58CB000200B900A9009900890079058
:105AC00041F68C20C2F20040006808B1FFE792E086
:105AD00041F68C21C2F2004101200860FFE744F248
