:0200000490006A
:10000000C8830124E1030090E90300908D03009070
:100010008D030090EF030090F103009000000000BA
:10002000000000000000000000000000F30300904A
:10003000F503009000000000DB020090A1F80090A2
:10004000FB030090FB030090FB030090FB03009078
:10005000FB030090FB030090192300907123009094
:1000600089230090A1230090B9230090FB03009006
:10007000FB030090FB030090FB030090FB03009048
:10008000FB030090FB030090FB030090FB03009038
:10009000FB030090FB030090FB030090D123009032
:1000A000FB030090FB030090FB030090FB03009018
:1000B000FB030090FB030090FB030090FB03009008
:1000C000FB030090FB030090FB030090FB030090F8
:1000D000FB030090FB030090FB030090FB030090E8
:1000E00031230090FB03009000000000FB03009010
:1000F000FB030090FB030090FB030090FB030090C8
:10010000FB030090D1F10090FB030090FB030090F3
:1001100079070190FB030090FB030090FB03009024
:10012000FB03009039170090FB030090FB03009045
:10013000FB030090FB030090FB030090FB03009087
:1001400000000000000000000000000000000000AF
:10015000FB030090FB030090FB030090FB03009067
:10016000FB030090FB030090FB030090FB03009057
:10017000FB030090FB03009079120090FB030090BA
:10018000FB030090FB030090FB030090FB03009037
:10019000FB030090FB030090FB030090FB03009027
:1001A00099CB0090FB030090FB030090FB030090B1
:1001B000FB030090FB030090FB030090FB03009007
:1001C000FB030090FB030090FB030090FB030090F7
:1001D000FB030090FB030090FB030090FB030090E7
:1001E000FB030090FB030090FB030090FB030090D7
:1001F000FB030090FB030090FB030090FB030090C7
:10020000FB030090FB030090FB030090FB030090B6
:10021000FB030090FB030090FB030090FB030090A6
:10022000FB03009099BD009089CE00900000000073
:10023000F1F10090FB03009000000000FB03009030
:10024000FB030090FB030090FB030090FB03009076
:10025000FB030090FB030090FB030090FB03009066
:10026000FB030090FB030090FB030090FB03009056
:10027000FB030090FB030090FB03009000000000D4
:10028000FB030090FB030090FB03009000000000C4
:1002900000000000FB030090DFF80CD000F070FCC1
:1002A00000480047F90C0090C8830124EFF3108048
:1002B00072B6704780F310887047424A1368012B6A
:1002C00004D04FF0010313603F4A10603F4A1160B1
:1002D0003F484FF0805101607047EFF3108272B6D3
:1002E0003848016851B34FF0000101603648016899
:1002F00091B1EFF309811EF0100F08BF21ED108BB3
:1003000021E9F00F4FF000041EF0100F08BF012488
:1003100041F8044D006801602C490968096808C962
:10032000B1E8F00F002B18BFB1EC108B81F30988F6
:100330004EF0100E002B18BF2EF0100E82F3108816
:100340004EF0040E704721490860EFF3148222F04A
:10035000040282F314881C494FF000000860194918
:100360004FF0010008601B481B49D0F8002041EA0B
:100370000201016016484FF0805101601748006883
:10038000006880F3088861B662B670471EF0040FFB
:100390000CBFEFF30880EFF3098020E9F00F40F87D
:1003A00004ED40F804ED1EF0040F0CBF80F3088844
:1003B00080F3098800B582F0D3FC5DF804EB4EF0C1
:1003C000040E70472C6F0124606B01246C6B0124B8
:1003D00004ED00E020ED00E00000FFFF08ED00E08C
:1003E0000648804706480047FEE7FEE7FEE7FEE7CF
:1003F000FEE7FEE7FEE7FEE7FEE7FEE7B9F800905E
:10040000990200902DE9F05F0546002092469B4638
:1004100088460646814640241BE02846414647461A
:10042000224600F07AF953465A46C01A914110D339
:1004300011461846224600F061F92D1A67EB0108B3
:100440004F4622460120002100F058F917EB000921
:100450004E41201EA4F10104DFDC484631462A4605
:100460004346BDE8F09FA0F14101192900D8203092
:10047000704700000649074A0868504343F23902B2
:100480001044086040087047014908607047000048
:10049000980000246D4EC64110B5431A934209D20C
:1004A0008318881803E010F8011D03F8011D521E7F
:1004B000F9D210BD40EA01039B0703D009E008C947
:1004C000121F08C0042AFAD203E011F8013B00F819
:1004D000013B521EF9D210BDD2B201E000F8012B4F
:1004E000491EFBD270470022F6E710B513460A46B4
:1004F00004461946FFF7F0FF204610BD421E12F8D1
:10050000013F002BFBD111F8013B02F8013B002B0E
:10051000F9D1704730B505462A460B4612F8010B53
:1005200013F8014B08B1A042F8D01CB1002802D04A
:100530006D1CF1E7284630BD10B5044604E00B7889
:1005400000F8013B03B1491C521EF8D2204610BDF1
:10055000CAB2401E10F8011F8A4202D00029F9D108
:1005600000207047421C10F8011B0029FBD1801AA3
:10057000704710B5002200E0521C835C8C5CA342E3
:1005800001D1002BF8D1D8B2E1B2401A10BD30B57C
:1005900004460020034600E05B1C934203D2E05C6B
:1005A000CD5C401BF8D030BD034611F8012B00F89C
:1005B000012B002AF9D11846704730B505460020B6
:1005C000034600E05B1C934205D2EC5CC85C201A39
:1005D00001D1002CF6D130BD0022CBB20178994276
:1005E00000D10246401C0029F8D11046704730B5B2
:1005F00003461D783DB10A4612F8014B1CB1AC42CE
:10060000FAD15B1CF5E7181A30BD30B5054600205D
:1006100008E00A4602E0A34207D0521C1378002BE0
:10062000F9D1401C2C5C002CF3D130BD2DE9F047F2
:1006300091460F4680460446002614F8015B2DB112
:1006400000F07CF80068405DC007F6D12B2D02D089
:100650002D2D18D0641E4A463946204600F072F807
:1006600027B13968A14201D1C7F8008071054FF068
:1006700002040BD54042002803DDA8F07DFE046093
:10068000A007BDE8F08746F48066E4E70028F8DAC2
:10069000A8F072FE04606FF00040F2E770B5064605
:1006A000A8F06AFE046805460A2200213046FFF7DA
:1006B000BDFF2C6070BD70B50646A8F05DFE0468F5
:1006C00005460A2200213046FFF7B0FF2C6070BDBE
:1006D00030B50B46014600202022012409E021FA12
:1006E00002F59D4205D303FA02F5491B04FA02F50F
:1006F0002844151EA2F10102F1DC30BD202A04DBE2
:10070000203A00FA02F1002070479140C2F1200324
:1007100020FA03F3194390407047202A04DB203A63
:1007200021FA02F00021704721FA02F3D040C2F111
:100730002002914008431946704700000048704766
:10074000CC2A0B902DE9F05F8246007800271546F1
:100750008B460AF10104B946302801D09DB113E05F
:1007600014F8010B0127782803D0582801D045B18F
:100770000AE00DB1102D07D10027102514F8010B48
:1007800002E0082500E00A250026B0460EE005FB41
:10079000080005FB06F1012701EB10461FFA80F85F
:1007A000B6F5803F00D3B94614F8010B294600F096
:1007B0000BFA0028EBDABBF1000F05D00FB1641E75
:1007C00000E05446CBF80040B9F1000F06D0A8F085
:1007D000D3FD02210160C81EBDE8F09F48EA064033
:1007E000FAE72DE9FE4F804681EA0300C00F0C4670
:1007F000009021F0004123F00045B8EB0200A94130
:1008000005D24046214690461C460B46024623F040
:100810000040104347D0270DC7F30A00C3F30A5125
:100820000290401A019040286BDAC3F3130040F4A1
:10083000801B0098924620B10023D2EB030A63EBA1
:100840000B0B01985946C0F140025046FFF756FF86
:1008500006460D4650465946019A00F0A3F910EBA2
:1008600008006141002487EA115284EAE7731A43C1
:1008700040D0009A62B3019A012A4FEA075215DC70
:10088000001B61EB02014FF0004202EA0752CDE982
:100890000042001C41F5801132462B4600F0B1F9B0
:1008A00003B0BDE8F08F40462146F9E7001B61EB3D
:1008B0000201001C41F5801300185B412018A2F5CD
:1008C000001747EB030140EAD570B6196D4111E0FE
:1008D0006D084FEA360645EAC0754FEA0752001B1D
:1008E00061EB0201001C41F5801149084FEA30001C
:1008F0000019514132462B4603B0BDE8F04F00F0DD
:1009000071B90098012240000023D0EB020263EB92
:10091000E073009821464FEAE074B8EB000061EB09
:100920000401E9E783F000435BE781F0004158E709
:100930002DE9FE4F81EA030404F0004421F0004158
:1009400000944FF0000B23F0004350EA01045ED006
:1009500052EA03045BD0C3F30A54C1F30A552C4492
:10096000A4F2F3340194A0FB0254C1F3130141F447
:100970008011C3F3130343F4801301FB024400FB13
:10098000034E840A970A44EA815447EA8357A4FB3A
:10099000076802958D0A05FB07854FEA932C04FB37
:1009A0000C542705029D4FEA065847EA1637B5EB67
:1009B00008056EEB070C870E920E47EA811742EA94
:1009C0008312A7FB0201B6EB0B0164EB00042B0DB5
:1009D00043EA0C335E1844EB1C50DA465146E7FB01
:1009E0000201C5F313044FEA0B3343EA14534FEAF1
:1009F0000432019C43EA0603A4F10C040294009C17
:100A0000CDE900B400F0FDF803B0BDE8F08F0020A0
:100A10000146F9E72DE9F04D81EA030404F0004BAB
:100A200021F0004514464FF0000A23F0004150EA3F
:100A3000050220D054EA01021DD0C5F30A57024630
:100A4000C5F31303C1F31300C1F30A5640F4801534
:100A500043F48013A7EB0608101BD64608F2FD38B6
:100A600073EB050002D308F1010801E092185B4125
:100A7000B8F1000F03DA00200146BDE8F08D002038
:100A80004FF48011064684460EE0171B73EB0507F2
:100A900005D3121B63EB050306434CEA010C49081E
:100AA0004FEA300092185B4150EA0107EDD152EA5B
:100AB000030012D082EA040083EA0501084305D04E
:100AC000101BAB4106D20122002306E000224FF0AA
:100AD000004302E06FF0010253101AEB06004CEBEA
:100AE000085110EB0A0041EB0B01BDE8F04D00F09E
:100AF00079B870B521F0004303430CD0C1F30A5517
:100B00000024D5EB040564EB0403D617AD1AB341FA
:100B100002DB0020014670BD201841EB025170BD80
:100B2000C1F30A52C1F3130140F2FF3341F48011C3
:100B30009A4202DA00200146704740F233439A425B
:100B4000A2F2334202DC5242FFF7E7BDFFF7D6BD07
:100B500030B5041E71F1000404DB4FF00044404244
:100B600064EB0101141E73F1000405DB1C464FF019
:100B70000043524263EB0403994208BF904230BDE8
:100B8000064C074D06E0E06840F0010394E80700DA
:100B900098471034AC42F6D3FFF782FB1C830F90CA
:100BA0003C830F90202A06DBCB17203A41FA02F053
:100BB00043EAE07306E041FA02F3D040C2F12002BA
:100BC00091400843194670473A2800D2303820F047
:100BD0002002412A01D3A2F13700884201D34FF00D
:100BE000FF30704710B5141E73F1000408DA401C82
:100BF00041F1000192185B411A4301D120F001003C
:100C000010BD2DE9F04D92469B4611B1B1FA81F22B
:100C100002E0B0FA80F220329046FFF76FFD044602
:100C20000F4640EA0A0041EA0B0153465A46084380
:100C300013D0114653EA010019D0C8F140025046C2
:100C4000FFF76BFD05460E46504659464246FFF7F4
:100C500055FD084305D0012004E020463946BDE893
:100C6000F08D0020054346EAE0762C4337430A988E
:100C70006305E40AA0EB08000022FD0A44EA475499
:100C80000A3002D500200146E9E701051019694143
:100C9000DDE9084500196941BDE8F04DA2E770B5EE
:100CA0008C1810F8015B15F0070301D110F8013B17
:100CB0002A1106D110F8012B03E010F8016B01F89E
:100CC000016B5B1EF9D12B0705D40023521E0DD4F6
:100CD00001F8013BFAE710F8013BCB1A921C03E044
:100CE00013F8015B01F8015B521EF9D5A142D8D37C
:100CF000002070BD0000000080B58FF01DFA0020BC
:100D000080BD00000000000083B00290019100202F
:100D1000ADF80200FFE701980138019000282ED4B9
:100D2000FFE7BDF8020002994A1C0292097880EAA6
:100D30000120ADF8020008208DF80100FFE7BDF8A2
:100D400002000004002809D5FFE7BDF8021041F2B7
:100D5000210080EA4100ADF8020005E0BDF8020084
:100D60004000ADF80200FFE7FFE79DF80100013801
:100D70008DF8010000060028E1D1FFE7CBE7BDF8C0
:100D8000020003B07047000080B5022082F0D4FD5D
:100D900080BD00000000000080B584B040F200403B
:100DA000C5F602000190402102910022039203F057
:100DB000CFFF0198039A016821F440410160016866
:100DC00041F480410160802103F0C2FFFFF7DCFFA6
:100DD00001980299012203F0BBFFFFF7D5FF0198AC
:100DE0000299039A03F0B4FF04B080BD0000000034
:100DF00080B586B0FFE744F2E040C5F60200016826
:100E000041F002010160006800F0020000900098CB
:100E1000FFE7C0200190012002900390032004907E
:100E200040F20040C5F6020001A903F095FD06B0AE
:100E300080BD00000000000080B584B040F200409A
:100E4000C5F602000190402102910022039203F0B6
:100E50007FFF0198016821F440410160016841F47D
:100E60008041016080210122009203F071FFFFF7B1
:100E70008BFF009A0198029903F06AFFFFF784FF45
:100E800001980299039A03F063FF04B080BD00004B
:100E900080B584B08DF80F00002002908DF80D0011
:100EA00040F20041C5F60201086820F440400860A5
:100EB000086808601E2082F03FFD02988DF80E0041
:100EC000FFE79DF80E0007282BDCFFE740F200400B
:100ED000C5F60200019040210091002203F038FF86
:100EE000FFF752FF00990198012203F031FF0198AA
:100EF0009DF80D1049008DF80D10802103F010FFB2
:100F000030B1FFE79DF80D0001308DF80D00FFE7CF
:100F1000FFF73AFFFFE79DF80E0001308DF80E0055
:100F2000CFE79DF80F0018B9FFE7FFF785FF02E054
:100F3000FFF732FFFFE79DF80D0004B080BD000011
:100F400080B584B08DF80F0040F20040C5F6020075
:100F5000016821F440410160016841F48041016071
:100F600040210022029203F0F3FE02988DF80E0059
:100F7000FFE79DF80E0007283ADCFFE79DF80F1009
:100F80000020B0EBD11F09D0FFE740F20040C5F6CA
:100F900002008021012203F0DBFE08E040F2004065
:100FA000C5F602008021002203F0D2FEFFE79DF883
:100FB0000F0040008DF80F00FFF7E6FE40F2004002
:100FC000C5F60200009040210191012203F0C0FE0D
:100FD000FFF7DAFE00980199002203F0B9FEFFF74F
:100FE000D3FEFFE79DF80E0001308DF80E00C0E73C
:100FF00004B080BD0000000080B586B040F2004023
:10100000C5F602000390016821F4404101600168C7
:1010100041F480410160802102910122019203F09C
:1010200097FE019A03984021049103F091FE1E203F
:1010300082F082FC029903980022059203F088FE58
:10104000FFF7A2FE03980499059A03F081FE06B00B
:1010500080BD00000000000080B586B040F2004076
:10106000C5F602000390016821F440410160016867
:1010700041F480410160402102910022019203F07D
:1010800067FE019A03988021049103F061FE1E20FF
:1010900082F052FC029903980122059203F058FE57
:1010A000FFF772FE03980499059A03F051FE06B00B
:1010B00080BD00000000000080B584B000208DF8E5
:1010C0000E0040F20040C5F602000190016821F4D4
:1010D000404101600168016080210122029203F019
:1010E00037FE0198029A402103F032FEFFF74CFED2
:1010F000FFE740F20040C5F60200802103F010FE39
:1011000098B1FFE79DF80E0001308DF80E009DF8B4
:101110000E00FB2806DBFFE7FFF79EFF01208DF89E
:101120000F000FE0FFF730FEE3E740F20040C5F6A6
:10113000020040210022009203F00AFE00988DF880
:101140000F00FFE79DF80F0004B080BD0000000015
:1011500080B586B005908DF8131003920520042108
:1011600000F056F801200021019112F0A5FD0A209F
:1011700080210EF051FB01988DF80B00FFE79DF8E0
:101180000B009DF8131088420EDAFFE705989DF8D2
:101190000B10415C092012F08FFDFFE79DF80B005A
:1011A00001308DF80B00EAE70120032112F084FDE5
:1011B000FF208DF80B00FFE705200DF0A1FE8DF854
:1011C0000A009DF80B0001388DF80B00FFE79DF831
:1011D0000B100020009049B1FFE79DF80A0000F0D5
:1011E0000401012080EA91000090FFE70098C00709
:1011F0000028E1D1FFE722200DF082FE039908705C
:1012000021200DF07DFE0399487006B080BD0000DE
:1012100080B582B08DF807008DF806109DF80700A4
:101220000DF06EFE8DF805009DF807009DF8051085
:101230009DF80620914312F03FFD02B080BD0000F2
:1012400080B582B001900198806B00900098806C0E
:10125000406D02280AD0FFE70099012081F835008F
:101260000099C86C40F04000C864FFE7009801F0A6
:10127000DBFC02B080BD000080B582F0ADFD46F61B
:10128000B820C2F2014001F0E7FC82F0DDFD80BD34
:101290004CF61020C2F2004000681021C4F2020196
:1012A000884200F0B280FFE74CF61020C2F2004006
:1012B00000682821C4F20201884200F0A680FFE7FE
:1012C0004CF61020C2F2004000684021C4F2020136
:1012D000884200F09A80FFE74CF61020C2F20040EE
:1012E00000685821C4F20201884200F08E80FFE7B6
:1012F0004CF61020C2F2004000687021C4F20201D6
:10130000884200F08280FFE74CF61020C2F20040D5
:1013100000688821C4F20201884276D0FFE74CF6CB
:101320001020C2F200400068A021C4F202018842ED
:101330006BD0FFE74CF61020C2F200400068B821E5
:10134000C4F20201884260D0FFE74CF61020C2F2DE
:101350000040006840F21041C4F20201884254D0BB
:10136000FFE74CF61020C2F20040006840F228412E
:10137000C4F20201884248D0FFE74CF61020C2F2C6
:101380000040006840F24041C4F2020188423CD073
:10139000FFE74CF61020C2F20040006840F25841CE
:1013A000C4F20201884230D0FFE74CF61020C2F2AE
:1013B0000040006840F27041C4F20201884224D02B
:1013C000FFE74CF61020C2F20040006840F288416E
:1013D000C4F20201884218D0FFE74CF61020C2F296
:1013E0000040006840F2A041C4F2020188420CD0E3
:1013F000FFE74CF61020C2F20040006840F2B8410E
:10140000C4F2020188420AD1FFE74CF61020C2F272
:1014100000400168086840F00100086009E04CF6EF
:101420001020C2F200400168086840F00100086026
:10143000FFE70021C4F60201086840F001000860DF
:1014400070470000000000000021C4F60201086897
:1014500020F001000860FFE70020C4F602000068E9
:10146000C00708B1FFE7F7E74CF61020C2F20040D2
:1014700000681021C4F20201884200F0B280FFE748
:101480004CF61020C2F2004000682821C4F202018C
:10149000884200F0A680FFE74CF61020C2F2004020
:1014A00000684021C4F20201884200F09A80FFE700
:1014B0004CF61020C2F2004000685821C4F202012C
:1014C000884200F08E80FFE74CF61020C2F2004008
:1014D00000687021C4F20201884200F08280FFE7B8
:1014E0004CF61020C2F2004000688821C4F20201CC
:1014F000884276D0FFE74CF61020C2F20040006828
:10150000A021C4F2020188426BD0FFE74CF6102004
:10151000C2F200400068B821C4F20201884260D0E3
:10152000FFE74CF61020C2F20040006840F2104184
:10153000C4F20201884254D0FFE74CF61020C2F2F8
:101540000040006840F22841C4F20201884248D0BD
:10155000FFE74CF61020C2F20040006840F2404124
:10156000C4F2020188423CD0FFE74CF61020C2F2E0
:101570000040006840F25841C4F20201884230D075
:10158000FFE74CF61020C2F20040006840F27041C4
:10159000C4F20201884224D0FFE74CF61020C2F2C8
:1015A0000040006840F28841C4F20201884218D02D
:1015B000FFE74CF61020C2F20040006840F2A04164
:1015C000C4F2020188420CD0FFE74CF61020C2F2B0
:1015D0000040006840F2B841C4F2020188420AD1DA
:1015E000FFE74CF61020C2F200400168086820F0C6
:1015F0000100086009E04CF61020C2F200400168CA
:10160000086820F001000860FFE770470000000054
:1016100010B584B08C4686460998089807980699B4
:10162000CDF80CE0CDF808C0ADF80620ADF80430D8
:10163000ADF80210ADF8000040F23411C2F20041E2
:1016400001200860BDF8020000F00F014CF6404098
:10165000C2F200400160006848B1FFE74CF640412B
:10166000C2F200410868C0F110000860FFE702986C
:10167000BDF80410BDF80220BDF8063001FB0231B0
:1016800000EB81014BF2E820C2F20040016041F220
:101690000001C5F200214FF481320A6041F240039B
:1016A000C5F2002300221A60089A41F23403C5F201
:1016B00000231A6040F23412C2F2004213680B2277
:1016C000CFF6017242EA834241F21C03C5F20023C5
:1016D0001A604CF64042C2F20042126841F2100316
:1016E000C5F200231A60BDF80230BDF8002042EABE
:1016F000034241F24403C5F200231A60006841F23C
:101700003C02C5F200221060039841F20C02C5F2BF
:1017100000221060086840F001000860FFE741F215
:101720000000C5F200200068C00708B1FFE7F6E737
:1017300004B010BD0000000080B588B082F04CFB02
:101740004CF61020C2F20040006840F2B941C4F2E9
:101750000201884209D3FFE745F20040C5F60200C6
:10176000006800F4006007904CE04CF61020C2F2D4
:101770000040006840F25941C4F20201884209D396
:10178000FFE740F20440C4F20200006800F4006089
:10179000069034E04CF61020C2F200400068B921F7
:1017A000C4F20201884209D3FFE740F20040C4F2CC
:1017B0000200006800F4006005901DE04CF6102067
:1017C000C2F2004000685921C4F20201884208D3E5
:1017D000FFE70420C4F20200006800F400600490F7
:1017E00007E00020C4F20200006800F400600490EA
:1017F000FFE704980590FFE705980690FFE7069835
:101800000790FFE70798002865D0FFE74CF6102007
:10181000C2F20040006840F2B941C4F202018842BD
:1018200008D3FFE745F20441C5F602014FF400601A
:1018300008604BE04CF61020C2F20040006840F215
:101840005941C4F20201884209D3FFE740F20C413A
:10185000C4F202014FF400600860039034E04CF6DB
:101860001020C2F200400068B921C4F2020188428F
:1018700009D3FFE740F20841C4F202014FF40060CF
:10188000086002901DE04CF61020C2F20040006893
:101890005921C4F20201884208D3FFE70C21C4F2A7
:1018A00002014FF400600860019007E00821C4F2D3
:1018B00002014FF4006008600190FFE70198029078
:1018C000FFE702980390FFE70398FFE71FF0F8FA9D
:1018D0000DF03EFBFFE782F0B7FA08B080BD0000D4
:1018E00083B002900298016801201022C4F2020223
:1018F0009142009000F0A380FFE702980168012068
:101900002822C4F202029142009000F09880FFE782
:101910000298016801204022C4F202029142009024
:1019200000F08D80FFE70298016801205822C4F280
:1019300002029142009000F08280FFE70298016865
:1019400001207022C4F202029142009077D0FFE79A
:101950000298016801208822C4F20202914200909C
:101960006DD0FFE7029801680120A022C4F20202B4
:101970009142009063D0FFE7029801680120B822ED
:10198000C4F202029142009059D0FFE70298016828
:10199000012040F21042C4F20202914200904ED067
:1019A000FFE702980168012040F22842C4F20202D7
:1019B0009142009043D0FFE702980168012040F275
:1019C0004042C4F202029142009038D0FFE70298F0
:1019D0000168012040F25842C4F202029142009094
:1019E0002DD0FFE702980168012040F27042C4F256
:1019F00002029142009022D0FFE702980168012084
:101A000040F28842C4F202029142009017D0FFE7F0
:101A100002980168012040F2A042C4F20202914201
:101A200000900CD0FFE7029800684FF64831CBF6E3
:101A3000FD710844B0FA80F040090090FFE700987B
:101A4000C00740B3FFE70298007810384AF6AB2190
:101A5000CAF6AA21A0FB011000090190019800F02C
:101A6000070143F22010C9F20B00405C0299C865DF
:101A70000198042807D3FFE702990868042262F35B
:101A80000900886506E00299086840F2FF32904339
:101A90008865FFE705E00299086820F0FF00886587
:101AA000FFE70298806D03B070470000000000005F
:101AB00084B00390039800680190039801680120A6
:101AC00045F20842C5F60202914200904ED0FFE76F
:101AD00003980168012045F21C42C5F602029142BA
:101AE000009043D0FFE703980168012045F230429F
:101AF000C5F602029142009038D0FFE703980168D2
:101B0000012045F24442C5F60202914200902DD0D8
:101B1000FFE703980168012045F25842C5F602022A
:101B20009142009022D0FFE703980168012045F21E
:101B30006C42C5F602029142009017D0FFE703986D
:101B40000168012045F28042C5F6020291420090F0
:101B50000CD0FFE7039800684AF66C31CAF2FD71B9
:101B60000844B0FA80F040090090FFE70098C007F1
:101B700010B3FFE70398007808384CF6CD41CCF657
:101B8000CC41A0FB011000090290029945F600002B
:101B9000C5F6020000EB810003990866039945F63B
:101BA0008000C5F602004866029800F01F0101207F
:101BB00088400399886635E00398007810384AF623
:101BC000AB21CAF6AA21A0FB0110000902900198DE
:101BD00040F2B841C4F2020188420CD8FFE70198F4
:101BE00040F21041C4F20201884204D3FFE7029898
:101BF00008300290FFE7029940F60000C4F20200AC
:101C000000EB810003990866039940F68000C4F256
:101C100002004866029800F01F01012088400399E5
:101C20008866FFE704B0704783B00290029800799D
:101C300001900198002800F08A80FFE701980828A9
:101C400000F28580FFE702980168012045F2084212
:101C5000C5F60202914200904ED0FFE7029801685B
:101C6000012045F21C42C5F602029142009043D089
:101C7000FFE702980168012045F23042C5F60202F2
:101C80009142009038D0FFE702980168012045F2A8
:101C90004442C5F60202914200902DD0FFE702981F
:101CA0000168012045F25842C5F6020291420090B7
:101CB00022D0FFE702980168012045F26C42C5F688
:101CC00002029142009017D0FFE7029801680120BC
:101CD00045F28042C5F60202914200900CD0FFE727
:101CE000029800684AF66C31CAF2FD710844B0FAF5
:101CF00080F040090090FFE70098C00780B1FFE73F
:101D0000019945F6FC00C5F6020000EB810002993E
:101D1000C866029945F64010C5F6020008670FE054
:101D2000019940F6FC00C4F2020000EB8100029928
:101D3000C866029940F64010C4F202000867FFE747
:101D40000198411E0120884002994867FFE703B0CF
:101D5000704700000000000085B0049000208DF85E
:101D60000F000498806918BBFFE70498806A02900E
:101D700003281BD80299DFE801F0020D021804982D
:101D800090F82F00C00720B1FFE701208DF80F0069
:101D9000FFE70CE00498C06AB0F1C07F04D1FFE710
:101DA00001208DF80F00FFE701E000E0FFE747E0CA
:101DB00004988069B0F5005F26D1FFE70498806A37
:101DC000019003281ED80199DFE801F002060211F4
:101DD00001208DF80F0016E0049890F82F00C0073E
:101DE00020B1FFE701208DF80F00FFE70BE004981A
:101DF000C06AB0F1C07F04D1FFE701208DF80F0069
:101E0000FFE700E0FFE71AE00498806A00900328EB
:101E100004D3FFE70098032804D00EE001208DF8DA
:101E20000F000BE0049890F82F00C00720B1FFE7E7
:101E300001208DF80F00FFE700E0FFE7FFE7FFE775
:101E40009DF80F0005B0704785B004900391029291
:101E500001930498016801201022C4F20202914209
:101E6000009000F0A380FFE7049801680120282279
:101E7000C4F202029142009000F09880FFE70498BB
:101E8000016801204022C4F202029142009000F059
:101E90008D80FFE70498016801205822C4F20202F5
:101EA0009142009000F08280FFE7049801680120D1
:101EB0007022C4F202029142009077D0FFE70498AA
:101EC000016801208822C4F20202914200906DD084
:101ED000FFE7049801680120A022C4F202029142A7
:101EE000009063D0FFE7049801680120B822C4F293
:101EF00002029142009059D0FFE704980168012046
:101F000040F21042C4F20202914200904ED0FFE72C
:101F100004980168012040F22842C4F20202914272
:101F2000009043D0FFE704980168012040F240424E
:101F3000C4F202029142009038D0FFE70498016891
:101F4000012040F25842C4F20202914200902DD08A
:101F5000FFE704980168012040F27042C4F20202D7
:101F60009142009022D0FFE704980168012040F2DE
:101F70008842C4F202029142009017D0FFE7049811
:101F80000168012040F2A042C4F202029142009096
:101F90000CD0FFE7049800684FF64831CBF6FD718E
:101FA0000844B0FA80F040090090FFE70098C007AD
:101FB000E0B1FFE7019804990968486004988068D7
:101FC000402809D1FFE702980499096888600398BE
:101FD00004990968C86008E0039804990968886052
:101FE000029804990968C860FFE71BE0019804990A
:101FF0000968486004988068402809D1FFE7029882
:10200000049909688860039804990968C86008E021
:102010000398049909688860029804990968C8605F
:10202000FFE7FFE705B0704788B00790069105927B
:1020300004930798806D03900798806D029007982D
:10204000416E806E48600798C06E28B1FFE7079820
:10205000016F406F4860FFE7079801680120102278
:10206000C4F202029142019000F0A380FFE70798BA
:10207000016801202822C4F202029142019000F07E
:102080009880FFE70798016801204022C4F202020D
:102090009142019000F08D80FFE7079801680120D0
:1020A0005822C4F202029142019000F08280FFE7C0
:1020B0000798016801207022C4F202029142019047
:1020C00077D0FFE70798016801208822C4F2020256
:1020D000914201906DD0FFE7079801680120A0228E
:1020E000C4F202029142019063D0FFE707980168B1
:1020F0000120B822C4F202029142019059D0FFE7B8
:1021000007980168012040F21042C4F20202914295
:1021100001904ED0FFE707980168012040F2284265
:10212000C4F202029142019043D0FFE70798016890
:10213000012040F24042C4F202029142019038D0A4
:10214000FFE707980168012040F25842C4F20202FA
:10215000914201902DD0FFE707980168012040F2DD
:102160007042C4F202029142019022D0FFE7079828
:102170000168012040F28842C4F2020291420190BB
:1021800017D0FFE707980168012040F2A042C4F28F
:102190000202914201900CD0FFE7079800684FF6C9
:1021A0004831CBF6FD710844B0FA80F04009019047
:1021B000FFE70198C00750B3FFE70798C06D00F034
:1021C0001F013F20884003998860079801680868CC
:1021D00020F48020086004980799096848600798EF
:1021E0008068402809D1FFE7059807990968886049
:1021F000069807990968C86008E006980799096871
:102200008860059807990968C860FFE782E0079829
:102210000168012045F20842C5F602029142009091
:102220004ED0FFE707980168012045F21C42C5F631
:1022300002029142009043D0FFE707980168012015
:1022400045F23042C5F602029142009038D0FFE7D5
:1022500007980168012045F24442C5F60202914206
:1022600000902DD0FFE707980168012045F2584201
:10227000C5F602029142009022D0FFE7079801685C
:10228000012045F26C42C5F602029142009017D03F
:10229000FFE707980168012045F28042C5F6020277
:1022A000914200900CD0FFE7079800684AF66C3125
:1022B000CAF2FD710844B0FA80F040090090FFE7CF
:1022C0000098C00720B3FFE70798C06D00F01F011A
:1022D000012088400299486004980799096848607D
:1022E00007988068402809D1FFE705980799096891
:1022F0008860069807990968C86008E006980799F9
:1023000009688860059807990968C860FFE700E0D8
:10231000FFE7FFE708B0704780B581F05DFD012061
:1023200002F0FEFA81F090FD80BD00000000000088
:1023300080B581F051FD4FF4806002F0F1FA4FF466
:10234000006002F0EDFA4FF4805002F0E9FA4FF429
:10235000005002F0E5FA4FF4804002F0E1FA4FF449
:10236000004002F0DDFA81F06FFD80BD000000004A
:1023700080B581F031FD022002F0D2FA81F064FDD7
:1023800080BD00000000000080B581F025FD042024
:1023900002F0C6FA81F058FD80BD00000000000088
:1023A00080B581F019FD082002F0BAFA81F04CFDE9
:1023B00080BD00000000000080B581F00DFD102000
:1023C00002F0AEFA81F040FD80BD00000000000088
:1023D00080B581F001FD202002F0A2FA402002F039
:1023E0009FFA802002F09CFA4FF4807002F098FA75
:1023F0004FF4007002F094FA81F026FD80BD0000D9
:1024000080B583B0029001910198006800BBFFE79E
:102410000298006847F6FF718843019A009251685C
:10242000D2F808E0D2F80CC0136941EA0E0141EA83
:102430000C0119435369194393691943D36919432B
:10244000136A1943526A114308430299086025E050
:102450000298006820F4F840019AD169136A526A20
:10246000194311430843029908600298406847F6EF
:10247000FF718843019A5168D2F808E0D2F80CC085
:10248000136941EA0E0141EA0C01194353691943EA
:1024900092691143084302994860FFE7002003B0A6
:1024A00080BD00000000000082B001900091019802
:1024B000406943F6FE718843009940EA4100019962
:1024C0004861002002B0704783B0029001910092F1
:1024D000019908684A688B68C96810436FF01F0249
:1024E00002EB4312104340EA41220299086910436B
:1024F0000861002003B0704710B583B002900191CD
:1025000000920098A8BBFFE70298806800F0704036
:10251000019A11685468D2F808E0D2F80CC0013969
:102520006FF00F0303EB041319436FF0FF0303EB8A
:102530000E2319434FF20003CFF6FF7303EB0C3366
:102540001943D2F810C00023CFF6FF7303EB0C43FE
:102550001943D2F814C00023CFF6F07303EB0C53E9
:1025600019439269013A41EA02610843029988607D
:102570003CE00298806840F6FF71CFF60F7108408A
:102580000199CA684B694FF20001CFF6FF7101EB68
:1025900002310022CFF6F07202EB035211430843DE
:1025A000029988600298C06800F07040019A116832
:1025B0005468D2F808E0D2F810C001396FF00F0368
:1025C00003EB041319436FF0FF0303EB0E231943CE
:1025D0000023CFF6FF7303EB0C4319439269013AD2
:1025E00041EA026108430299C860FFE7002003B096
:1025F00010BD00000000000089B00890079106920D
:102600000698059005981F2805DCFFE7059901202D
:102610008840009002E000200090FFE70098013819
:10262000049007990320A0EB51100390079800F045
:102630001F0002900898039950F821000299C840A1
:102640000190059802990844212815DBFFE70898B6
:10265000039900EB810050F8040C0299C1F12001AC
:10266000CA1701EBD26222F01F02891A00FA01F1A7
:10267000019808430190FFE701980499084009B0C8
:10268000704700000000000089B008900791069292
:102690000698059005981F2805DCFFE7059901209D
:1026A0008840009002E000200090FFE70098013889
:1026B000049007990320A0EB51100390079800F0B5
:1026C0001F0002900898039950F821000299C84011
:1026D0000190059802990844212815DBFFE7089826
:1026E000039900EB810050F8040C0299C1F120011C
:1026F000CA1701EBD26222F01F02891A00FA01F117
:10270000019808430190FFE701980499084009B037
:10271000704700000000000080B596B0FFE744F26B
:10272000E040C5F60200016841F008010160006860
:1027300000F008000E900E98FFE7FFE744F2E0403B
:10274000C5F60200016841F040010160006800F038
:1027500040000D900D98FFE74FF4805007900F90C8
:1027600000200B90109001200490119003200890FD
:10277000129041F60000C5F602000A900FA90991D7
:1027800002F0EAF804980999082203920F92109037
:1027900040F60040C5F60200059002F0DDF8FEF7B5
:1027A00027FB059803990B9A02F0D2FA0A200690AB
:1027B00087F082FA0399049A059802F0C9FA0698FC
:1027C00087F07AFADDF81CC0089A09990B9B0A98E1
:1027D000CDF83CC010931193129202F0BDF8642022
:1027E00087F06AFA48F240100DF152010C91042270
:1027F00000F04EF80B980C998DF856004CF2CB7007
:10280000C9F20D0081F0CCFB0C984CF2D771C9F2E3
:102810000D0186F025FE90BBFFE702208DF85200E7
:1028200048F240000DF1520101910122029200F0A4
:10283000B3F90199029A48F2470000F029F89DF88F
:1028400052005F2809DCFFE79DF852104CF2BA7085
:10285000C9F20D0081F0A4FBFFE70A2087F02CFAF3
:10286000002000908DF8520048F240000DF1520116
:10287000012200F091F900988DF8570003E0002044
:102880008DF85700FFE79DF8570016B080BD000097
:1028900080B584B0ADF80E0002918DF80720FEF7E8
:1028A000ABFB2820FEF74CFBFEF706FC9DF80F0063
:1028B000FEF746FBFEF700FC9DF80E00FEF740FB1E
:1028C000FEF7FAFBFEF798FB2920FEF739FBFEF72F
:1028D000F3FB00208DF80600FFE79DF806009DF849
:1028E0000710884215DAFFE79DF806009DF80710EB
:1028F0000139401A18BF0120FEF7CAFA02999DF863
:1029000006208854FFE79DF8060001308DF8060088
:10291000E3E7FEF7A1FB04B080BD0000000000006B
:1029200080B584B08DF80F0000208DF80A008DF876
:10293000090048F24E100DF10F010122FFF7A8FF28
:102940009DF80F000006002812D5FFE79DF80F0044
:1029500000F00F0005280BDCFFE700208DF80A00CF
:1029600048F24E100DF10A01012200F015F9FFE7BF
:102970009DF80F000007002800F0D280FFE79DF8C7
:102980000F0000F00F00052800F3CA80FFE79DF854
:102990000F0000F00F014FF6FF708840ADF8060001
:1029A00040F2A061C2F20041888EADF80400BDF88B
:1029B00006204FF4404060EA0200888688898882B9
:1029C000088C088500208DF80A00FFE79DF80A00B2
:1029D000002862DCFFE740F2A060C2F20040808E77
:1029E0009DF80A10C840C00700284FD0FFE79DF8A7
:1029F0000A1043F22810C9F20B0030F811000DF153
:102A00000B010422FFF744FF40F2A060C2F2004035
:102A100090F84400C007D8B1FFE79DF80B009DF87F
:102A20000C1040EA01209DF80A2040F2A061C2F299
:102A3000004101EB420290819DF80D009DF80E20AF
:102A400040EA02209DF80A2001EB420108841CE0C4
:102A50009DF80B009DF80C1040EA01209DF80A201B
:102A600040F2A061C2F2004101EB420210849DF8E5
:102A70000D009DF80E2040EA0220C0F588709DF8F8
:102A80000A2001EB42018881FFE7FFE7FFE79DF89D
:102A90000A0001308DF80A0098E701208DF809003E
:102AA00040F2A060C2F200408089B0F5F07F09DCFE
:102AB000FFE740F2A060C2F20040008CB0F5887FD2
:102AC00026DDFFE79DF80F0000F00F0002280FDB66
:102AD000FFE740F2A061C2F20041C8898881488CBA
:102AE000088441F63621C2F20041002008700EE051
:102AF00040F2A061C2F20041888A8881088D088472
:102B000080208DF80F00BDF804008886FFE706E0FE
:102B100041F63621C2F2004100200870FFE7FFE7CE
:102B20009DF80F0000F08F00802820D1FFE740F2D1
:102B3000A060C2F20040808E0004002809D5FFE7A3
:102B400040F2A061C2F20041888E6FF3DF308886C8
:102B50000CE040F2A061C2F200414FF6FF708881A4
:102B60000884888E00F460408886FFE7FFE741F61E
:102B70003620C2F200400078F12807DBFFE741F67B
:102B80003621C2F200410A200870FFE79DF80900D3
:102B900004B080BD0000000080B584B0ADF80E0028
:102BA00002918DF80720002000908DF80500FEF7B7
:102BB00023FA2820FEF7C4F9FEF77EFA9DF80F00ED
:102BC000FEF7BEF9FEF778FA9DF80E00FEF7B8F9A9
:102BD000FEF772FA00988DF80600FFE79DF80600F0
:102BE0009DF80710884216DAFFE702989DF8061054
:102BF000405CFEF7A5F9FEF75FFA8DF805009DF839
:102C0000050008B1FFE706E0FFE79DF80600013088
:102C10008DF80600E2E7FEF71FFA9DF8050004B004
:102C200080BD00000000000081B0009001B070473E
:102C300080B582B0019081F0CFF846F6B820C2F29C
:102C400001400168C86840F00100C8601EF0A0F9AA
:102C500081F0FAF802B080BD80B582B00190019891
:102C60000068006900909DF800004007002818D512
:102C7000FFE70198016804204861019AD16C41F096
:102C80000201D164019981F835000198816C41F20B
:102C90004120C9F2000008650198806C00F03CFBFF
:102CA000FFE79DF800008007002819D5FFE701988D
:102CB0000168022048610199C86C40F00100C864B5
:102CC0000199042081F835000198816C41F241207E
:102CD000C9F2000008650198806C00F01DFBFFE759
:102CE0009DF80000C006002808D5FFE7019801689C
:102CF00010204861019800F093F8FFE79DF800006C
:102D00000007002808D5FFE70198016808204861FE
:102D1000019800F029F9FFE79DF80000C007E0B135
:102D2000FFE70198006800688007002807D5FFE7E3
:102D300001980168C86820F01E00C860FFE701988C
:102D40000168C86820F00100C8600198016801208E
:102D500048610198FFF76CFFFFE702B080BD0000FB
:102D600080B584B00290029820B9FFE701208DF869
:102D70000F0050E0029890F8350020B9FFE7029864
:102D800000F052F8FFE70299022081F8350002981E
:102D9000016808684FF20702CFF6E0721040086041
:102DA000029A0192D2F814E0116850689368D2F840
:102DB0000CC040EA0E0040EA0C00D2F810C040EA15
:102DC0000C00184393691843136A1843536A184355
:102DD000936A1843D36A1843126B0243086810437E
:102DE000086002984068102805D1FFE70298016842
:102DF000C0698861FFE702980168C86840F01E005A
:102E0000C86002990020C864029A012182F8351036
:102E10008DF80F00FFE79DF80F0004B080BD0000A3
:102E200081B0009001B0704780B58EB00D90FFE783
:102E300044F2DC40C5F60200016841F00101016086
:102E4000006800F001000C900C98FFE7FFE744F2E7
:102E5000E040C5F60200016841F001010160006830
:102E600000F001000B900B98FFE7FFE744F2E04011
:102E7000C5F60200016841F002010160006800F03F
:102E800002000A900A98FFE7FFE744F2E040C5F627
:102E90000200016841F010010160006800F01000BC
:102EA00009900998FFE7FFE744F2E040C5F6020009
:102EB000016841F080010160006800F08000089026
:102EC0000898FFE7FFE744F2E040C5F6020001681A
:102ED00041F480710160006800F4807007900798E9
:102EE000FFE74FF4C8600290022003900D20069087
:102EF00001200490032005900020C5F6020002A9DD
:102F0000009101F029FD00994FF48070029040F289
:102F10000040C5F6020001F01FFD0099402002901C
:102F200041F20000C5F6020001F016FD00994FF4D1
:102F3000B240029041F60040C5F6020001F00CFDDF
:102F400000993020029042F20000C5F6020001F024
:102F500003FD4E2001900022114603F0CDF80198A8
:102F600003F0BEF80EB080BD81B0009001B0704794
:102F700080B588B0DDF828C00690059104920393CF
:102F800000208DF80B0006988068802808D1FFE7A4
:102F900006994FF48070486501208DF80B00B2E16E
:102FA000FFE7069890F83400012804D1FFE70220DB
:102FB0008DF81F00ACE10699012081F83400FFE78D
:102FC000FFE7069890F83500012840F09381FFE76D
:102FD0000699022081F83500069900204865069878
:102FE000016801201022C4F202029142009000F018
:102FF000A380FFE70698016801202822C4F202029C
:103000009142009000F09880FFE706980168012047
:103010004022C4F202029142009000F08D80FFE74E
:103020000698016801205822C4F2020291420090E1
:1030300000F08280FFE70698016801207022C4F248
:1030400002029142009077D0FFE7069801680120C4
:103050008822C4F20202914200906DD0FFE70698E8
:1030600001680120A022C4F202029142009063D0C4
:10307000FFE7069801680120B822C4F202029142DB
:10308000009059D0FFE706980168012040F21042F5
:10309000C4F20202914200904ED0FFE70698016808
:1030A000012040F22842C4F202029142009043D033
:1030B000FFE706980168012040F24042C4F2020294
:1030C0009142009038D0FFE706980168012040F255
:1030D0005842C4F20202914200902DD0FFE70698B8
:1030E0000168012040F27042C4F202029142009055
:1030F00022D0FFE706980168012040F28842C4F21E
:1031000002029142009017D0FFE706980168012063
:1031100040F2A042C4F20202914200900CD0FFE7BC
:10312000069800684FF64831CBF6FD710844B0FAB6
:1031300080F040090090FFE70098C007B8B1FFE7B2
:1031400006980168086840F4802008600398069992
:10315000096808610698806D083001900698C06D76
:1031600000F01F013F2088400199086017E0069891
:103170000168086848F22002104308600398069925
:10318000096808610698806D043001900698C06D4A
:1031900000F01F010120884001990860FFE70698B0
:1031A0000599049A0A9BFEF74FFE0698416E806EC1
:1031B00048600698C06E28B1FFE70698016F406F1F
:1031C0004860FFE7069800681021C4F202018842B7
:1031D00000F08180FFE7069800682821C4F2020110
:1031E000884278D0FFE7069800684021C4F20201C7
:1031F000884270D0FFE7069800685821C4F20201A7
:10320000884268D0FFE7069800687021C4F2020186
:10321000884260D0FFE7069800688821C4F2020166
:10322000884258D0FFE706980068A021C4F2020146
:10323000884250D0FFE706980068B821C4F2020126
:10324000884248D0FFE70698006840F21041C4F277
:10325000020188423FD0FFE70698006840F228410B
:10326000C4F20201884236D0FFE70698006840F2B7
:103270004041C4F2020188422DD0FFE70698006861
:1032800040F25841C4F20201884224D0FFE7069878
:10329000006840F27041C4F2020188421BD0FFE78F
:1032A0000698006840F28841C4F20201884212D0B8
:1032B000FFE70698006840F2A041C4F2020188428C
:1032C00009D0FFE70698006840F2B841C4F2020155
:1032D000884207D1FFE706980168086840F00100BE
:1032E000086006E006980168086840F00100086080
:1032F000FFE707E006994FF40060486501208DF86C
:103300000B00FFE7FFE79DF80B008DF81F00FFE7BC
:103310009DF81F0008B080BD80B584B0029002986F
:1033200020B9FFE701208DF80F0034E2029890F8F1
:103330003500022807D0FFE7029980204865012068
:103340008DF80F0027E20298016801201022C4F2D4
:1033500002029142009000F0A380FFE7029801680A
:1033600001202822C4F202029142009000F09880CD
:10337000FFE70298016801204022C4F20202914254
:10338000009000F08D80FFE702980168012058222C
:10339000C4F202029142009000F08280FFE702989E
:1033A000016801207022C4F202029142009077D09D
:1033B000FFE70298016801208822C4F202029142CC
:1033C00000906DD0FFE7029801680120A022C4F2AE
:1033D00002029142009063D0FFE702980168012049
:1033E000B822C4F202029142009059D0FFE702983D
:1033F0000168012040F21042C4F2020291420090A2
:103400004ED0FFE702980168012040F22842C4F242
:1034100002029142009043D0FFE702980168012028
:1034200040F24042C4F202029142009038D0FFE7DD
:1034300002980168012040F25842C4F2020291420F
:1034400000902DD0FFE702980168012040F2704201
:10345000C4F202029142009022D0FFE70298016874
:10346000012040F28842C4F202029142009017D03B
:10347000FFE702980168012040F2A042C4F2020274
:10348000914200900CD0FFE7029800684FF6483157
:10349000CBF6FD710844B0FA80F040090090FFE7D8
:1034A0000098C007002800F09D80FFE702990420E3
:1034B00081F83500029800681021C4F202018842A8
:1034C00000F08180FFE7029800682821C4F2020121
:1034D000884278D0FFE7029800684021C4F20201D8
:1034E000884270D0FFE7029800685821C4F20201B8
:1034F000884268D0FFE7029800687021C4F2020198
:10350000884260D0FFE7029800688821C4F2020177
:10351000884258D0FFE702980068A021C4F2020157
:10352000884250D0FFE702980068B821C4F2020137
:10353000884248D0FFE70298006840F21041C4F288
:10354000020188423FD0FFE70298006840F228411C
:10355000C4F20201884236D0FFE70298006840F2C8
:103560004041C4F2020188422DD0FFE70298006872
:1035700040F25841C4F20201884224D0FFE7029889
:10358000006840F27041C4F2020188421BD0FFE79C
:103590000298006840F28841C4F20201884212D0C9
:1035A000FFE70298006840F2A041C4F2020188429D
:1035B00009D0FFE70298006840F2B841C4F2020166
:1035C000884207D1FFE702980168086820F00100EF
:1035D000086006E002980168086820F001000860B1
:1035E000FFE7D3E002980168086820F00E00086049
:1035F000029800681021C4F20201884200F0818024
:10360000FFE7029800682821C4F20201884278D0BE
:10361000FFE7029800684021C4F20201884270D09E
:10362000FFE7029800685821C4F20201884268D07E
:10363000FFE7029800687021C4F20201884260D05E
:10364000FFE7029800688821C4F20201884258D03E
:10365000FFE702980068A021C4F20201884250D01E
:10366000FFE702980068B821C4F20201884248D0FE
:10367000FFE70298006840F21041C4F2020188425C
:103680003FD0FFE70298006840F22841C4F20201EF
:10369000884236D0FFE70298006840F24041C4F209
:1036A000020188422DD0FFE70298006840F258419D
:1036B000C4F20201884224D0FFE70298006840F279
:1036C0007041C4F2020188421BD0FFE702980068F3
:1036D00040F28841C4F20201884212D0FFE702980A
:1036E000006840F2A041C4F20201884209D0FFE71D
:1036F0000298006840F2B841C4F20201884207D142
:10370000FFE702980168086820F00100086006E001
:1037100002980168086820F001000860FFE702983D
:10372000016E086820F4807008600298806D019036
:103730000298C06D00F01F01012088400199486087
:103740000298416E806E48600298C06E58B1FFE7E3
:103750000298C16E086820F4807008600298016FBA
:10376000406F4860FFE7FFE70299002081F83400CE
:10377000FFE70299012081F835000298006D20B121
:10378000FFE70298016D8847FFE7FFE7FFE70020AA
:103790008DF80F00FFE79DF80F0004B080BD00001A
:1037A00081B000900098406D01B0704700000000AB
:1037B00080B58AB0089001F0EBFA0690089820B91D
:1037C000FFE701208DF82700E2E208980168012058
:1037D0001022C4F202029142039000F0A380FFE79E
:1037E0000898016801202822C4F202029142039045
:1037F00000F09880FFE70898016801204022C4F299
:1038000002029142039000F08D80FFE70898016862
:1038100001205822C4F202029142039000F08280FB
:10382000FFE70898016801207022C4F20202914269
:10383000039077D0FFE70898016801208822C4F23E
:103840000202914203906DD0FFE7089801680120C1
:10385000A022C4F202029142039063D0FFE70898CD
:1038600001680120B822C4F202029142039059D0AB
:10387000FFE708980168012040F21042C4F20202FA
:10388000914203904ED0FFE708980168012040F272
:103890002842C4F202029142039043D0FFE7089805
:1038A0000168012040F24042C4F2020291420390BA
:1038B00038D0FFE708980168012040F25842C4F26E
:1038C0000202914203902DD0FFE708980168012081
:1038D00040F27042C4F202029142039022D0FFE70C
:1038E00008980168012040F28842C4F20202914225
:1038F000039017D0FFE708980168012040F2A0422A
:10390000C4F20202914203900CD0FFE708980068CD
:103910004FF64831CBF6FD710844B0FA80F040090B
:103920000390FFE70398C007002800F02D81FFE710
:103930000898406A08B1FFE7FFE7FFE70899002011
:1039400081F83400FFE70899022081F835000898D3
:1039500000681021C4F20201884200F08180FFE774
:10396000089800682821C4F20201884278D0FFE755
:10397000089800684021C4F20201884270D0FFE735
:10398000089800685821C4F20201884268D0FFE715
:10399000089800687021C4F20201884260D0FFE7F5
:1039A000089800688821C4F20201884258D0FFE7D5
:1039B00008980068A021C4F20201884250D0FFE7B5
:1039C00008980068B821C4F20201884248D0FFE795
:1039D0000898006840F21041C4F2020188423FD0CA
:1039E000FFE70898006840F22841C4F202018842CB
:1039F00036D0FFE70898006840F24041C4F2020167
:103A000088422DD0FFE70898006840F25841C4F280
:103A10000201884224D0FFE70898006840F2704114
:103A2000C4F2020188421BD0FFE70898006840F208
:103A30008841C4F20201884212D0FFE7089800686A
:103A400040F2A041C4F20201884209D0FFE7089881
:103A5000006840F2B841C4F20201884207D1FFE792
:103A600008980168086820F00100086006E00898DE
:103A70000168086820F001000860FFE7FFE7089888
:103A800000680068C00798B1FFE701F081F9069966
:103A9000401A06280BD3FFE70899202048650899AB
:103AA000032081F8350001208DF8270070E1E6E75A
:103AB0000898006800680790079848F23F01CFF621
:103AC00010610840079008998868D1F80CC00B690C
:103AD0004A6940EA0C00184310438A691043CA69D6
:103AE0001043096A01430798084307900898406A01
:103AF000042808D1FFE70899C86A096B01430798B1
:103B000008430790FFE70798089909680860089834
:103B1000006840690790079820F007000790089810
:103B2000416A0798084307900898406A04281AD108
:103B3000FFE70898816A0798084307900898C06AC9
:103B400080B1FFE70898FEF707F950B1FFE7089941
:103B5000402048650899012081F835008DF827003C
:103B600016E1FFE7FFE70798089909684861089898
:103B7000FDF7B6FE05900898C06D00F01F013F20CC
:103B8000884005998860C8E008980168012045F2DE
:103B90000842C5F60202914202904ED0FFE7089813
:103BA0000168012045F21C42C5F6020291420290D2
:103BB00043D0FFE708980168012045F23042C5F67E
:103BC00002029142029038D0FFE708980168012074
:103BD00045F24442C5F60202914202902DD0FFE721
:103BE00008980168012045F25842C5F60202914248
:103BF000029022D0FFE708980168012045F26C424C
:103C0000C5F602029142029017D0FFE708980168BA
:103C1000012045F28042C5F60202914202900CD08A
:103C2000FFE7089800684AF66C31CAF2FD71084453
:103C3000B0FA80F040090290FFE70298C007002820
:103C40005FD0FFE7FFE70899002081F83400FFE725
:103C50000899022081F835000898006800680790EC
:103C600007986FF31010079008988068402803D1D8
:103C7000FFE71020019008E0089880688038B0FACB
:103C800080F0400980030190FFE701980899D1F87E
:103C90000CE0D1F810C04B698A6940EADE0040EAC6
:103CA000DC0040EAD30040EAD200CA6940EAD20010
:103CB000096A40EA11110798084307900798089984
:103CC00009680860089908684AF6F832CAF2FD7275
:103CD00010444CF6CD42CCF6CC42A0FB02026FF071
:103CE000030000EA9200C8650898FDF7F9FD04900A
:103CF0000898C06D00F01F010120884004994860B9
:103D00000AE00899402048650899032081F83500A9
:103D100001208DF827003BE0FFE70898FDF7C8FE7B
:103D200008988068802804D1FFE70899002048603F
:103D3000FFE708990879096E08600898416E806E5F
:103D400048600898406888B1FFE7089840680828EC
:103D50000CD8FFE70898FDF767FF0898C16E0020B0
:103D600008600898016F406F486007E008990020DC
:103D7000C8660899086708994867FFE7089900200E
:103D80004865089A012182F835108DF82700FFE771
:103D90009DF827000AB080BD80B586B004900391DD
:103DA0000292019300208DF80300049820B9FFE7E8
:103DB00001208DF8170066E1FFE7049890F83400C1
:103DC000012804D1FFE702208DF817005BE1049978
:103DD000012081F83400FFE7FFE7049890F83500F0
:103DE000012840F03D81FFE70499022081F8350069
:103DF000049900204865049800681021C4F202016B
:103E0000884200F08180FFE7049800682821C4F20E
:103E10000201884278D0FFE7049800684021C4F28C
:103E20000201884270D0FFE7049800685821C4F26C
:103E30000201884268D0FFE7049800687021C4F24C
:103E40000201884260D0FFE7049800688821C4F22C
:103E50000201884258D0FFE704980068A021C4F20C
:103E60000201884250D0FFE704980068B821C4F2EC
:103E70000201884248D0FFE70498006840F21041F0
:103E8000C4F2020188423FD0FFE70498006840F284
:103E90002841C4F20201884236D0FFE70498006846
:103EA00040F24041C4F2020188422DD0FFE704985D
:103EB000006840F25841C4F20201884224D0FFE772
:103EC0000498006840F27041C4F2020188421BD09D
:103ED000FFE70498006840F28841C4F2020188427A
:103EE00012D0FFE70498006840F2A041C4F202013A
:103EF000884209D0FFE70498006840F2B841C4F254
:103F00000201884207D1FFE704980168086820F0A1
:103F10000100086006E004980168086820F00100CC
:103F20000860FFE704980399029A019BFEF77CF86A
:103F3000049800681021C4F20201884200F08180D8
:103F4000FFE7049800682821C4F20201884278D073
:103F5000FFE7049800684021C4F20201884270D053
:103F6000FFE7049800685821C4F20201884268D033
:103F7000FFE7049800687021C4F20201884260D013
:103F8000FFE7049800688821C4F20201884258D0F3
:103F9000FFE704980068A021C4F20201884250D0D3
:103FA000FFE704980068B821C4F20201884248D0B3
:103FB000FFE70498006840F21041C4F20201884211
:103FC0003FD0FFE70498006840F22841C4F20201A4
:103FD000884236D0FFE70498006840F24041C4F2BE
:103FE000020188422DD0FFE70498006840F2584152
:103FF000C4F20201884224D0FFE70498006840F22E
:104000007041C4F2020188421BD0FFE704980068A7
:1040100040F28841C4F20201884212D0FFE70498BE
:10402000006840F2A041C4F20201884209D0FFE7D3
:104030000498006840F2B841C4F20201884207D1F6
:10404000FFE704980168086840F00100086006E096
:1040500004980168086840F001000860FFE70DE07F
:10406000FFE70499002081F83400FFE704994FF43A
:104070000060486501208DF80300FFE79DF803000C
:104080008DF81700FFE79DF8170006B080BD00000F
:1040900080B588B0069005910492039300208DF8B6
:1040A0000B00069820B9FFE701208DF81F005AE2A7
:1040B000FFE7069890F83400012804D1FFE70220BA
:1040C0008DF81F004FE20699012081F83400FFE7C8
:1040D000FFE7069890F83500012840F03182FFE7AD
:1040E0000699022081F83500069900204865069857
:1040F00000681021C4F20201884200F08180FFE7CD
:10410000069800682821C4F20201884278D0FFE7AF
:10411000069800684021C4F20201884270D0FFE78F
:10412000069800685821C4F20201884268D0FFE76F
:10413000069800687021C4F20201884260D0FFE74F
:10414000069800688821C4F20201884258D0FFE72F
:1041500006980068A021C4F20201884250D0FFE70F
:1041600006980068B821C4F20201884248D0FFE7EF
:104170000698006840F21041C4F2020188423FD024
:10418000FFE70698006840F22841C4F20201884225
:1041900036D0FFE70698006840F24041C4F20201C1
:1041A00088422DD0FFE70698006840F25841C4F2DB
:1041B0000201884224D0FFE70698006840F270416F
:1041C000C4F2020188421BD0FFE70698006840F263
:1041D0008841C4F20201884212D0FFE706980068C5
:1041E00040F2A041C4F20201884209D0FFE70698DC
:1041F000006840F2B841C4F20201884207D1FFE7EB
:1042000006980168086820F00100086006E006983A
:104210000168086820F001000860FFE7069805992A
:10422000049A039BFDF700FF069801680120102205
:10423000C4F202029142019000F0A380FFE70698C9
:10424000016801202822C4F202029142019000F08C
:104250009880FFE70698016801204022C4F202021C
:104260009142019000F08D80FFE7069801680120DF
:104270005822C4F202029142019000F08280FFE7CE
:104280000698016801207022C4F202029142019056
:1042900077D0FFE70698016801208822C4F2020265
:1042A000914201906DD0FFE7069801680120A0229D
:1042B000C4F202029142019063D0FFE706980168C0
:1042C0000120B822C4F202029142019059D0FFE7C6
:1042D00006980168012040F21042C4F202029142A5
:1042E00001904ED0FFE706980168012040F2284275
:1042F000C4F202029142019043D0FFE706980168A0
:10430000012040F24042C4F202029142019038D0B2
:10431000FFE706980168012040F25842C4F2020209
:10432000914201902DD0FFE706980168012040F2EC
:104330007042C4F202029142019022D0FFE7069837
:104340000168012040F28842C4F2020291420190C9
:1043500017D0FFE706980168012040F2A042C4F29E
:104360000202914201900CD0FFE7069800684FF6D8
:104370004831CBF6FD710844B0FA80F04009019055
:10438000FFE70198C007A8B1FFE70698006800683A
:104390000B2161F344000699096808600698006CD7
:1043A00038B1FFE706980168086840F00800086027
:1043B000FFE714E0069800680068052161F34300F8
:1043C0000699096808600698006C38B1FFE70698FE
:1043D0000168086840F004000860FFE7FFE70698FE
:1043E000006E0068C003002807D5FFE70698016E3D
:1043F000086840F480700860FFE70698C06E38B126
:10440000FFE70698C16E086840F480700860FFE717
:10441000069800681021C4F20201884200F08180F1
:10442000FFE7069800682821C4F20201884278D08C
:10443000FFE7069800684021C4F20201884270D06C
:10444000FFE7069800685821C4F20201884268D04C
:10445000FFE7069800687021C4F20201884260D02C
:10446000FFE7069800688821C4F20201884258D00C
:10447000FFE706980068A021C4F20201884250D0EC
:10448000FFE706980068B821C4F20201884248D0CC
:10449000FFE70698006840F21041C4F2020188422A
:1044A0003FD0FFE70698006840F22841C4F20201BD
:1044B000884236D0FFE70698006840F24041C4F2D7
:1044C000020188422DD0FFE70698006840F258416B
:1044D000C4F20201884224D0FFE70698006840F247
:1044E0007041C4F2020188421BD0FFE706980068C1
:1044F00040F28841C4F20201884212D0FFE70698D8
:10450000006840F2A041C4F20201884209D0FFE7EE
:104510000698006840F2B841C4F20201884207D10F
:10452000FFE706980168086840F00100086006E0AF
:1045300006980168086840F001000860FFE70DE098
:10454000FFE70699002081F83400FFE706994FF451
:104550000060486501208DF80B00FFE79DF80B0017
:104560008DF81F00FFE79DF81F0008B080BD000018
:1045700080B58CB000200B900A90099008900790AD
:1045800041F62820C2F20040006808B1FFE792E03F
:1045900041F62821C2F2004101200860FFE744F201
:1045A000D440C5F60200016841F480510160006802
:1045B00000F4805006900698FFE74FF6837007904E
:1045C000022001900890002002900990032003909F
:1045D0000A900C2004900B9041F20000C5F60200F6
:1045E00007A9059100F0B8F9DDF804C0029B039A11
:1045F0000498059948F2371ECDF81CE0CDF820C08C
:1046000009930A920B9041F60000C5F6020000F0F3
:10461000A3F9DDF804C0029B039A049805994CF2B3
:10462000037ECDF81CE0CDF820C009930A920B90D0
:1046300040F60040C5F6020000F08EF9DDF804C037
:10464000029B039A049805994FF63F0ECDF81CE0A3
:10465000CDF820C009930A920B9041F20040C5F6B4
:10466000020000F079F9DDF804C0029B039A049877
:1046700005990790CDF820C009930A920B9040F657
:104680000000C5F6020000F067F9DDF804C0029BE7
:10469000039A049805994FF0200ECDF81CE0CDF850
:1046A00020C009930A920B9041F60040C5F6020023
:1046B00000F052F9FFE70CB080BD000000000000E0
:1046C00090B00F900E9100200D908020C5F6000054
:1046D0000A90FFE70E980D99C840002800F011815C
:1046E000FFE70E980D9A0121914008400C900C981C
:1046F000002800F00281FFE70D9820F0030040F24F
:104700000841C5F6000140580B900D9800F00300D9
:1047100081000F2000FA01F10B9808400B900B98D4
:1047200009900F980021C5F60201884203D1FFE7E6
:10473000002008907AE00F9840F20041C5F602018F
:10474000884203D1FFE7012007906CE00F9840F604
:104750000001C5F60201884203D1FFE7022006905E
:104760005EE00F9840F60041C5F60201884203D191
:10477000FFE70320059050E00F9841F20001C5F6D5
:104780000201884203D1FFE70420049042E00F9821
:1047900041F20041C5F60201884203D1FFE705203E
:1047A000039034E00F9841F60001C5F602018842FB
:1047B00003D1FFE70620029026E00F9841F6004162
:1047C000C5F60201884203D1FFE70720019018E0F7
:1047D0000F9842F20001C5F60201884203D1FFE7BB
:1047E000082000900AE00F9942F20042C5F602024A
:1047F0000A20914208BF09200090FFE7009801902D
:10480000FFE701980290FFE702980390FFE7039803
:104810000490FFE704980590FFE705980690FFE7EE
:1048200006980790FFE707980890FFE7099808990E
:104830000D9A02F003029200914088422AD1FFE7CC
:104840000D9800F0030081000F2088400B900B9B17
:104850000D9820F0030140F20842C5F60002885886
:10486000984388500C9A0A990868904308600C9AFB
:104870000A994868904348600C9A4FF0B041086824
:10488000904308600C9A0421C5F600010868904323
:104890000860FFE70D984100032000FA01F30F9A2A
:1048A000116819431160DDF834C00CF007018A006B
:1048B0000F2101FA02F30F996FF0030202EA5C0282
:1048C0000A44116A994311620D99490000FA01F3F3
:1048D0000F9A9168994391600D9A012101FA02F3B0
:1048E0000F9A5168994351600D99490000FA01F2FD
:1048F0000F99C8689043C860FFE70D9801300D908C
:10490000E8E610B07047000080B582B0ADF8060050
:10491000BDF806001AF0E0FF77F07EFF02B080BD20
:1049200080B582B0ADF806008820C5F600000068AA
:10493000BDF8061008420BD0FFE7BDF8060088213D
:10494000C5F600010860BDF80600FFF7DDFFFFE7D0
:1049500002B080BD0000000090B00F900E910020CA
:104960000D908020C5F600000A90FFE70E980068C1
:104970000D99C840002800F0D081FFE70E9800682C
:104980000D9A0121914008400C900C98002800F0ED
:10499000C081FFE70E984068022805D0FFE70E9817
:1049A0004068122826D1FFE70F980D996FF0030297
:1049B00002EA51010844006A0B900D9800F00700CC
:1049C00081000F2000FA01F10B9888430B900E989C
:1049D00000690D9901F00701890000FA01F10B98B7
:1049E00008430B900B980F990D9B02EA5302114458
:1049F0000862FFE70F9800680B900D9841000320B4
:104A000000FA01F10B9888430B900E98406800F073
:104A100003000D99490000FA01F10B9808430B902F
:104A20000B980F9908600E98406801280FD0FFE797
:104A30000E98406802280AD0FFE70E9840681128B7
:104A400005D0FFE70E98406812282FD1FFE70F9896
:104A500080680B900D984100032000FA01F10B983B
:104A600088430B900E98C0680D99490000FA01F137
:104A70000B9808430B900B980F9988600F9840682B
:104A80000B900D99012000FA01F10B9888430B90CF
:104A90000E984068C0F300100D9900FA01F10B98D0
:104AA00008430B900B980F994860FFE70F98C06878
:104AB0000B900D984100032000FA01F10B988843F8
:104AC0000B900E9880680D99490000FA01F10B983F
:104AD00008430B900B980F99C8600E98C079C006D8
:104AE000002840F11581FFE7FFE744F2F440C5F6E6
:104AF0000200016841F002010160006800F002005C
:104B000009900998FFE70D9820F0030040F2084152
:104B1000C5F6000140580B900D9800F0030081008D
:104B20000F2000FA01F10B9888430B900F98002199
:104B3000C5F60201884203D1FFE7002008907AE021
:104B40000F9840F20041C5F60201884203D1FFE709
:104B5000012007906CE00F9840F60001C5F60201B5
:104B6000884203D1FFE7022006905EE00F9840F6EE
:104B70000041C5F60201884203D1FFE703200590FA
:104B800050E00F9841F20001C5F60201884203D1BE
:104B9000FFE70420049042E00F9841F20041C5F67F
:104BA0000201884203D1FFE70520039034E00F980B
:104BB00041F60001C5F60201884203D1FFE7062055
:104BC000029026E00F9841F60041C5F602018842A6
:104BD00003D1FFE70720019018E00F9842F200018F
:104BE000C5F60201884203D1FFE7082000900AE0E1
:104BF0000F9942F20042C5F602020A20914208BF14
:104C000009200090FFE700980190FFE701980290CB
:104C1000FFE702980390FFE703980490FFE70498EA
:104C20000590FFE705980690FFE706980790FFE7D5
:104C300007980890FFE708980D9901F00301890093
:104C400000FA01F10B9808430B900B980D9921F095
:104C5000030140F20842C5F6000288500A98006835
:104C60000B900C990B9888430B900E988079C00795
:104C700028B1FFE70C990B9808430B90FFE70B98BE
:104C80000A9908600A9840680B900C990B98884321
:104C90000B900E9880798007002805D5FFE70C99C6
:104CA0000B9808430B90FFE70B980A9948604FF068
:104CB000B04000680B900C990B9888430B900E98AD
:104CC0008079C006002805D5FFE70C990B980843AA
:104CD0000B90FFE70B984FF0B04108600420C5F639
:104CE000000000680B900C990B9888430B900E986D
:104CF00080798006002805D5FFE70C990B980843BA
:104D00000B90FFE70B980421C5F600010860FFE750
:104D1000FFE70D9801300D9028E610B070470000B5
:104D200082B00190ADF8021001980069BDF8021040
:104D3000084204D0FFE701208DF8010003E00020C5
:104D40008DF80100FFE79DF8010002B070470000F8
:104D500082B00190ADF802108DF801209DF801009D
:104D600028B1FFE7BDF802000199886105E0BDF8B0
:104D70000200000401998861FFE702B0704700005B
:104D800041F20000C5F600400068000C70470000CA
:104D900080B585F0E5F94FF47A71484344F6D35174
:104DA000C1F26201A0FB0110800980BD000000007B
:104DB00040F2FE60C2F20040027847F6B871C2F2DB
:104DC00001410868104408607047000000000000BE
:104DD00080B582B0032001F0A7F902F0A1FF44F2F0
:104DE0001842C5F602021168C1F3032343F2101101
:104DF000C9F20B01CB5C03F01F0320FA03F340F26E
:104E0000A800C2F2004003600068126802F00F02BE
:104E1000895C01F01F01C84040F2AC01C2F20041C0
:104E20000860002000F010F820B1FFE701208DF8A5
:104E3000070005E001F034F900208DF80700FFE7D6
:104E40009DF8070002B080BD81B00090002001B045
:104E5000704700000000000083B0029001910092B2
:104E600001980299886100980299886203B070479E
:104E700083B002900191009201980299C861009854
:104E80000299C86203B0704780B584B00390029164
:104E90000192019A41F63021C2F2004108681044A3
:104EA0000860039809684FF48032FFF7E1FF04B00F
:104EB00080BD00000000000081B0009049F68831FC
:104EC000C2F200410120086001B0704700000000FC
:104ED00080B586B0DDF820C0049003910292019362
:104EE000049830B1FFE7039818B1FFE7019820B9A3
:104EF000FFE701208DF817005AE0FFE7049890F8CB
:104F00004C00012804D1FFE702208DF817004FE084
:104F10000499012081F84C00FFE7FFE7049890F81E
:104F20004D00012836D1FFE70499042081F84D0097
:104F30000499486D20F00F0048650499486D40F0D1
:104F40000E00486503980499886101980499C86126
:104F500002980499886208980499C862049900200C
:104F6000086204994862049806F01EFF049806F04F
:104F7000EFFD70B1FFE70499062081F84D00FFE7CF
:104F80000499002081F84C00FFE701208DF81700FC
:104F90000EE009E0FFE70499002081F84C00FFE7EC
:104FA00002208DF8170003E000208DF81700FFE7BE
:104FB0009DF8170006B080BD81B0009001B0704729
:104FC00081B0009001B0704780B584B00390029129
:104FD000029A41F61030C2F20040016811440160AB
:104FE000006841F61431C2F200410968884229D2B2
:104FF000FFE741F61831C2F200410868029A1044F6
:10500000086041F61430C2F20040006841F61031E9
:10501000C2F200410968401AB0F5803F04D3FFE7AF
:105020004FF4803001900CE041F61430C2F20040A1
:10503000006841F61031C2F200410968401A01903F
:10504000FFE702E000200190FFE7039841F61831E6
:10505000C2F200410968019AFFF7FEFE04B080BD6C
:1050600080B586B004900391049818B1FFE70398C7
:1050700020B9FFE701208DF817008CE00498006844
:10508000406800F00300022804D1FFE703991020D4
:1050900008601BE0049800684068800720B9FFE7BB
:1050A00003990020086010E004980068406800F050
:1050B0000300032804D1FFE703993020086003E0D0
:1050C00001208DF8170066E0FFE7FFE7049800680D
:1050D0004068000C0399886004980068C068000C60
:1050E0000399C86003980068102805D0FFE703986B
:1050F0000068302842D1FFE7049800680069C0B218
:1051000000090290049800684069C0B2000901904B
:10511000049800688069C0B20009009002980128D4
:105120000AD1FFE7019838B9FFE7009820B9FFE7F7
:1051300003990220486020E0029850B9FFE70198E7
:1051400038B9FFE7009820B9FFE7039900204860CD
:1051500012E0029803280AD1FFE7019838B9FFE767
:10516000009820B9FFE703990120486003E0039904
:1051700000204860FFE7FFE7FFE703E00399002016
:105180004860FFE7049806F0A7FD03990861002036
:105190008DF81700FFE79DF8170006B080BD0000EE
:1051A00080B582B00190019890F84D000338012835
:1051B00019D8FFE70198406D00F00C00082804D1D1
:1051C000FFE7019806F074FF0CE00198406D00F0D5
:1051D0000C000C2804D1FFE7019806F04DFB00E01D
:1051E000FFE7FFE700E0FFE702B080BD000000003E
:1051F00082B00190009102B07047000000000000F2
:1052000080B582B00090009820B9FFE701208DF8AA
:10521000070068E0009890F84D0040B9FFE700995A
:10522000002081F84C00009800F062F8FFE7009938
:10523000022081F84D0000980168086B40F00100E1
:10524000086300980168086820F001000860009871
:105250000068006B20F07E000099096808630098E0
:105260000168086B40F40050086300980168086BFF
:1052700040F48040086300980168886B40F060004B
:105280008863009943F27210C9F20B00C863009959
:1052900043F23210C9F20B00086400990020486400
:1052A00000998864009807F09FF930B1FFE70099F2
:1052B000012008658DF8070015E00098016848682E
:1052C00040F48070486000990020086200994862AC
:1052D000009A012182F84D100099086500994865EF
:1052E0008DF80700FFE79DF8070002B080BD0000C1
:1052F00080B58AB00990FFE744F2D440C5F60200B9
:10530000016841F020010160006800F02000089071
:105310000898FFE7FFE744F2D440C5F602000168B1
:1053200041F001010160006800F00100079007985A
:10533000FFE77920049007210022059200F0DCFEAF
:10534000049800F0CDFE059841F63821C2F20041E4
:10535000069140F20022C5F200220A608022CA6053
:10536000086102234B618861C8610A624FF00072D4
:105370004A624FF4A042CA624FF400320A634863A3
:10538000886311224A60886020208862FFE70998BC
:1053900041F63821C2F20041016309980864FFE731
:1053A00041F63820C2F20040029000F065FB0298FE
:1053B00000F01EFD41F6A420C2F20040039040F22E
:1053C000C011C5F200210160C021C160002202614C
:1053D0004261082181612021C16102624FF00073A6
:1053E00043624FF4A043C3624FF42033036342632C
:1053F0008263132343608260816200F03DFB039867
:1054000000F0F6FCFFE7099841F6A421C2F2004142
:10541000416309980864FFE77A200190082100227F
:1054200000F06AFE019800F05BFE0AB080BD00004B
:1054300083B002900191002000900298406D00F02E
:105440000C000C2818D1FFE79DF80400C00730B10C
:10545000FFE70299486D40F480504865FFE79DF8EA
:1054600004008007002806D5FFE70299486D40F444
:1054700000504865FFE730E00298406D00F00C00F6
:10548000082828D1FFE79DF80400C00750B1FFE7C6
:105490000299486D40F480504865009840F006003D
:1054A0000090FFE79DF80400800700280AD5FFE779
:1054B0000299486D40F400504865009840F028007B
:1054C0000090FFE702980068006B009988430299FA
:1054D0000968086300E0FFE7FFE7002003B07047BA
:1054E000B0B586B0049003910292FFE7049890F85B
:1054F000A000012804D1FFE702208DF8170049E041
:105500000499012081F8A000FFE7FFE70499022039
:1055100081F8A100049A0298342100FB0121009136
:105520000398019002684368D0F808C0D0F80CE0F6
:1055300004694569CD648C64C1F844E0C1F840C099
:10554000CB638A638269C369D0F820C0D0F824E0B5
:10555000846AC56A4D660C66C1F85CE0C1F858C043
:105560004B650A65006B886604980399029A07F0F8
:105570001FFB0498016801204862049981F8A1008A
:10558000FFE70499002081F8A000FFE700208DF8D4
:105590001700FFE79DF8170006B0B0BD000000003F
:1055A00081B0009001B0704780B584B0039003983B
:1055B0000068806B029003980068406B01909DF832
:1055C00008004007002824D5FFE79DF804004007A5
:1055D00000281ED5FFE703980168486B20F00400FF
:1055E0004863039801680420C863039AD2F8A410A2
:1055F00041F00101C2F8A410039981F8A100FFE76E
:105600000399002081F8A000FFE70398FFF7C8FF87
:10561000FFE79DF808008007002825D5FFE79DF8E3
:105620000400800700281FD5FFE703980168486B36
:1056300020F002004863039801680220C8630399C0
:10564000D1F8A40040F00200C1F8A400039904209E
:1056500081F8A100FFE70399002081F8A000FFE78F
:105660000398FFF79DFFFFE79DF80800C007E0B132
:10567000FFE79DF80400C007B8B1FFE70398016891
:10568000486B20F001004863039801680120C8635B
:10569000039981F8A100FFE70399002081F8A00099
:1056A000FFE7039800F0D8F8FFE79DF8080000072F
:1056B00000281ED5FFE79DF804000007002818D534
:1056C000FFE703980168486B20F0080048630398DF
:1056D00001680820C8630399012081F8A100FFE751
:1056E0000399002081F8A000FFE7039800F088F9F3
:1056F000FFE704B080BD000080B584B0029002983E
:1057000020B9FFE701208DF80F009EE0029890F885
:10571000A10040B9FFE70299002081F8A00002989B
:1057200000F0A6F8FFE70299022081F8A100029894
:105730000168886920F070408861029A1168506899
:10574000D2F808C0D36840EA0C001843126902433B
:105750008869104388610298016888684FF60002E2
:10576000CFF2000210408860029840690004019066
:105770000198029B19689B690343886818438860F5
:1057800002980168C8681040C8600298C0690004A7
:1057900001900198029B19681B6A0343C86818436B
:1057A000C860029801680869104008610298406A60
:1057B000000401900198029B19689B6A03430869E1
:1057C00018430861029801684869104048610298CE
:1057D000C06A000401900198029A1168126B02439A
:1057E000486910434861029890F835000002019022
:1057F000029890F836000004009002980168C86A88
:1058000000F07F40C862009801990143029890F827
:1058100034200A430168C86A1043C86202980168CC
:10582000486B40F00600486302980168886940F0C0
:105830000100886102990020C1F8A400029A0121A8
:1058400082F8A1108DF80F00FFE79DF80F0004B05B
:1058500080BD00000000000080B582B0019049F6D4
:105860008450C2F200405C3082F00AFB02B080BD7E
:1058700080B590B00F9000200E900D900C900B9082
:105880000A900F98006841F20001C5F200018842B9
:105890007DD1FFE7FFE744F2E440C5F6020001686E
:1058A00041F008010160006800F0080009900998C3
:1058B000FFE7FFE744F2E040C5F60200016841F46B
:1058C00080610160006800F4806008900898FFE73C
:1058D000FFE744F2E040C5F60200016841F40071C0
:1058E0000160006800F4007007900798FFE7FFE789
:1058F00044F2E040C5F60200016841F480710160A5
:10590000006800F4807006900698FFE7FF200A9078
:10591000022001900B90002002900C900320039035
:105920000D900E2004900E9042F60000C5F6020085
:105930000AA90591FFF710F8DDF804C0029B039A4D
:10594000049805994FF6FF7ECDF828E0CDF82CC0DD
:105950000C930D920E9042F20040C5F60200FEF745
:10596000FBFFDDF804C0029B039A049805994FF4ED
:10597000704ECDF828E0CDF82CC00C930D920E900F
:1059800042F20000C5F60200FEF7E6FFFFE710B0A6
:1059900080BD00000000000083B001900091FFE78F
:1059A000019890F8A000012804D1FFE702208DF8AB
:1059B0000B0021E00199012081F8A000FFE7FFE73B
:1059C0000199022081F8A10001980168486B40F01C
:1059D000080048630098019909684862019901200C
:1059E00081F8A100FFE70199002081F8A000FFE7FE
:1059F00000208DF80B00FFE79DF80B0003B0704707
:105A000081B0009049F68C30C2F200400168486BCA
:105A100040F00100486301B0704700000000000042
:105A200082B00090009820B9FFE701208DF80700B0
:105A30001BE0009890F83D00022807D0FFE700998E
:105A40008020886601208DF807000EE00099042070
:105A500081F83D0000980168C86820F00100C86026
:105A6000FFE700208DF80700FFE79DF8070002B070
:105A7000704700000000000083B00190019820B939
:105A8000FFE701208DF80B004CE0019890F83D00F5
:105A9000022808D1FFE701994FF480708866012041
:105AA0008DF80B003EE001980168C86820F0010005
:105AB000C8600198016800200090C86001990968D9
:105AC000086101990968486101990968886101992B
:105AD0000968C86101990968086201990968486202
